:020000040800F2
:10000000600B0020550400089501000897010008C6
:100010009B0100089F010008A301000800000000E8
:10002000000000000000000000000000A701000820
:10003000A901000800000000AB010008AD010008A4
:100040006F0400086F0400086F0400086F040008C4
:100050006F0400086F0400086F0400086F040008B4
:100060006F040008933700086F0400086F0400084D
:100070006F0400086F0400086F0400086F04000894
:100080006F0400086F0400086F0400086F04000884
:100090006F0400086F0400086F0400086F04000874
:1000A0006F0400084B3E00086F0400086F0400084E
:1000B0006F0400086F0400086F0400086F04000854
:1000C0006F0400086F0400086F0400086F04000844
:1000D0006F0400086F0400086F040008CB320008AA
:1000E0006F0400086F0400086F04000800F002F8B5
:1000F00000F03AF80AA090E8000C82448344AAF188
:100100000107DA4501D100F02FF8AFF2090EBAE885
:100110000F0013F0010F18BFFB1A43F0010318473B
:100120005069000070690000103A24BF78C878C197
:10013000FAD8520724BF30C830C144BF04680C60ED
:10014000704700000023002400250026103A28BF35
:1001500078C1FBD8520728BF30C148BF0B60704739
:100160001FB51FBD10B510BD04F01CFA1146FFF7F6
:10017000F7FF00F00DF904F03AFA03B4FFF7F2FFCD
:1001800003BC02F0CDFB000030BF72B662B680F354
:1001900008887047704700BFFEE700BFFEE700BF5A
:1001A000FEE700BFFEE770477047704770470000EA
:1001B0000CB50020019000906C48006840F480303D
:1001C0006A49086000BF6948006800F40030009088
:1001D0000198401C0190009818B90198B0F5A06FE3
:1001E000F1D16248006800F4003010B101200090A5
:1001F00001E0002000900098012843D15C4800688D
:1002000040F010005A4908600846006820F00300DA
:1002100008600846006840F00200086053484068E3
:10022000524948600846406848600846406840F4C3
:10023000806048600846406820F47C1048600846AA
:10024000406840F4E81048600846006840F080705C
:10025000086000BF4548006800F000700028F9D031
:100260004248406820F00300404948600846406822
:1002700040F00200486000BF3C48406800F00C00BD
:100280000828F9D10CBD10B5FFF792FF10BD10B5CD
:100290003648006840F0010034490860084640686C
:1002A00034490840314948600846006832490840EE
:1002B0002E4908600846006820F48020086008463F
:1002C000406820F4FE0048604FF41F008860FFF78C
:1002D000DAFF4FF000602949086010BD10B5002119
:1002E00000200022214B5B6803F00C0121B104299E
:1002F00006D0082928D107E0214B224C236027E0B3
:100300001F4B204C236023E0184B5B6803F47010F4
:10031000164B5B6803F48032022303EB904022B952
:10032000194B4343174C23600DE0104B5B6803F4FB
:10033000003323B1144B4343124C236003E0104BB2
:100340004343104C236003E00D4B0E4C236000BF71
:1003500000BF064B5B68C3F303130C4CE15C094B15
:100360001B68CB40074C236010BD0000001002400A
:10037000002002400000FFF8FFFFF6FE08ED00E05D
:1003800000127A000000002000093D000400002057
:1003900002F0FEF84FF4FA3002F0D1FA012002F038
:1003A00051FA02F00FFB02F03DFB022002F060F96F
:1003B000642002F02AF902F055FE642002F025F9CB
:1003C00002F09BFD41F61F41632002F0A9FE8F2140
:1003D00042F20F7002F0D2FE03F094F902F080FFB7
:1003E00003F067F926E003F054F81349086007208A
:1003F00003F072F811490860082003F06DF8104905
:100400000860052003F068F80E490860062003F034
:1004100063F80D49086003F067FE03F08BFF0120CD
:100420000A49087000200A49087000BF0748007890
:100430000028FBD1D7E7000058000020480000202A
:100440004C000020500000205400002045000020F7
:10045000440000200948804709480047FEE7FEE7BE
:10046000FEE7FEE7FEE7FEE7FEE7FEE7FEE7FEE764
:1004700004480549054A064B704700008F020008F2
:10048000ED00000860050020600B002060070020E0
:100490006007002031490143314A1160704770B54F
:1004A000002100230F22C47804B32D4C246804F4E7
:1004B000E064C4F5E064210AC1F10403CA40447851
:1004C00004FA03F18478144021430901254C06788D
:1004D000A155047804F01F050124AC4005786D1186
:1004E000AD0005F1E025C5F8004109E0047804F00D
:1004F0001F050124AC401C4D0678761145F82640B6
:1005000070BD1A4A0A400243154B1B1F1A60704700
:1005100039B1134A121D12680243114B1B1D1A6098
:1005200006E00F4A121D126882430D4B1B1D1A6014
:100530007047042808D14FF0E021096941F0040117
:100540004FF0E022116107E04FF0E021096921F04E
:1005500004014FF0E0221161704700000000FA052D
:100560000CED00E000E400E080E100E080FFFF1F10
:1005700010B50446FA48844208D10121401500F024
:10058000ABFE0021601500F0A7FE17E0F54884429D
:1005900008D10121001500F09FFE0021201500F078
:1005A0009BFE0BE0F048844208D10121C80300F013
:1005B00093FE00214FF4004000F08EFE10BD30B5D8
:1005C0000246002000235068E84C20400D790C685A
:1005D00044EA0524204350609068E54C2040D1E96E
:1005E00002542C434D7944EA450420439060D06A7C
:1005F00020F470000C7C641EE4B2234340EA0350F4
:10060000D06230BD00210160017141718160C16023
:1006100001210174704721B1826842F001028260B9
:1006200003E0826822F001028260704721B1826893
:1006300042F48072826003E0826822F480728260F9
:10064000704710B50023CBB21AB144681C43446014
:1006500002E044689C43446010BD816841F0080199
:1006600081607047014600208A6802F008020AB1E2
:10067000012000E000207047816841F004018160A2
:100680007047014600208A6802F004020AB1012086
:1006900000E00020704721B1826842F4A00282602D
:1006A00003E0826822F4A0028260704701460020C5
:1006B0008A6802F480020AB1012000E0002070473D
:1006C00010B50A4600210023416821F46041531E01
:1006D00041EA4331416010BD21B1426842F40062F9
:1006E000426003E0426822F4006242607047F0B565
:1006F00004460D4600200021092D11DDE068A5F11A
:100700000A0606EB4607072606FA07F18843A5F115
:100710000A0606EB460603FA06F10843E0600CE021
:10072000206905EB4507072606FA07F1884305EB24
:10073000450603FA06F108432061072A0FDA606BC9
:10074000561E06EB86071F2606FA07F18843561E3B
:1007500006EB860605FA06F10843606322E00D2ADF
:100760000FDA206BD61F06EB86071F2606FA07F165
:100770008843D61F06EB860605FA06F10843206378
:1007800010E0E06AA2F10D0606EB86071F2606FAC6
:1007900007F18843A2F10D0606EB860605FA06F17D
:1007A0000843E062F0BD21B1826842F480128260A9
:1007B00003E0826822F48012826070470146C86CB0
:1007C00080B2704766484C300068704721B142687B
:1007D00042F48062426003E0426822F48062426038
:1007E000704721B1426842F48052426003E042689F
:1007F00022F48052426070470A460021816821F449
:10080000E04111438160704721B1826842F40042A7
:10081000826003E0826822F400428260704721B166
:10082000826842F40212826003E0826822F40212BB
:1008300082607047014600208A6802F400120AB103
:10084000012000E000207047F0B504461546002066
:1008500000220026092911DDE068A1F10A0707EB53
:10086000470C072707FA0CF29043A1F10A0707EBA0
:10087000470703FA07F21043E0600CE0206901EB40
:10088000410C072707FA0CF2904301EB410703FAEA
:1008900007F210432061A06BC0F30156EF1C06F174
:1008A000010CA7EB0C0707EB870C1F2707FA0CF2CC
:1008B0009043EF1C06F1010CA7EB0C0707EB870731
:1008C00001FA07F21043A063F0BD10B50A460021FB
:1008D0000023816B21F44011531E41EA03518163CF
:1008E00010BD08B5002300930090009B0B440093BB
:1008F000009B1A6008BD08B50246002000900092D7
:1009000001F12800009B184400900098006880B214
:1009100008BD0A4600214168164B19401143416049
:1009200070474162826270470A460021416821F0A7
:100930001F0111434160704740B1094908310968FE
:1009400041F40001064A0832116007E00449083109
:10095000096821F40001024A083211607047000062
:100960000024014000280140003C0140FFFEF0FF50
:10097000FDF7F1FFFFFD3FFF0246002013680B402B
:100980000BB1012000E000207047CA4302607047AD
:1009900070B502460020002300240B125568CEB229
:1009A00005EA060415681D4015B10CB1012000E0F0
:1009B000002070BD00220A12D3430360704700007C
:1009C00010B5012000F0A2FC002000F09FFC10BD3B
:1009D0002A49086070472949091F0860704727495C
:1009E00084310860704701460020254A10884FF680
:1009F0007F4210400843224A108070470146002081
:100A00001F4A10884FF68072104008431C4A10801D
:100A1000704708B500220092194A2C3A0092009AB9
:100A200002440092009A116008BD08B501460020FA
:100A3000009013482C3800900098084400900098CB
:100A4000008808BD0D489C300068C0B270470C4853
:100A50000830008840F001000949083108807047DB
:100A60000648A0300068C0B27047054808300088CA
:100A700040F00200024908310880704704860D42A8
:100A80002C6C0040002044490860091D0860091DC5
:100A90000860091D086041483F49143108607047EB
:100AA00000213D498279002A3AD00A46126803683B
:100AB0009A430B461A600A1D126803689A430B1D7D
:100AC0001A60027911440A6803681A430A60324ABC
:100AD0000832126803689A432F4B08331A601A1DB4
:100AE000126803689A432C4B0C331A604279102A1F
:100AF0000ED11A1F126803681A43274B08331A6075
:100B00001A1D126803681A43234B0C331A600DE058
:100B10002149427911440A6803681A430A6005E0D2
:100B2000027911440A6803689A430A6070470021F9
:100B3000016001710C2141710021817170471649DA
:100B4000103109680143144A1032116070470146A0
:100B50000020114A143212680A400AB1012000E054
:100B6000002070470C49143108607047014600208E
:100B70000022094B1B6803EA0102074B14331B6870
:100B80000B4013B10AB1012000E000207047024978
:100B9000143108607047000000040140FFFF0F009F
:100BA00010B50446CC48844208D10121042000F04D
:100BB00093FB0021042000F08FFB46E0C7488442ED
:100BC00008D10121082000F087FB0021082000F057
:100BD00083FB3AE0C248844208D10121102000F092
:100BE0007BFB0021102000F077FB2EE0BD48844203
:100BF00008D10121202000F06FFB0021202000F00F
:100C00006BFB22E0B848844208D10121402000F06B
:100C100063FB0021402000F05FFB16E0B3488442F4
:100C200008D10121802000F057FB0021802000F036
:100C300053FB0AE0AE48844207D10121801500F041
:100C40004BFB0021A01500F047FB10BD10B50121A2
:100C5000084600F041FB0021012000F03DFB10BDE3
:100C60002DE9F04102460025002600200023002443
:100C7000002791F803C00CF00F0591F803C00CF0A9
:100C8000100CBCF1000F03D091F802C04CEA05052E
:100C900091F800C0BCF1000F31D0146800202BE0A7
:100CA0004FF0010C0CFA00F3B1F800C00CEA030697
:100CB0009E4220D183004FF00F0C0CFA03F7BC4387
:100CC00005FA03FC4CEA040491F803C0BCF1280FB8
:100CD00006D14FF0010C0CFA00FCC2F814C00AE077
:100CE00091F803C0BCF1480F05D14FF0010C0CFA8C
:100CF00000FCC2F810C0401C0828D1D31460B1F821
:100D000000C0BCF1FF0F34DD546800202EE000F17C
:100D1000080C4FF0010808FA0CF3B1F800C00CEA17
:100D200003069E4221D183004FF00F0C0CFA03F70B
:100D3000BC4305FA03FC4CEA040491F803C0BCF17F
:100D4000280F05D100F1080C08FA0CF8C2F814803D
:100D500091F803C0BCF1480F07D100F1080C4FF027
:100D6000010808FA0CF8C2F81080401C0828CED3FD
:100D70005460BDE8F0814FF6FF710180022181705F
:100D80000421C17070470246002093680B400BB1EC
:100D9000012000E0002070470146886880B270475B
:100DA00002460020D3680B400BB1012000E0002078
:100DB00070470146C86880B2704701617047416161
:100DC00070470AB1016100E041617047C16070473E
:100DD0004FF480320A438261816182618269826953
:100DE000704702460020434B18684FF68073184046
:100DF00040EA021008433F4B186070473E49C86103
:100E00007047F0B50A46002300240021002500F0B9
:100E10000046B6F1004F02D1364EF16901E0354E81
:100E20007168C0F3034583B200F44016B6F5401F65
:100E300008D121F070612F4E766826F070662D4F34
:100E40007E6012E000F48016B6F5801F06D10326FE
:100E500006FA05F4A14341F0706106E0460D360143
:100E600003FA06F6B14341F0706122B1460D360136
:100E700003FA06F6314300F00046B6F1004F02D106
:100E80001C4EF16101E01B4E7160F0BD30B50022D7
:100E90008B071C0F0F2303FA04F2164B08338C1038
:100EA00053F824309343134C08348D1044F8253004
:100EB00023468C1053F824308C07240F00FA04F4D6
:100EC00023430C4C08348D1044F8253030BD0A49BA
:100ED000DC3108607047000000080140000C014050
:100EE000001001400014014000180140001C0140A6
:100EF00000200140000001400000204210B5012107
:100F0000080700F0F6F900214FF0805000F0F1F9E9
:100F100010BD2A4908627047284908617047014698
:100F20000020274A106820F0E00008431060704756
:100F30002249A0310860704710B502460020204BBE
:100F4000186820F00300104318601E4B1B6843F024
:100F500004031C4C2360012901D130BF00E020BFF5
:100F6000184B1B6823F00403164C236010BD144873
:100F7000006840F00400124908600846006840F02C
:100F8000020008600F48006840F004000D49086046
:100F900000BF00BF30BF704701460020084A5268BA
:100FA0000A400AB1012000E00020704704490968A6
:100FB00041EA8001024A11607047000000000E42C1
:100FC0000070004010ED00E0DF48006840F00100D4
:100FD000DD49086008464068DC490840DA49486055
:100FE00008460068DA490840D749086008460068A2
:100FF00020F4802008600846406820F4FE00486025
:101000004FF41F0088607047CF49096821F4803190
:10101000CD4A11601146096821F480211160B0F5B4
:10102000803F03D0B0F5802F0ED106E0C649096895
:1010300041F48031C44A116007E0C349096841F4B2
:10104000A021C14A116000E000BF00BF704710B589
:1010500001460022002300204A11012A02D1BA4C85
:10106000236806E0022A02D1B74C236A01E0B64C9D
:10107000636A01F01F02012494401C400CB101205E
:1010800000E0002010BD38B50020009000240025AD
:1010900000BF3120FFF7DBFF05460098401C0090A1
:1010A0000098B0F5A06F01D0002DF2D03120FFF7ED
:1010B000CEFF08B1012400E00024204638BD0146DF
:1010C0000020A14A106820F0F80040EAC10010603A
:1010D0007047A04908607047024600209A4B586844
:1010E00020F47C1042EA01031843974B5860704784
:1010F00098490866704701460020934A506820F0DE
:1011000003000843506070478F48406800F00C00AF
:101110007047014600208C4A506820F0F0000843D8
:101120005060704701460020874A506820F4E06014
:1011300008435060704701460020834A506820F4FD
:10114000605040EAC1005060704729B17E4A527A2F
:1011500002437D4B5A7204E07B4A527A82437A4BB7
:101160005A7270477B49D8310860704701460020A9
:10117000754A506820F44040084350607047002191
:10118000714A20321170704A82F82010012802D072
:1011900004280AD104E001216B4A2032117005E0D5
:1011A0000521694A2032117000E000BF00BF70477E
:1011B0006949086070476449096A0143624A1162DB
:1011C0007047654944390860704730B500210022F6
:1011D000002400235C4D6D6805F00C0121B1042949
:1011E00005D0082923D105E05C4D056022E05B4D68
:1011F00005601FE0544D6D6805F47012524D6D6826
:1012000005F48034022505EB92421CB9544D554338
:1012100005600BE04C4D6D6805F400351DB1504D77
:101220005543056002E04D4D5543056002E04B4DCE
:10123000056000BF00BF444D6D6805F0F00109096D
:10124000484D6B5C0568DD4045603F4D6D6805F4B9
:10125000E061090A434D6B5C4568DD4085603A4DAD
:101260006D6805F46051C90A3E4D6B5C4568DD4010
:10127000C560354D6D6805F44041890B3A4D6B5C96
:10128000C568B5FBF3F5056130BD29B12E4A526939
:1012900002432D4B5A6104E02B4A526982432A4B88
:1012A0005A61704729B1284A92690243264B9A61D4
:1012B00004E0254A92698243234B9A61704729B121
:1012C000214AD2690243204BDA6104E01E4AD26906
:1012D00082431D4BDA61704729B11B4AD268024331
:1012E000194BDA6004E0184AD2688243164BDA6080
:1012F000704729B1144A12690243134B1A6104E082
:10130000114A12698243104B1A61704712494039E1
:10131000086070470F49C86470470B49C87170472F
:101320000948406A40F080700749486270470146AA
:101330000020054A92680A400AB1012000E000201E
:101340007047014988727047001002400000FFF8A2
:10135000FFFFF6FE000042428004424200127A0083
:1013600000093D005C0000206C00002010B5044620
:10137000FE48844208D10121C014FFF7ADFF0021CF
:10138000E014FFF7A9FFC4E0B4F1804F08D10121B8
:101390000846FFF7AEFF00210120FFF7AAFFB8E0E3
:1013A000F348844208D101210220FFF7A2FF002167
:1013B0000220FFF79EFFACE0EE48844208D10121F5
:1013C0000420FFF796FF00210420FFF792FFA0E022
:1013D000E948844208D101210820FFF78AFF002153
:1013E0000820FFF786FF94E0E448844208D10121F9
:1013F0001020FFF77EFF00211020FFF77AFF88E022
:10140000DF48844208D101212020FFF772FF00212C
:101410002020FFF76EFF7CE0DA48844208D10121EA
:101420004014FFF759FF00216014FFF755FF70E0EB
:10143000D548844209D10121C804FFF74DFF00219E
:101440004FF40020FFF748FF63E0D048844209D101
:1014500001210805FFF740FF00214FF48010FFF73E
:101460003BFF56E0CA48844209D101214805FFF7F5
:1014700033FF00214FF40010FFF72EFF49E0C5486D
:10148000844208D101214020FFF733FF0021402092
:10149000FFF72FFF3DE0C048844208D101218020A2
:1014A000FFF727FF00218020FFF723FF31E0BB4833
:1014B000844208D101218015FFF71BFF0021A015F0
:1014C000FFF717FF25E0B648844209D1012108043F
:1014D000FFF702FF00214FF48030FFF7FDFE18E018
:1014E000B048844209D101214804FFF7F5FE0021EC
:1014F0004FF40030FFF7F0FE0BE0AB48844208D118
:1015000001218804FFF7E8FE00214FF48020FFF757
:10151000E3FE10BD00220288944B98420ED0994BF6
:1015200098420BD0B0F1804F08D0914B984205D033
:10153000904B984202D0904B984204D14FF68F7353
:101540001A404B881A438D4B984207D08C4B9842D7
:1015500004D04FF6FF431A40CB881A4302808B8891
:1015600083850B880385814B98420BD0854B98422D
:1015700008D08B4B984205D08A4B984202D08A4BB8
:10158000984201D10B7A038601238382704770B59C
:10159000002400220023058C4FF6FE76354005849A
:1015A000028C8388048B4FF68F752C40B51E2C401F
:1015B0000D882C43751E2A400D892A434D882A43E5
:1015C0006A4DA8420BD06F4DA84208D0744DA84276
:1015D00005D0744DA84202D0734DA84213D14FF6E6
:1015E000F7752A404D892A434FF6FB752A408D88AE
:1015F0002A434FF6FF652B404FF6FF552B408D8950
:101600002B43CD892B4383800483CD888586028438
:1016100070BD70B5002400220023058C4FF6EF76D4
:1016200035400584028C8388048B48F6FF752C4076
:101630004FF6FF452C400D884FF6FF7606EA05254C
:101640002C434FF6DF752A400D8906EA05152A431B
:101650004D8806EA05152A43444DA84202D0494D5B
:10166000A8421DD14FF67F752A404D894FF6FF766F
:1016700006EA05152A434FF6BF752A408D8806EA0B
:1016800005152A434FF6FF352B404FF2FF752B40CF
:101690008D8906EA85052B43CD8906EA85052B430E
:1016A00083800483CD880587028470BD70B50024D3
:1016B00000220023058C4FF6FF6635400584028C1E
:1016C0008388848B4FF68F752C404FF6FC752C4029
:1016D0000D882C434FF6FF552A400D894FF6FF76B3
:1016E00006EA05252A434D8806EA05252A431F4DAB
:1016F000A84202D0234DA8421DD14FF2FF752A40C7
:101700004D894FF6FF7606EA05252A434FF6FF3549
:101710002A408D8806EA05252A434EF6FF752B40A0
:101720004DF6FF752B408D8906EA05152B43CD89B3
:1017300006EA05152B4383808483CD888587028440
:1017400070BD70B5002200230024058C4EF6FF7694
:1017500035400584038C8488828B48F6FF752A40C7
:101760004FF6FF452A400D8820E00000002C014084
:101770000004004000080040000C00400010004041
:101780000014004000340140004C01400050014072
:101790000054014000180040001C004000200040A0
:1017A0000040014000440140004801404FF6FF76F0
:1017B00006EA05252A434DF6FF752B400D8906EAFA
:1017C00005352B434D8806EA05352B43FA4DA842D3
:1017D00002D0FA4DA84208D14BF6FF752C408D89F6
:1017E0004FF6FF7606EA85152C4384808283CD88E8
:1017F000A0F84050038470BD828B4FF2FF331A4033
:101800008283828B4FF6FF7303EA01231A4382839C
:101810007047F0B50C461546002200210026078CC3
:101820004EF6FF7C07EA0C070784828B018C4FF68B
:10183000FF7707EA043640F6FF473A404FF6FF7756
:1018400007EA05273A434FF6FF7707EA03373A439B
:10185000D94FB8420ED0D94FB8420BD0B0F1804F1B
:1018600008D0D74FB84205D0D64FB84202D0D64F95
:10187000B84206D14DF6FF77394046F480573943D8
:1018800005E047F6FF57394044F4805739438283D7
:101890000184F0BD828B4FF6F3731A408283828BF2
:1018A0000A4382837047F0B50C461546002200219A
:1018B0000026078C4FF6FF6C07EA0C070784828B23
:1018C000018C4FF6FF7707EA04264FF60C773A4073
:1018D0004FF6FF7707EA03172F433A43B64FB84254
:1018E0000ED0B64FB8420BD0B0F1804F08D0B44FF5
:1018F000B84205D0B34FB84202D0B34FB84206D178
:101900004FF6FF57394046F48077394305E04FF2F0
:10191000FF57394044F48077394382830184F0BD16
:10192000028B4FF2FF331A400283028B4FF6FF7394
:1019300003EA01231A4302837047F0B50C461546AB
:10194000002200210026078C4FF6EF7C07EA0C07E7
:101950000784028B018C4FF6FF7707EA041640F6E6
:10196000FF473A404FF6FF7707EA03373A434FF60F
:10197000FF7707EA05273A438F4FB8420ED08F4FC3
:10198000B8420BD0B0F1804F08D08D4FB84205D08F
:101990008C4FB84202D08C4FB84206D14FF6DF7759
:1019A000394046F01007394305E04FF65F7739407C
:1019B00044F01007394302830184F0BD028B4FF6D7
:1019C000F3731A400283028B0A4302837047F0B517
:1019D0000C46154600220021068C4FF6FE773E404D
:1019E0000684028B018C4FF60C7632407E1C06EA90
:1019F00003162E433243704EB0420ED06F4EB042AB
:101A00000BD0B0F1804F08D06D4EB04205D06D4E76
:101A1000B04202D06C4EB04206D14FF6FD76314056
:101A200044F00106314305E04FF6F576314044F0CD
:101A30000106314302830184F0BD70B505460C46B2
:101A40005D4885420ED05D4885420BD0B5F1804F90
:101A500008D05B48854205D05A48854202D05A4892
:101A6000854200D100E000BF208850B92389A288B8
:101A700061882846FFF7ABFFE1882846FFF79EFF05
:101A800025E0208804280AD12389A2886188284675
:101A9000FFF753FFE1882846FFF742FF17E0208851
:101AA00008280AD12389A28861882846FFF7FBFE0F
:101AB000E1882846FFF7EEFE09E02389A2886188C5
:101AC0002846FFF7A6FEE1882846FFF795FE70BD81
:101AD0002DE9F04105460C4600260127608808B92B
:101AE000022600E00026A088012801D1022700E09C
:101AF00001272088A0B92389A28861882846FFF79A
:101B000066FFE1882846FFF759FF23893A463146A8
:101B10002846FFF712FFE1882846FFF701FF13E090
:101B20002389A28861882846FFF707FFE1882846B5
:101B3000FFF7F6FE23893A4631462846FFF747FF6E
:101B4000E1882846FFF73AFFBDE8F0810A884B8814
:101B50001A438B881A43CB881A430B891A434B8943
:101B60001A438B891A43A0F8442070474FF6FF713F
:101B7000818000210180C180418001727047002175
:101B8000018041808180C180018141818181C18149
:101B90007047002101804180012181800021C180A6
:101BA000018170470021018041808180C1800181D5
:101BB0004181818170470000002C014000340140C8
:101BC0000004004000080040000C004021B10288E1
:101BD00042F00102028004E002884FF6FE731A40D0
:101BE0000280704731B1B0F8442042F40042A0F8BE
:101BF000442005E0B0F84420C2F30E02A0F84420CF
:101C000070471AB183890B43838102E083898B4338
:101C1000838170478182704741EA0203A0F848300F
:101C200070471AB183890B43838102E083898B4318
:101C30008381704701894FF6F87211400181704726
:101C40000A46002101894FF68F7319401143018123
:101C5000704730B504460D4629462046FFF7F0FF91
:101C6000208940F00700208130BD2DE9F041044675
:101C70000D4616461F46602D06D13B4601223146D1
:101C80002046FFF75AFE05E03B460122314620463A
:101C9000FFF79DFE29462046FFF7D2FF208940F03E
:101CA00007002081BDE8F08130B50C460021018994
:101CB000C9B24FF6FF7505EA0325154325432943AD
:101CC000018130BD2DE9F04105460E461746984684
:101CD000002443463A4631462846FFF7E5FF2C8963
:101CE0004FF6F870044044F007044FF68F7004403C
:101CF00044F070042C81BDE8F081F0B504460D4637
:101D000016461F463B46324629462046FFF7CCFF83
:101D1000208940F480402081F0BD01858282704797
:101D20000A46002101884FF68F7319401143018044
:101D30007047F0B50C4615461E46002100220023D0
:101D40000189028B038C4FF6F877394021434FF617
:101D5000FC473A4040F201173A434FF6DD773B40EB
:101D60004FF6FF7707EA06172F433B4301810283B3
:101D70000384F0BD0A460021018B4FF68F73194092
:101D80001143018370470A460021018B48F6FF7317
:101D900019404FF6FF7303EA02231943018370478A
:101DA0000A460021818B4FF68F73194011438183BE
:101DB00070470A460021818B48F6FF7319404FF6A1
:101DC000FF7303EA022319438183704721B102881C
:101DD00042F08002028004E002884FF67F731A40CE
:101DE0000280704721B1828842F00402828004E0C0
:101DF00082884FF6FB731A408280704721B1828837
:101E000042F00802828004E082884FF6F7731A409D
:101E10008280704721B1828842F00102828004E012
:101E200082884FF6FE731A40828070470A4600216E
:101E3000018B4FF6F77319401143018370470A462F
:101E40000021018B4FF2FF7319404FF6FF7303EA35
:101E500002231943018370470A460021818B4FF604
:101E6000F77319401143818370470A460021818B23
:101E70004FF2FF7319404FF6FF7303EA0223194331
:101E8000818370470A460021018B4FF6FB7319408E
:101E90001143018370470A460021018B4FF6FF333F
:101EA00019404FF6FF7303EA022319430183704779
:101EB0000A460021818B4FF6FB7319401143818341
:101EC00070470A460021818B4FF6FF3319404FF6C9
:101ED000FF7303EA02231943818370470A460021F6
:101EE000018B4FF67F7319401143018370470A46F7
:101EF0000021018BC1F30E014FF6FF7303EA0223A9
:101F00001943018370470A460021818B4FF67F7386
:101F100019401143818370470A460021818BC1F328
:101F20000E014FF6FF7303EA0223194381837047C2
:101F30000A460021018C4FF6FD73194011430184BC
:101F400070470A460021018C4FF6F7731940114380
:101F5000018470470A460021018C4FF6DF73194057
:101F60004FF6FF7303EA02131943018470470A46D0
:101F70000021018C4FF67F7319404FF6FF7303EA7F
:101F800002131943018470470A460021018C4FF661
:101F9000FF5319404FF6FF7303EA022319430184EC
:101FA00070470A460021018C4FF2FF7319404FF62B
:101FB000FF7303EA02231943018470470A46002194
:101FC000018C4DF6FF7319404FF6FF7303EA02339D
:101FD00019430184704730B5002301248C40A3B21B
:101FE000048C9C430484048C02FA01F5ADB22C43AA
:101FF000048430BD30B5002304248C40A3B2048C8B
:102000009C430484048C02FA01F5ADB22C43048491
:1020100030BD70B503460020002418461830012555
:102020008D40ACB21D8CA5431D8409B1082909D18E
:1020300000EB6100056825F0700505600568154333
:1020400005600EE00D1FC5F34E052844056825F414
:10205000E045056005684FF6FF7606EA022635433F
:10206000056070BD21B1028842F00202028004E0E6
:1020700002884FF6FD731A400280704721B1028832
:1020800042F00402028004E002884FF6FB731A401B
:102090000280704721B1828842F08002828004E091
:1020A00082884FF67F731A408280704702884FF60D
:1020B000F7731A40028002880A43028070478288C0
:1020C0004FF68F731A40828082880A43828070475D
:1020D00002894FF6F8731A40028102890A4302818D
:1020E000704702894FF67F731A40028102890A43C2
:1020F000028170478184704781857047818670476F
:102100000187704781877047A0F8401070470288A8
:102110004FF6FF431A40028002880A43028070474C
:102120000146888E70470146088F70470146888FA8
:1021300070470146B1F8400070470146888C7047EF
:102140000146088D704702460020138A0B400BB1F0
:10215000012000E000207047CA430282704730B57A
:102160000246002000230024158A05EA0103958910
:1021700005EA010413B10CB1012000E0002030BDDC
:10218000CA4302827047000010B50446FB488442EF
:1021900009D101218803FFF79FF800214FF4804007
:1021A000FFF79AF832E0F648844209D10121480449
:1021B000FFF79FF800214FF40030FFF79AF825E071
:1021C000F048844209D101218804FFF792F80021E8
:1021D0004FF48020FFF78DF818E0EB48844209D1D6
:1021E0000121C804FFF785F800214FF40020FFF714
:1021F00080F80BE0E548844208D101210805FFF78B
:1022000078F800214FF48010FFF773F810BD2DE926
:10221000F04786B005460E460024A24600BFA14600
:102220000027B08900B100BF2F462C8A4CF6FF7002
:102230000440F08804432C82AC894EF6F31004402D
:10224000B08831890843718908430443AC81AC8A62
:102250004FF6FF400440B0890443AC8201A8FEF76A
:10226000B4FFC648874202D1DDF810A001E0DDF8D6
:102270000CA0A88900F4004040B10AEBCA0000EBB2
:102280000A1031684900B0FBF1F807E00AEBCA0018
:1022900000EB0A1031688900B0FBF1F86420B8FB4C
:1022A000F0F004012009642101FB1089A88900F4E1
:1022B000004040B1322000EBC900B0FBF1F000F06B
:1022C0000700044308E0322000EB09106421B0FB52
:1022D000F1F000F00F0004432C8106B0BDE8F08758
:1022E0004FF41651016000218180C18001810C21D1
:1022F000418100218181704710B502460020108A7B
:102300004FF2FF0318400B884C8823438C882343EB
:10231000CC8823431843108210BD002101804180E6
:102320008180C180704721B1828942F4005282814C
:1023300004E082894DF6FF731A4082817047F0B540
:102340000346002400260025002040F66A17B94203
:1023500000D100BF1846C1F3421401F01F06012747
:1023600007FA06F5012C01D10C3004E0022C01D152
:10237000103000E014301AB107682F43076002E004
:102380000768AF430760F0BD1AB1838A0B438382AD
:1023900002E0838A8B4383827047028A4FF6F07390
:1023A0001A400282028A0A430282704782894FF2EF
:1023B000FF731A40828182890A438281704721B16A
:1023C000828942F00202828104E082894FF6FD7325
:1023D0001A4082817047028A4FF6DF731A400282E8
:1023E000028A0A430282704721B1028A42F4804283
:1023F000028204E0028A4BF6FF731A4002827047A1
:10240000C1F308028280704701468888C0F3080043
:102410007047818941F0010181817047028BD2B2FE
:102420000283028B42EA012202837047028B02F48C
:102430007F420283028B0A430283704721B1828A62
:1024400042F02002828204E0828A4FF6DF731A4053
:102450008282704721B1828A42F01002828204E0B7
:10246000828A4FF6EF731A408282704721B1828AC6
:1024700042F00802828204E0828A4FF6F7731A4023
:102480008282704721B1828942F40042828103E056
:102490008289C2F30E028281704721B1828A42F49E
:1024A0000062828204E0828A4FF2FF731A408282C5
:1024B0007047828A4FF6FB731A408282828A0A43EF
:1024C0008282704721B1828A42F00202828204E055
:1024D000828A4FF6FD731A408282704702460020BE
:1024E000B1F5007F00D100BF13880B400BB1012074
:1024F00000E00020704701F40072B2F5007F00D1C7
:1025000000BFCA430280704770B502460024002312
:102510000025002040F66A16B14200D100BFC1F389
:10252000421501F01F03012606FA03F3012D02D123
:102530009689334006E0022D02D1168A334001E02D
:10254000968A33400C12012606FA04F416883440A9
:1025500013B10CB1012000E0002070BD10B50022C5
:10256000002340F66A14A14200D100BF0A120124E0
:102570009440A3B2DC43048010BD00000038014049
:102580000044004000480040004C00400050004023
:1025900010B56FF00400FDF7CCFF2E4800682E49FF
:1025A000B0FBF1F02D4908700846007800EB4001BF
:1025B000C1EBC0104FF6FF7101EAC0002849088046
:1025C00010BD0146254A12784A434FF0E0235A6174
:1025D00000229A611A46126942F001021A6100BF94
:1025E0004FF0E022106900F001021AB100F48032CD
:1025F000002AF5D04FF0E022126922F001024FF0DC
:10260000E0231A6100229A6170470146144A128839
:102610004A434FF0E0235A6100229A611A46126938
:1026200042F001021A6100BF4FF0E022106900F091
:1026300001021AB100F48032002AF5D04FF0E022F6
:10264000126922F001024FF0E0231A6100229A6120
:10265000704700000000002000127A007000002087
:1026600072000020A34A0A400243A34B1A6070473D
:102670000146072323EA010212029F4B1B1D186823
:102680004FF6FF0318409D4B184310439A4B1B1DF8
:10269000186070472DE9F0410746884614461D46EC
:1026A0002846FFF7E5FFC5F1040007FA00F60F2002
:1026B000284100EA0800064306F00F06E21704EB83
:1026C000D2625211920002F1E022D2F8002121469A
:1026D000E31704EBD3635B11A4EB431C012303FA60
:1026E0000CF31A432046E31704EBD3635B119B0002
:1026F00003F1E023C3F800218148005D40EA0610A1
:102700007F490855BDE8F08170B504460B46CE17E9
:1027100001EB9676C6F38700CE1701EB9676B610DE
:10272000A1EB8606B606350E764B9B6943F0010396
:10273000744EB3614FEAB63353F820300F26AE40E3
:10274000B343714E46F82030334653F8203004FA34
:1027500005F61E436C4B43F820606C4B1B6801264A
:102760008E403343694E336002F0010343B1674B3F
:102770000C331B6801268E403343644E0C363360A5
:1027800002F0020343B1614B08331E6801238B4002
:102790001E435E4B08331E6070BD00B500205949D2
:1027A0000861C8601420486100208861C86108463B
:1027B000006840F00100086008464068544908403D
:1027C0005049486008460068524908404D49086031
:1027D0000846006820F4802008600846406820F41D
:1027E000FE0048600020886000214FF00060FFF785
:1027F00039FF00BD10B540480830006840F00400C3
:102800003D49083108603F48C06940F080503D496B
:10281000C8614148406840F480703F4948600846BC
:10282000006840F0040008600846006840F00200BC
:102830000860FDF7A9FC10BD3048001D2E49091D98
:1028400008607047014649062E4A926942F001022B
:102850002C4B9A612C4A083A526822F0E0622A4BCB
:10286000083B5A601A4652680A435A60704730B5AE
:1028700004460025FFF791FF2248006840F48030AD
:102880002049086000BF1F480068400C0028FAD0AB
:102890004FF480601B494860A01EC4B208464068DF
:1028A00040EA844048600846406840F48030486010
:1028B0001A48006840F03200184908601148006862
:1028C00040F080700F49086000BF0E480068400E5D
:1028D0000028FAD00B48406840F0020009494860DF
:1028E00005E008484068C0F3870505F00305022DA0
:1028F000F7D130BD80FFFF1F08ED00E00000FA05B2
:1029000000E400E000100240080001400004014023
:102910000000FFF8FFFFF6FE0070004000200240BC
:10292000014600BF704700BF244A128802F04002EF
:10293000002AF9D0C2B2214B1B1D1A80704710B576
:1029400086B00446012144F20400FEF7ABFC4FF4CC
:102950000070ADF8140003208DF8160018208DF8D3
:10296000170005A91648FEF77BF94FF48060ADF813
:10297000140004208DF8170005A91148FEF770F91E
:1029800001940020ADF80800ADF80A00ADF80C0085
:10299000ADF810000C20ADF80E0001A90748FFF7B4
:1029A00036FC002240F225510448FFF7C8FC012103
:1029B0000248FFF7B8FC06B010BD00000038014027
:1029C0000008014008B501210420FEF76BFC10202F
:1029D000ADF800008DF8030003208DF80200694671
:1029E0000C48FEF73DF908BD18B900210A4A1160EC
:1029F0000FE00A490968491C084A1160814208D160
:102A000005490968C943064AC2F890110021034AE2
:102A100011607047000801409001214274000020BD
:102A20000000214208B501210420FEF73BFC2020D4
:102A3000ADF8000048208DF8030069466A48FEF7AB
:102A40000FF908BD01466948006828B96848008840
:102A5000401C674A108002E00020654A10806348ED
:102A6000006828B96348007810B90120614A1070E5
:102A700061480078B0B95F480078012807D15F4805
:102A80000078401C5D4A107001205B4A10705B4862
:102A90000078022806D10020584A1070584A108049
:102AA0000220704751480068012804D10020514A93
:102AB0001070514A10705148007801281CD15048BC
:102AC0000088401C4E4A10801046008888420ADD6B
:102AD00047480088884206DA0020484A1070484A71
:102AE00010800120DDE742480088884204DD002094
:102AF000424A1070424A10800020D2E741480078D4
:102B0000002831D03948006870B13F48006858B19A
:102B10003648001D006838B13B48001F006818B1F6
:102B2000394808380068F8B90020364A10702F4834
:102B3000006808B9012115E03348006808B902218E
:102B400010E031480838006808B903210AE0274836
:102B5000001D006808B9042104E02B48001F00682C
:102B600000B90521C8B2704720480068012814D177
:102B700025480068012810D11C48001D0068012864
:102B80000BD12148001F0068012806D11E480838D3
:102B90000068012801D11B4A10700020E3E71B48A0
:102BA000008840B91148006828B919480088401CBD
:102BB0001749088002E00020154908801448008861
:102BC000C82807DD0120114908800020104908802D
:102BD000012070470D480088012802D100200B49D0
:102BE00008800020F5E700000008014014012142A0
:102BF0007E00002078000020790000207A0000206C
:102C00007C000020800000203C0122428400002043
:102C10008200002010B50A461AB10123FE4C236041
:102C200002E00023FC4C2360002114E00023FB4C55
:102C3000236000F080031BB10123241F236003E005
:102C40000023F64C241F23600123F44C2360430629
:102C5000180E4B1CD9B20829E8DB0123EE4C236087
:102C600010BD30B500241CE004F1B001C8B2002151
:102C7000FFF7D0FF00210846FFF7CCFF002110200E
:102C8000FFF7C8FF002508E0E54901EBC501085D35
:102C90000121FFF7BFFF681CC5B2802DF4DB601C6B
:102CA000C4B2082CE0DB30BD00B500218D20FFF759
:102CB000B1FF00211420FFF7ADFF0021AF20FFF787
:102CC000A9FF00BD00B500218D20FFF7A3FF002163
:102CD0001020FFF79FFF0021AE20FFF79BFF00BDF4
:102CE00030B500240CE0002506E00020CC4901EBC3
:102CF000C5010855681CC5B2802DF6DB601CC4B246
:102D0000082CF0DBFFF7ADFF30BDF0B51446002610
:102D10007F2801DC3F2900DDF0BD0B46CF1701EB1A
:102D20005777FF10C7F10707FAB2CF1701EB5777B4
:102D3000FF10A1EBC707FDB2C5F107070123BB4098
:102D4000DEB24CB1B64B03EBC0039B5C3343B44FD4
:102D500007EBC007BB5408E0B14B03EBC0039B5C1F
:102D6000B343AF4F07EBC007BB5400BFD4E72DE917
:102D7000F04F80460C4615461E46A346A5F120009E
:102D8000C5B200273EE00C2E07D105EB4500A54952
:102D900001EB800010F8079004E0A34800EB051059
:102DA00010F807904FF0000A26E009F0800028B1E3
:102DB00021464046099AFFF7A8FF09E0099808B99B
:102DC000012000E00020024621464046FFF79DFF1B
:102DD0004FEA49604FEA1069601CC4B2A4EB0B00D3
:102DE000B04205D15C4608F1010000F0FF0806E0A2
:102DF0000AF1010000F0FF0ABAF1080FD5DB00BFAD
:102E0000781CC7B2B742BEDBBDE8F08F10B50246F2
:102E1000012000E050430B00A1F10104E1B2F9D11F
:102E200010BD2DE9FF4F81B0074691461E460E9D0D
:102E30004FF0000A002439E0301B401EC1B20A20C6
:102E4000FFF7E4FFB9FBF0F00A21B0FBF1F201FB60
:102E50001208BAF1000F16D1701EA04213DDB8F1AE
:102E6000000F0ED10120AB4605EBDB71491001FBD1
:102E700004710090C8B22B4620220299FFF777FF19
:102E800012E04FF0010A0120AB4605EBDB7149105F
:102E900001FB04710090C8B208F13001CAB22B46A0
:102EA0000299FFF764FF00BF601CC4B2B442C3DBE9
:102EB00005B0BDE8F08F78B505460E46144618E01B
:102EC0007A2D03DD002506F11000C6B23A2E04DD8E
:102ED000002005460646FFF703FF012000902278F8
:102EE0000C2331462846FFF742FF05F10800C5B222
:102EF000641C20780028E3D178BD08B501210820A2
:102F0000FEF7D0F93820ADF8000010208DF803004E
:102F100002208DF8020069464448FDF7A1FE012118
:102F20000420FEF7BFF94FF40040ADF80000022086
:102F30008DF8020010208DF8030069463C48FDF72B
:102F40008FFE0120FDF7E5FF0020FEF718F90020B5
:102F5000FDF741FD0020FDF7DCFF00202F49083977
:102F600008606420FFF751FB01203249C1F88C0151
:102F70000021AE20FFF74EFE0021D520FFF74AFECC
:102F800000215020FFF746FE0021A820FFF742FE57
:102F900000213F20FFF73EFE0021D320FFF73AFE3D
:102FA00000210846FFF736FE00214020FFF732FEE1
:102FB00000218D20FFF72EFE00211420FFF72AFEAE
:102FC00000212020FFF726FE00210220FFF722FE2D
:102FD0000021A120FFF71EFE0021C020FFF71AFEEE
:102FE0000021DA20FFF716FE00211220FFF712FE63
:102FF00000218120FFF70EFE0021EF20FFF70AFEDF
:103000000021D920FFF706FE0021F120FFF702FE84
:103010000021DB2010E00000BC012142948121420C
:10302000CC000020EA5E00085E630008000C01404E
:103030000008014000802142FFF7ECFD0021302014
:10304000FFF7E8FD0021A420FFF7E4FD0021A62002
:10305000FFF7E0FD0021AF20FFF7DCFDFFF740FEAA
:1030600008BD000000B587B001214FF40170FEF7E4
:1030700019F94FF40040FEF779F80620ADF8040086
:1030800000208DF8070001A92348FDF7E9FD23483A
:10309000FDF76EFA002002908DF80C008DF80D00FF
:1030A0004FF4602004900020059001208DF8180056
:1030B00002A91A48FDF783FA01211848FDF7ABFA77
:1030C0001648FDF7CAFA00BF1448FDF7CBFA0028EE
:1030D000FAD11248FDF7D0FA00BF1048FDF7D1FA37
:1030E0000028FAD107B000BD10B50446072301221D
:1030F00021460A48FDF7FBFA01210848FDF7CBFA03
:1031000000BF02210548FDF737FC0028F9D003482D
:10311000FDF754FB10BD00000008014000240140F1
:103120007FB505460C460121C802FEF7BBF8ADF895
:103130000850ADF804400020ADF80A00ADF80600D4
:1031400001A90D48FEF7E6F9012211460A48FEF7EB
:1031500058FD19208DF8000000208DF80100012095
:103160008DF802008DF803006846FDF798F90121FB
:103170000148FEF72BFD7FBD002C014030B589B022
:1031800005460C4601210420FEF799F8012108208C
:10319000FEF788F84FF4E070ADF8200018208DF8A5
:1031A000230002208DF8220008A91E48FDF758FDD3
:1031B000ADF81850ADF814400020ADF81A00ADF885
:1031C000160005A91848FEF7A5F96020ADF804001F
:1031D0000120ADF806000020ADF80A00ADF80C00A3
:1031E00001A91148FEF7D3F901A90F48FEF711FA1A
:1031F00001A90D48FEF75AFA08210B48FEF716FE02
:1032000008210948FEF71BFE08210748FEF724FEA7
:1032100001210548FEF7DAFD01210348FEF7D6FC3F
:1032200009B030BD000C01400008004010B586B068
:10323000044601210820FEF735F801218804FEF735
:103240003EF84FF48060ADF8140003208DF81600AE
:1032500018208DF8170005A91F48FDF701FD4FF450
:103260000060ADF8140004208DF8170005A91A4875
:10327000FDF7F6FC27208DF8000000208DF80100F6
:1032800001208DF802008DF803006846FDF707F96C
:1032900001940020ADF80800ADF80A00ADF80C006C
:1032A000ADF810000C20ADF80E0001A90B48FEF798
:1032B000AEFF012240F225510848FFF740F80121F6
:1032C0000648FFF730F806B010BD10B540F22551A2
:1032D0000248FFF719F910BD000C014000480040FA
:1032E000FB48806940F00400F9498861084680691C
:1032F00040F008008861F7480068F7490840F54940
:10330000086008460068F5490843F2490860F44837
:10331000006820F0F000F24908600846006840F0BC
:1033200030000860704738B5044601200090002046
:10333000EC494870012000902DE0BDF800002040CD
:1033400018B10120E849086002E00020E649086061
:103350000120E64908600520FFF733F90020E44921
:10336000C1F8A4010520FFF72CF90120E049C1F8BC
:10337000A401E048D0F8200130B1DA484078BDF827
:1033800000100843D7494870BDF800004FF6FF71A0
:1033900001EA40000090BDF80000FF28CDDD1020BC
:1033A000FFF70FF938BD10B50020CF49091D08609F
:1033B000D1490878FFF7B7FFCF494878FFF7B3FF47
:1033C0000120CC49C1F8B001C6484078732801D12A
:1033D000002010BD0120FCE71CB500200190012059
:1033E00000900020C049091D0860C3490878FFF714
:1033F0009AFFC1494878FFF796FF0220019035E017
:103400000120009026E00120B84908600520FFF760
:10341000D8F80020B649C1F8A4010520FFF7D1F87B
:103420000120B349C1F8A401B248D0F8200150B13D
:10343000AC489DF80410405CBDF800100843A94951
:103440009DF804208854BDF800004FF6FF7101EA92
:1034500040000090BDF80000FF28D4DD1020FFF7E9
:10346000B0F89DF80400401CC0B201909DF8040023
:103470000928C5DB01209C49091D08601CBD0020EE
:1034800004E00021974A1154411CC8B20928F8DB16
:10349000704710B5FFF7F3FFFFF79EFF9148C07824
:1034A0009049097940EA01209449088000240FE0FE
:1034B000934810F81400401E012101FA00F08F49D2
:1034C0000988084010B9601CC0B210BD601CC4B2AD
:1034D000102CEDDB0020F8E701468248405C704785
:1034E00070B505460C4600207F49091D0860102074
:1034F000FFF767F80120FFF716FF4220FFF713FFE1
:103500000020FFF710FF2846FFF70DFF2046FFF7CA
:103510000AFF0020FFF707FF0020FFF704FF00204D
:10352000FFF701FF0020FFF7FEFE01207149C1F8FF
:10353000B0011020FFF745F870BD10B500206A49B2
:10354000091D08601020FFF73CF80120FFF7EBFE93
:103550004220FFF7E8FE0020FFF7E5FE0020FFF71E
:10356000E2FE0020FFF7DFFE01206249C1F8B00152
:103570001020FFF726F810BD10B500205A49091D8C
:1035800008601020FFF71DF80120FFF7CCFE432054
:10359000FFF7C9FE0020FFF7C6FE0120FFF7C3FEBC
:1035A0000020FFF7C0FE0020FFF7BDFE0020FFF760
:1035B000BAFE0020FFF7B7FE0020FFF7B4FE01209F
:1035C0004C49C1F8B0011020FEF7FBFF10BD10B54B
:1035D00000204549091D08600120FFF7A4FE442092
:1035E000FFF7A1FE0020FFF79EFE0120FFF79BFEE4
:1035F0000320FFF798FE0020FFF795FE0020FFF75D
:1036000092FE0020FFF78FFE0020FFF78CFE0120C6
:103610003849C1F8B0011020FEF7D3FF10BD10B536
:1036200000203149091D08601020FEF7CAFF012063
:10363000FFF779FE4D20FFF776FE0020FFF773FEBF
:103640000020FFF770FE0120FFF76DFE01202949E1
:10365000C1F8B0011020FEF7B4FF10BD10B5002076
:103660002149091D08601020FEF7ABFF0120FFF77C
:103670005AFE4320FFF757FE0020FFF754FE0020BC
:10368000FFF751FE5A20FFF74EFE5A20FFF74BFE80
:103690005A20FFF748FE5A20FFF745FE5A20FFF751
:1036A00042FE01201349C1F8B0011020FEF789FF46
:1036B00010BD10B5FFF741FFFFF73FFFFFF73DFFDC
:1036C000FFF75AFFFFF783FFFFF7C8FF10BD0000A9
:1036D0000010024004080140F00FF0FF0830030022
:1036E000040C0140CC040020AC012142A481214201
:1036F0000080214200002142880000208600002036
:103700008A00002008B501210820FDF7CBFD4FF409
:103710007040ADF8000010208DF8030003208DF8F4
:10372000020069462048FDF79BFA08BD1FB501213C
:103730000846FDF7B7FD01210420FDF7B3FD082081
:10374000ADF80C0048208DF80F0003A91748FDF7CD
:1037500087FA03210020FDF799FB08200190002043
:103760008DF808000C208DF8090001208DF80A0062
:1037700001A8FDF795F909208DF8000001208DF8CA
:1037800001008DF802008DF803006846FCF787FE03
:103790001FBD0748006828B90820064908600020B6
:1037A0000549087070470000000C01400008014006
:1037B0000C012142140401401400002010B53220F5
:1037C000FFF740F90446012C07D1FE48007808B9FC
:1037D000012000E00020FB49087010BD00F539729F
:1037E000F94B1A8001F539721B1D1A8070472DE9BB
:1037F000F05F0546F5480168284602F089FA04465C
:10380000F3480168204602F083FA82465146F148A7
:10381000006802F07FF98346EF4902F031F88046F4
:103820002146EE48006802F075F98346EC4902F043
:1038300027F88146414601F0B5FF074602F0E2F85D
:103840000646E34804603046BDE8F09F2DE9F05F8E
:103850000546E4480168284602F05AFA0446E24860
:103860000168204602F054FA82465146D948006861
:1038700002F050F98346D84902F002F8804621460A
:10388000D648006802F046F98346D54901F0F8FFB2
:103890008146414601F086FF074602F0B3F806462E
:1038A000D14804603046BDE8F09F70B56424CF482D
:1038B000006848B9CE48006830B9CE48006818B9E9
:1038C000CC480068002841D0CA480068A0F18006B2
:1038D000C9480068A0F18005C848006805280BD0D9
:1038E000C6480068062807D0C4480068072803D0E7
:1038F000C2480068082829D1A64207DD4FF07E5152
:10390000B648006801F04EFFB44908606042864244
:1039100007DA4FF07E51B148006802F0F9F9AF497B
:103920000860A54207DD4FF07E51AA48006802F00A
:10393000EFF9A84908606042854207DA4FF07E51EE
:10394000A448006801F02EFFA249086070BD2DE96F
:10395000FC5F4FF07E51AA48006801F023FFA849A0
:103960000860A848006801285BD1A749A4480068FE
:1039700002F09CF808D24FF07E519448006801F0A4
:1039800011FF92490860FFE1A0499D48006802F0DC
:103990008DF816D24FF080418C48006802F0B8F9DB
:1039A0008A4908608F48006801F0D0FE0646002270
:1039B000974B01F0E1FD044601F0F8F989490860F0
:1039C000E2E194498E48006802F070F807D292490B
:1039D0008448006801F0E6FE82490860D4E18F491E
:1039E0008748006802F062F8CDD24FF07E517748E8
:1039F000006801F0D7FE754908607A48006801F058
:103A0000A5FE06460022824B01F0B6FD044601F0F9
:103A1000CDF97449086000207A4908607849086047
:103A2000B2E17848006802286AD177497448006892
:103A300002F03CF808D24FF07E516448006801F073
:103A4000B1FE624908609FE16D48006801F07EFEAA
:103A50000446734A734B01F049FC3DD26A496848F9
:103A6000006802F055F97049009001F009FF0190DB
:103A700001F06CFE064601F0EBF8804600226B4B2D
:103A800001F070FC04460022694B01F0C1F9824646
:103A900001F08CF94D4908605B495948006802F013
:103AA00037F98346604901F0EBFE824601F04EFE95
:103AB000064601F023F9804600225C4B01F052FCDF
:103AC000044600225B4B01F0A3F9CDE9000101F0AF
:103AD0006DF94449086057E157494948006801F0C9
:103AE000E5FF9DD24FF07E513848006802F010F992
:103AF000364908600020434908604149086043E1B5
:103B00004048006803285BD13F493D48006801F008
:103B1000CDFF10D24FF07E512C48006801F042FEDC
:103B20002A4908604FF07E512E48006802F0F0F8F4
:103B30002C49086028E137493148006801F0B6FF98
:103B400010D24FF07E512148006802F0E1F81F4981
:103B500008604FF07E512348006801F023FE2149A0
:103B6000086011E12D492648006801F09FFF10D23E
:103B70004FF07E511548006801F014FE13490860AB
:103B80004FF07E511748006802F0C2F815490860EE
:103B9000FAE02A491A48006801F088FF50D24FF035
:103BA0007E510A48006801F0FDFD084908604FF0A9
:103BB0007E510C48006801F0F5FD0A490860E3E019
:103BC00071E000001400002034080040380000209C
:103BD000BC00002028000020000020412000002020
:103BE0000000C84234000020B80000204800002037
:103BF0004C000020500000205400002058000020FD
:103C0000C0000020B4000020000020420000A042BC
:103C10000000F83F0000F042000040400000204358
:103C200016855D143DB564400000A041000044408D
:103C30000000594000A0604000005243000048438B
:103C4000FD49FE48006801F031FF10D24FF07E516F
:103C5000FB48006802F05CF8F94908604FF07E51BB
:103C6000F848006802F054F8F64908608CE0F6491C
:103C7000F248006801F01AFF14D24FF07E51F0486C
:103C8000006801F08FFDEE4908604FF07E51ED486D
:103C9000006801F087FDEB4908600020EB490860EF
:103CA000E649086070E0E948006804286CD1E849FA
:103CB000E248006801F0FAFE08D24FF07E51E04879
:103CC000006801F06FFDDE4908605DE0E149DB4816
:103CD000006801F0EBFE08D24FF07E51D948006831
:103CE00001F060FDD74908604EE0DB49D348006829
:103CF00001F0DCFE08D24FF07E51D148006802F09E
:103D000007F8CF4908603FE0D449CC48006801F08B
:103D1000CDFE08D24FF07E51CA48006801F0F8FF8E
:103D2000C849086030E0C849C448006801F0BEFED8
:103D300008D24FF07E51C248006801F033FDC049FF
:103D4000086021E0C649BD48006801F0AFFE08D216
:103D50004FF07E51BB48006801F024FDB94908606E
:103D600012E0C049B548006801F0A0FE0CD24FF047
:103D70007E51B348006801F0CBFFB14908600020D4
:103D8000B2490860AD490860BDE8FC9F2DE9F041EB
:103D9000B54EB648006848B9B548006830B9B5486E
:103DA000006818B9B348006800284CD0AF480068D4
:103DB0008038032190FBF1F000F18505284601F0E1
:103DC0005DFE0446AA490968A1F18005E91705EBE3
:103DD00091718910C1F1640001F050FE074621463F
:103DE0009848006801F062FE06D2314695480068A6
:103DF00001F0D8FC9349086021469248006801F020
:103E000055FF06D231468F48006801F081FF8D4989
:103E1000086039468A48006801F048FE06D23146FB
:103E20008748006801F0BEFC85490860394684482F
:103E3000006801F03BFF06D231468148006801F07E
:103E400067FF7F490860BDE8F08170B501218A48AD
:103E5000FEF785F9002879D001218748FEF790F90F
:103E600086480078401CC0B284490870042801DDEF
:103E70000020087081480078012823D10020804963
:103E8000086001207F49C1F8B0017D49091F086021
:103E900000207C49C1F8BC010120FFF725F914215D
:103EA00090FBF1F078490860012075490860002016
:103EB000734908390860091D086001207149C1F87B
:103EC000BC01F3E06D480078022817D16F48006804
:103ED0000D2808DB6D480068102804DC6B4800687A
:103EE0000C385A4908605948006810B9FFF74EFF6E
:103EF00001E0FFF72CFDFFF7D8FCD7E05F48007822
:103F0000032824D101205E49086000205D49C1F8E2
:103F1000B0015B49091F086001205A49C1F8BC0182
:103F20000220FFF7E1F80F2190FBF1F058490860FB
:103F30000020534908600120514908390860091DD3
:103F4000086000204F49C1F8BC01AFE0C0E04B4819
:103F5000007804286ED14E48006801F08FFD0546B8
:103F6000FFF774FC4442204601F088FD494908608F
:103F70004548006801F082FD0546FFF738FC4442E1
:103F8000204601F07BFD44490860444800684042F7
:103F900001F074FD04463F480168204601F086FEAA
:103FA00006D23E480068404201F068FD3949086089
:103FB0003A48006801F062FD044636480168204630
:103FC00001F074FD05D23548006801F057FD314914
:103FD000086032480068404201F050FD04462E4817
:103FE0000168204601F062FE06D22C48006840427B
:103FF00001F044FD284908602848006801F03EFDB2
:10400000044625480168204601F050FD05D22348AA
:10401000006801F033FD204908602148007848B964
:104020001D48006801F0EEFC04461A48006801F0E3
:10403000E9FC37E03AE0000000008C43C0000020BB
:1040400038000020340000200000A043B40000200D
:10405000000020420000A042000020430000704306
:104060000000B4430000C843000040404800002066
:104070004C00002050000020002C0140B000002027
:10408000B8812142008021421C00002058000020FD
:10409000180000203C00002040000020AC00002060
:1040A0001400002005462146FFF798FBFFF786FB2A
:1040B0000B48007801280BD10A480078401CC0B298
:1040C00008490870052803D10020087004490870C9
:1040D00070BD0146002901DA484200E008467047F9
:1040E000450000204400002038B5AC48007828B9CD
:1040F000ABA200210846FEF7DEFE04E0ABA20021E1
:104100000846FEF7D8FEACA200215020FEF7D3FEF1
:104110000C2003230090A948002102686420FEF7C8
:1041200080FEA7A20A210020FEF7C5FE0C20032373
:104130000090A4480A2102680F20FEF772FEA2A296
:104140000A213C20FEF7B7FE0C20032300909F4875
:104150000A2102684B20FEF764FE9DA21421002074
:10416000FEF7A9FE0C20032300909A481421026850
:104170000F20FEF756FE98A214213C20FEF79BFE6E
:104180000C20032300909548142102684B20FEF771
:1041900048FE93A21E210020FEF78DFE9148006884
:1041A00001F04CFC04460C20032322461E21009003
:1041B0000F20FEF736FE8CA21E213C20FEF77BFE70
:1041C0008A48006801F03AFC04460C20032322468A
:1041D0001E2100904B20FEF724FE85A228210020FE
:1041E000FEF769FE00218348006801F05FFC15D2EC
:1041F00081A228211E20FEF75EFE7E48006880F026
:104200000045284601F01AFC04460C2003232246F0
:10421000282100902D20FEF704FE11E077A228212E
:104220001E20FEF748FE7348006801F007FC0446B4
:104230000C2003232246282100902D20FEF7F1FDBB
:104240006F48006800280FDA6BA228215020FEF783
:1042500032FE0C2003230090694800684242282166
:104260005F20FEF7DEFD0DE064A228215020FEF75E
:1042700022FE0C20032300906148282102685F2061
:10428000FEF7CFFD5FA232210020FEF714FE0021D1
:104290005D48006801F00AFC15D257A232211E20A9
:1042A000FEF709FE5848006880F00045284601F0F6
:1042B000C5FB04460C2003232246322100902D200A
:1042C000FEF7AFFD11E04DA232211E20FEF7F3FDF7
:1042D0004D48006801F0B2FB04460C20032322463F
:1042E000322100902D20FEF79CFD484800680028F0
:1042F0000FDA41A232215020FEF7DDFD0C2003230E
:10430000009042480068424232215F20FEF789FD5A
:104310000DE03AA232215020FEF7CDFD0C20032300
:1043200000903A48322102685F20FEF77AFDFEF7DE
:1043300098FC38BD10B53248006801F09FFB044678
:10434000012100F07BF83148006801F097FB04463A
:10435000022100F073F8022000F0BFF82C49087029
:1043600000202C49087012E000BF2B48008800F0A4
:1043700040000028F9D0294826490978405C2649A0
:10438000091D088023480078401C224908702148F4
:1043900000781F4909788842E6DB10BD1400002030
:1043A000536572766F204F2D4E0000005365727674
:1043B0006F204F46460000004B4559005800002032
:1043C0004C5900004C0000204C58000048000020D0
:1043D00052590000540000205258000050000020A4
:1043E0004B500000200000204B440000280000201B
:1043F000542D0000340000202D0000002B00000090
:1044000018000020502D0000380000201C00002063
:10441000C5000020C400002000380140D504002061
:1044200030B503461C788C545D78541C0D559D782E
:10443000941C0D55DD78D41C0D5530BD13B50C46BC
:104440000A2C00DC04B91CBD0B2C43D2DFE804F0BD
:1044500042060C12181E242A30363C000122444920
:104460006846FFF7DDFF35E0052241496846FFF762
:10447000D7FF2FE009223E496846FFF7D1FF29E028
:104480000D223B496846FFF7CBFF23E01122384954
:104490006846FFF7C5FF1DE0152235496846FFF75E
:1044A000BFFF17E0192232496846FFF7B9FF11E054
:1044B0001D222F496846FFF7B3FF0BE021222C494C
:1044C0006846FFF7ADFF05E0252229496846FFF75A
:1044D000A7FF00BF00BF00BFB5E701460A2900DC07
:1044E00009B9002070472420214A10700B293CD2C2
:1044F000DFE801F03B060B10151A1F24292F3500A9
:1045000005201B4A50710620ECE70920184A50721A
:104510000A20E7E70D20164A50730E20E2E711202B
:10452000134A50741220DDE71520114A50751620E9
:10453000D8E719200E4A50761A20D3E71D200C4ADE
:1045400050771E20CEE72120094A82F82100222040
:10455000C8E72520064A82F825002620C2E7292040
:10456000034A82F829002A20BCE70020BAE70000AD
:10457000D50400207047704770477047704710B5EA
:1045800000F008F8006810BD10B5044600F002F80D
:10459000046010BD004870470005002000487047C7
:1045A000000500207546FFF7F9FFAE460500694695
:1045B000534620F00700854618B020B5FBF758FF9A
:1045C000BDE820404FF000064FF000074FF0000814
:1045D0004FF0000B21F00701AC46ACE8C009ACE895
:1045E000C009ACE8C009ACE8C0098D467047044674
:1045F000AFF300802046FBF7C0FD490050EAC12020
:1046000018BF04204A0D18BF40F0010040F2FF72AD
:10461000B2EB515F08BF40F00200012808BF05203F
:10462000704700002DE9F74F144696B00021C4E909
:1046300002111799089121F00045CA498D4206DC04
:104640001799C4E9000119B00020BDE8F08FC649F0
:10465000DFF818A3A9423CDD0899C54E0029C54FD3
:10466000C54A1799534619DD00F086FF554506D017
:10467000C24AC34B00F080FFC4E900010AE04FF0DA
:10468000D352BF4B00F078FF32463B4600F074FF38
:10469000C4E9000119B00120BDE8F08F00F0B8FBBB
:1046A000554506D0B54AB64B00F0B2FBC4E900014F
:1046B0000AE04FF0D352B24B00F0AAFB32463B4621
:1046C00000F0A6FBC4E9000119B04FF0FF30BDE8CF
:1046D000F08FAC49A942179978DB21F00048834656
:1046E000A94AAA4B414600F03DFE0022A84B00F02B
:1046F0008FFB00F0A1FD099000F0CDFD06460F46AE
:104700009D4A534600F02EFE5A46434600F028FFCD
:1047100080468A46994A9A4B3046394600F022FE36
:104720002A0D01250B924246534600F019FF032D36
:10473000C4E9000139D00B98C1F30A51401A05EBC6
:1047400045111139814230DA9248C346784400EB72
:104750000510CDF81CA00C90D0E900233046394656
:1047600000F000FECDE9020102460B4658460799CB
:1047700000F002FF80468A4602460B4658460799DB
:1047800000F0FAFEDDE9022300F0F6FE83460C9805
:1047900003913946D0E90223304600F0E3FD5A4642
:1047A000039B00F0E9FE6D1CBDE708980028A2BF3E
:1047B000099819B0BDE8F08F616881F0004161602F
:1047C000099819B04042BDE8F08FFFE7C1F313012B
:1047D00041F480110E911799C1F30A51A1F2F532FB
:1047E000511102F01F08C8F12002129200220C920F
:1047F0000D92694A7A4402EB810101F1140C0DA972
:104800005FF00607DCF80020DCF8045002FA08F339
:10481000129AD1F800A025FA02F21A430E9BA2FBCD
:104820000356A2FB00329A4415449A4534BF4FF018
:10483000010B4FF0000B51F8043C05EB0B0E7344D9
:10484000954234BF012200221644BBF1000F02D072
:10485000AB4202D903E0AB4201D2012200E00022C8
:1048600041F808A93244E1E801237F1EACF1040CB1
:10487000C8D10898DDE90A6500F10050800F119059
:104880000898099F800000F006FD80468A46384659
:1048900000F018FD6FF01D0201F0E1FA0746304606
:1048A000059100F00FFD6FF03D0201F0D8FACDE95F
:1048B0000310284600F006FD6FF05D0201F0CFFA0C
:1048C000064602460B460191DDE9031000F0A0FA0E
:1048D0003A46059B00F09CFA4246534600F098FA8F
:1048E00000200D4683464246534600F045FE3A46B8
:1048F000059B00F041FEDDE9033200F03DFE32464B
:10490000019B00F02DFEDFF89880244A434600F01A
:1049100029FD06460F46234A234B5846294600F0F8
:1049200021FD32463B4600F073FA0F4606464FF033
:10493000A84243465846294600F014FD32463B46FD
:1049400000F066FA179A12F0004F04D0119A81F025
:10495000004152421192C4E90001119819B0BDE81A
:10496000F08F0000FB21E93F7CD90240FB21F93F99
:104970007370032E8A19A33B000040543163621AFE
:1049800061B4D03DFB21394183C8C96D305FE43F3C
:104990000000E03F30220000B8210000182D4454F0
:1049A000FB21F93D3326A611460B113C2DE9FF4DA5
:1049B00021F0004807460C46B8F1795F08DA00F0AC
:1049C0003BFC002801BF0020324904B0BDE8F08D57
:1049D0003A4623461046194600F0C4FC05460246F6
:1049E0002D480E460B460621784400F05DF82A4615
:1049F000334600F0B7FCDDE9022382468B46384699
:104A0000214600F0AFFC04460F4652465B4628465E
:104A1000314600F0A7FC22463B4600F0ADFD0746BC
:104A20008A464FF0FF322846314601F018FA1B4AF9
:104A300090450ADA3A46534600F09EFD04B0002243
:104A4000BDE8F04D134B00F08BBD154A4245A8BFA1
:104A5000A8F500154FF00004B8BF124D22462B46B2
:104A600000F08AFD0646884622462B46002009496A
:104A700000F082FD04460D463A4653463046414614
:104A800000F07AFD04B022462B46BDE8F04D00F060
:104A900067BD00000000F03F641F00003333D33FC8
:104AA0000000E93F0000D23F2DE9F0414F1E00EB2E
:104AB000C7010446D1E9000115461E4637F006023B
:104AC0000DD02A46334600F04DFC7F1E04EBC70391
:104AD000D3E9002300F09CF937F00602F1D1022F50
:104AE00025D0042F13D0062F18BFBDE8F0812A4629
:104AF000334600F037FCD4E90A2300F089F92A464E
:104B0000334600F02FFCD4E9082300F081F92A464F
:104B1000334600F027FCD4E9062300F079F92A4651
:104B2000334600F01FFCD4E9042300F071F92A4653
:104B3000334600F017FCD4E9022300F069F92A4655
:104B4000334600F00FFCD4E90023BDE8F04100F04B
:104B50005FB900002DE9FF4D054621F0004084B00B
:104B60000C46B0F1795F0BDA2846FFF746FD0428C2
:104B700008BF00F065F8284608B02146BDE8F08D72
:104B80002A460B46104600F0EDFB06460F462A4625
:104B9000234600F0E7FB804626488A4632463B46DD
:104BA00005217844FFF780FF83461098029160B397
:104BB000214A224B4046514600F0D4FBCDE900018A
:104BC0005A4640465146029B00F0CCFB824688463E
:104BD000DDE906014FF0FF3201F041F9524643464C
:104BE00000F0CAFC32463B4600F0BCFBDDE9062380
:104BF00000F0C2FCDDE9002300F0BEFC08B02A464C
:104C00002346BDE8F04D00F0ABBC0B465A4630469B
:104C1000394600F0A7FB084A084B00F0F9F8424675
:104C2000534600F09FFB08B02A462346BDE8F04DEE
:104C300000F0EEB8A21E0000495555555555C5BFA8
:104C4000024A0020110701F00AB9000001FDFFFF30
:104C500000B5284B21F0004287B09A42DCBF002209
:104C6000134631DD244B9A420DD168B94FF0010053
:104C7000FFF78AFC002207B01346104611465DF884
:104C800004EB00F081B906DB07B04FF001025DF8DC
:104C900004EB01F0E4B802AAFFF7C4FC10F0030132
:104CA00004BF0DF1080C9CE80F000DD00120012974
:104CB0000ED0022914D00DF1080C00909CE80F00D2
:104CC000FFF748FF07B000BDFFF770FE07B000BD5B
:104CD0000DF1080C00909CE80F00FFF73BFF05E08A
:104CE0000DF1080C9CE80F00FFF760FE07B081F0A3
:104CF000004100BDFB21E93F0000F07F00B5294BDA
:104D000021F0004287B09A4203DC00221346009251
:104D100033E0254B9A420DD168B94FF00100FFF7FF
:104D200033FC002207B01346104611465DF804EB31
:104D300000F02AB906DB07B04FF001025DF804EB82
:104D400001F08DB802AAFFF76DFC10F003014FF0DF
:104D500001000DD0012914D002291AD00DF1080C40
:104D60009CE80F00FFF722FE07B081F0004100BD74
:104D70000DF1080C00909CE80F00FFF7EBFE07B068
:104D800000BD0DF1080C9CE80F00FFF70FFE07B007
:104D900000BD0DF1080C00909CE80F00FFF7DAFE53
:104DA000E2E70000FB21E93F0000F07F21F0004234
:104DB000A2F16052B2F5801F01F0004328BFD2F18A
:104DC0007F6C0BD95FEA001C43EAC20242EB5070D1
:104DD00018BF704728BF20F001007047B2F5801F50
:104DE000BCBF184670474FEA410C1CF5001F02D2A9
:104DF000084600F056BF70B500F05EFB0000008969
:104E0000FFF7F6BF4FF00040A0F5800070470000AC
:104E100010B591EA030F48BF83F0004300F1B4835B
:104E2000841A71EB030C05D2121943EB0C03001B1F
:104E300061EB0C01DFF824E14FEA1154A4EB135CA1
:104E40001EEA430F18BF9EEA445F73D023EA0E03A5
:104E5000DCF1200E21EA045143F4801332D322FA0C
:104E60000CFE10EB0E0023FA0CFE41EB0E01CCF110
:104E7000200E03FA0EFE10EB0E0051F10001B1F509
:104E8000801FCCF1200E32D201EB045112FA0EF247
:104E9000BDE8104058BF7047401C38BF5FEA42026F
:104EA00018BF7047002814BF20F0010041F1000135
:104EB0004FEA410313F5001F38BF7047A1F1C0410D
:104EC00000F048BB012A43EB0302ACF1200CDCF1FB
:104ED0001F0E32BF4FF0000E23FA0CF310EB03004D
:104EE00041EB0451B4EB115FD0D0A1EB045101F5BB
:104EF000801149085FEA300001EB04510ED350F1F4
:104F0000000038BF12FA0EFE08D1BDE81040C9E714
:104F1000401C38BF5FEA4202CAD1C3E7BDE8104077
:104F20004FEA410313F5001F38BF7047A1F1C0419C
:104F300000F010BB9EEA445F08D011EA5E0FBDE8A6
:104F4000104004BF01F0004100207047BDE8104050
:104F500070B500F0B1FA00BF64FBBE3E0000E0FF98
:104F600002494FF0000000F048BF00BF0000F87F8A
:104F7000491058BFC1F140415B1058BFC3F14043D5
:104F80008B42EFF3008070472DE9C04130B4DFF869
:104F9000A0C23CEA111418BF3CEA131400F0EC80E4
:104FA00081EA03051CEA111444EAD57418BF1CEA0F
:104FB000131500F0C780A4EB05044FF0004545EA47
:104FC000C12145EAC32341EA505143EA525304F157
:104FD0007F74994204F500344FEAC0204FEAC222A0
:104FE00008BF904200F09C804FEA13650FF2401614
:104FF000765D4FEA134506FB05F7C7F1807706FBA0
:1050000007F74FEAD737A7FB03687642C8F5803821
:10501000A7FB06CE38BFA8F1010807FB08E64FF052
:10502000000EA6FB028CE6FB03CEDCF1000CCEF1F9
:10503000004E38BFAEF1010EA6FB0C584FF0000732
:105040004FF00005E6FB0E87A1FB08C6A0FB07CECC
:1050500016EB0E0645F10005E1FB076515F1E04E84
:105060007EBFA4F580345FEA46066D4116F18007E5
:1050700045F100054FEA17274FEA066647EA05673C
:10508000A6F1DE46B6F1805F4FEA15251FD93846F6
:1050900024F0010C05EBC471BCF1FE6F01EB0C11A7
:1050A00002D8F0BCBDE8008124425CBF01F5801E3F
:1050B0009EEAC47F02D4F0BCBDE80081244238D40B
:1050C000F0BCA1F1C041BDE8004100F043BA4FEA95
:1050D000D22242EA43524FEAD323A7FB02864FEA89
:1050E000D02040EA415007FB03661EEA0E0F4FEA4C
:1050F000D12105FB026658BFA6EB0056B6EB005661
:105100004FEA520E4EEAC37E18EB0E0E56EB530ECC
:10511000BDD518EB02085E417F1C55F10005B6E7CE
:105120004FF480154FF000074FF000064FF00008D5
:10513000ADE7F0BC4FF0000001F1C04101F00041CB
:10514000BDE8008111EA0C1F0CEA131500D00CE039
:1051500013EA0C1F00F025804FF00000F0BC81EA3C
:10516000030101F00041BDE80081F0BC81EA0301C8
:10517000BDE8004100F0EEB9F0BCBDE8004170B5FB
:1051800000F09AF9097EFC3E00F007B881EA0301BD
:105190004FF0000001F00041704781EA030100F088
:1051A000D9B9F0BC4FF000002249BDE8004170477A
:1051B000FFFDFBF9F7F5F4F2F0EEEDEBE9E8E6E4DC
:1051C000E3E1E0DEDDDBDAD8D7D5D4D3D1D0CFCD63
:1051D000CCCBCAC8C7C6C5C4C2C1C0BFBEBDBCBB9C
:1051E000BAB9B8B7B6B5B4B3B2B1B0AFAEADACAB97
:1051F000AAA9A8A8A7A6A5A4A3A3A2A1A09F9F9E71
:105200009D9C9C9B9A999998979796959594939322
:10521000929191908F8F8E8E8D8C8C8B8B8A8989B9
:10522000888887878685858484838382828181803C
:105230000000FF070000F87F4FEA41034FEA535395
:10524000A3F58063D3F11E03C8BFD3F1210C0CDD9D
:105250004FF0004242EAC12242EA505232FA03FCC5
:105260008CEAE17CACEBE1707047102BC4BF0020EE
:10527000704703F5787CBCF1FF3F04D06FF000422B
:1052800082EA2100704770B500F016F94992248037
:1052900000207047F2E710F0004248BF4042B0FAE9
:1052A00080F310FA03F10AD0C3F11D0303F5806304
:1052B0004FEA415002EB035202EBD12170474FF00D
:1052C00000007047B0FA80F310FA03F10AD0C3F17E
:1052D0001D0303F580634FEA41504FEA035202EB8E
:1052E000D12170474FF000007047000051EA030CD5
:1052F00017D41CF5801F58BFBCF5801F00F1068035
:10530000994218BF704708BF9042704707D711F500
:10531000801F58BF13F5801F19D4994270478942E6
:1053200070471CF5801F08D5BCF5801FF7D58B4250
:1053300018BF704708BF824270474FF4001C1CEB37
:10534000410F38BF1CEB430F01D28B42704770B541
:1053500000F0B2F8922449004FF000514FF0805312
:10536000FFF706BEDFF848C170B51CEA111E1EBF6C
:105370001CEA13159EEA0C0F95EA0C0F00F06F80E3
:1053800081EA030423EA4C134EEAD47E21EA4C114D
:1053900041F4801143F48013AE44A1FB024CA0FB06
:1053A0000365AEF17F7E361955EB0C05A1FB034C6E
:1053B0004CF10003A0FB021C16EB0C06654153F1F7
:1053C0000003094218BF46F0010613F4007F0BD119
:1053D0004FEA03314FEA0530340341EA155140EA00
:1053E00016506FF003020AE04FEAC3214FEAC520CE
:1053F000F40241EA555140EA56506FF0020202EBC6
:105400002E4201EB025585EACE710AD05FEA440CC8
:1054100018BF24F0004450F1000041F1000120EADF
:10542000D47040F2FE7C624500D270BDA84214BF29
:105430004FF080444FF04044002E08BF0024BEF1DE
:10544000806FA8BFA1F1C041BDE8704080F28280AA
:105450004FF0000001F1C04101F0004170479EEAA9
:105460000C0F0CEA131518BF95EA0C0F06D04FF07D
:10547000000081EA030E0EF0004170BD00F01CF840
:105480008900013E00F007B800F009B84FEA430C6C
:105490005FEA5C5C08D081EA030100F05BB84FEA88
:1054A000410C5FEA5C5CF6D14FF0000001497047A7
:1054B0000000FF070000F87F0EF1020E2EF0030E31
:1054C0005EF8046B364205D4012A43EB030515F55B
:1054D000001F12D8012841EB010C1CF5001F0CD84D
:1054E0000ED14FEAD17C15F5001F0CEB4C0C0CF1E2
:1054F000020C08BF4CEBD37C04E04FF0080C01E039
:105500004FEAD37C0CEB4C0526FA05F606F00706AD
:10551000B6F1040C06D20EEB860CBDE870404CF0E0
:10552000010C6047DFE80CF0090B02024FF000416C
:105530004FF00000A1F5002170BD1946104601286A
:1055400051EB010418BFD4F5001484BF002001F012
:10555000004170BD0808A0F500114FEA3101704705
:1055600091EA030F10B581F000413FF559AC83F08B
:10557000004300F009B8000010B591EA030F48BFDE
:1055800083F000433FF54CAC841A71EB030C07D257
:1055900012198CF0004C43EB0C03001B61EB0C0167
:1055A000DFF8A4E14FEA1154A4EB135C1EEA430FA9
:1055B00018BF9EEA445F00F0B08023EA6E035242B7
:1055C00021EA0451C3EB6E0338BF5B1EDCF1200EF1
:1055D00025D322FA0CFE10EB0E0043FA0CFE41EB31
:1055E0000E01CCF1200E03FA0EFE10EB0E0051F16D
:1055F0000001CCF1200E29D412FA0EF201EB045175
:10560000BDE8104058BF7047401C1CBFB2F1004FAE
:10561000704700280CBF491C20F00100704712EBB6
:10562000020E43EB030218BF4FF0010E4EEA420296
:10563000ACF1200CDCF11E0E54D943FA0CFE10EB39
:105640000E0051F1FF31CCF11E0ED5D50EF1010E39
:1056500012FA0EFE404141EB010101EB445C5FEAAE
:105660005C5C10D910EBDE7001EB045138BFBEF169
:10567000004FBDE8104018BF704700280CBF491C00
:1056800020F00100704730D24FEAD42C11F5001100
:1056900024F400641BD0B1FA81F20B3AA41AA41EC0
:1056A000D2F12003914030FA03F31943904001EB0B
:1056B000CC71002C01EB0451BDE81040A8BF70472D
:1056C00001F1C0414FF0000001F000417047B0FA15
:1056D00080F310FA03F100D110BDE41A173C48051D
:1056E000C90AE4E701EB045110BD491001EB045174
:1056F000BDE810404FEA300002E04FF00001704773
:105700004A0008BF0042F8D0B2F5001F28BF70471A
:1057100001F000414FF0000070479EEA445F07D05F
:1057200011EA5E0FBDE8104004BF00210020704761
:10573000BDE8104070B5FFF7BFFE00BF40DFF63E8A
:1057400083F00041104670470000E0FF43004FEA3D
:10575000D30C4FEA3C0C43401FBF40070CF1605193
:1057600013F0FE4F70471CF0006F03D100200CF0C7
:10577000004170470CF0004343EA507010B540EA16
:10578000CC0000F048FA00BF000000924FEA000190
:10579000FFF7E0BE4FF000414FF00000A1F50021FF
:1057A0007047000090EA010F48BF81F0004100F10E
:1057B000B682421A3CBF801A89184FEAD0524FF085
:1057C0007F4C1CEA410FA2EBD15318BF9CEA026F39
:1057D00000F03B804FF0004C4CEA00204CEA0121E5
:1057E00021FA03FC10EB0C0C1ED202F1FF325FEA2F
:1057F0001C2040EBC25038BF70471CF07F0F4FEAAF
:10580000400C18BFBCF17F4F38BF7047C3F1200375
:10581000994008BF20F00100BCF17F4F38BF7047AE
:10582000A0F1C04000F03DBA4FEA3C00000A40EB56
:10583000C25028BF1CF0FF0F4FEA400CE6D018BF43
:10584000BCF17F4F38BF7047EAE79CEA026F05D092
:1058500010EA5C0F08BF00F00040704710B500F080
:10586000DAF900BF64FBBE3E401058BFC0F14040B3
:10587000491058BFC1F140418142EFF300807047A9
:105880004FF47F0C1CEAD0121EBF1CEAD11392EA1F
:105890000C0F93EA0C0F00F0858090EA010F48BFCF
:1058A00042F4807240F4000C41F400002CF07F417F
:1058B00020F07F4000B58142A2EB03020FF2081CEA
:1058C000ACEB504EC0F100009EF800E04FEA4E0EE7
:1058D00000FB0EFC38BF49004FEA2C1C02F5FA020F
:1058E0000CFB0EF34FEACE1E4FEA112C4FEAC121FA
:1058F0000EEB635E42EB22420EFB0CFC4FEA1C53A4
:1059000000FB03114FEA112C4FEA01310EFB0CFC96
:105910004FEADC4C00FB0C11C14228BF09184CEBCC
:1059200003335DF804EB10EB410143EBC250B2F5D9
:105930007C0F38BF704729D512F0F00F1CBF00F163
:10594000C04000F0004070470081828384858687D4
:1059500088898B8C8D8E8F919293959697999A9C2E
:105960009D9FA0A2A3A5A7A8AAACAEB0B2B3B5B79D
:10597000B9BCBEC0C2C5C7C9CCCED1D4D7D9DCDF73
:10598000E2E6E9ECF0F3F7FAFE0000004FEA400C23
:105990000CF1807CBCF17E4F28BF7047B0F1C04055
:1059A00000F07FB990EA010F0CEAD11348BF42F42E
:1059B0008072624538BF634507D213F47F0F16D05B
:1059C00080EA010000F00040704710B500F023F9B4
:1059D000097EFC3E00F005B880EA010000F00040BE
:1059E000704780EA010000F0004000F05AB912F45C
:1059F0007F0F04BF0248704780EA010000F051B9F0
:105A00000000C07F41000B0ED3F19E0208D950F474
:105A100000034FEA032323FA02F048BF40427047D5
:105A200010B500F0F8F800BF4992248000207047BC
:105A30006FF0004282EA200070470000C10DD1F1F2
:105A40009E0206DB4FEA002343F0004323FA02F0F4
:105A50007047004207D54FEA4001B1F1FE4F02D234
:105A60004FF00000704710B500F0D5F8499224803F
:105A7000002070476FEA20007047000010F00041DE
:105A800048BF4042B0FA80F310FA03F2C3F19D031D
:105A90000BD051EAC35101EB1220530638BF7047B7
:105AA00000F1010008BF20F00100704750EA010C2E
:105AB00000F113801CF5000F58BFBCF5000F01D496
:105AC0008842704707D710F5000F58BF11F5000F37
:105AD00015D488427047894270471CF5000F04D5E1
:105AE000BCF5000FF7D5814270474FF0807C1CEB6E
:105AF000400F38BF1CEB410F01D28142704710B5F7
:105B000000F089F8922449004FF000504FF0805186
:105B1000FFF7AABE4FF47F0C1CEAD0121EBF1CEA8E
:105B2000D11392EA0C0F93EA0C0F00F0478090EA31
:105B3000010F48BF42F480724FF0004C4CEA002045
:105B40004CEA012102EB0302A0FB0113A2F50002C3
:105B5000002918BF43F001035B0028BF4FEA33035D
:105B600042EB22425FEA132C4CEBC2502EBFBCEB3F
:105B7000436FB2F57C0F70474FEA036CBCF1004FE6
:105B800008BF20F00100B2F57C0F38BF70470BD57D
:105B900082F0FF0212F5803FC8BF704700F1C0409D
:105BA000D8BF00F00040704700F5000C5FEA4C0CD5
:105BB00048BF7047B0F1C04000F073B890EA010FE1
:105BC0000CEAD11348BF42F48072624538BF634586
:105BD00004D280EA010000F00040704710B500F0E8
:105BE0001AF800BF8900013E00F007B800F009B8BC
:105BF0005FEA410C5FEA1C6C08D080EA010000F00B
:105C000050B85FEA400C5FEA1C6CF6D14FF00040E0
:105C1000A0F5800070470EF1020E2EF0030E5EF824
:105C2000044B244204D44FEA4102B2F17F4F11D811
:105C30004FEA4003B3F17F4F0CD80ED14FEAD07C2E
:105C4000B2F17F4F0CEB4C0C0CF1020C08BF4CEB8B
:105C5000D17C04E04FF0080C01E04FEAD17C0CEB62
:105C60004C0324FA03F404F00704B4F1040C06D244
:105C70000EEB840CBDE810404CF0010C6047DFE8EF
:105C80000CF0070802024FF00040A0F5800010BDA4
:105C90000846420018BFD2F1807288BF00F0004071
:105CA00010BDFF2141EAD050C005704751EA000CF9
:105CB00000F113801CF5000F58BFBCF5000F01D494
:105CC0008142704707D711F5000F58BF10F5000F3C
:105CD00015D481427047894270471CF5000F04D5E6
:105CE000BCF5000FF7D5884270474FF0807C1CEB65
:105CF000410F38BF1CEB400F01D28842704780EA49
:105D0000010081EA000180EA0100FFF7F8BE00000F
:105D100090EA010F48BF81F000413FF54AAD421AB9
:105D200004D882F00042A0EB020011444FEAD052A6
:105D30004FF07F4C1CEA410FA2EBD15318BF9CEAF5
:105D4000026F4AD04FF0004C4CEA00204CEA01218F
:105D500021FA03FCB0EB0C0C0FD412F0FE0F36D07E
:105D60005FEA4C001DD5001240EBC25038BF7047AF
:105D70001CF03F0F18BF70470BE0A2F101025FEA71
:105D80001C2040EBC25038BF70471CF07F0F18BF7B
:105D90007047C3F12003994014BF401E20F001005A
:105DA000704780084FEA122308BF7047B0FA80FCA2
:105DB000A2EB0C02CCF1280C60FA0CF093EA122F43
:105DC00004BF00EBC25070474FEAC3707047130A1C
:105DD0005FEADC1008BF7047F6E79CEA026F04D068
:105DE00010EA5C0F08BF0020704710B5FFF713FFE3
:105DF00040DFF63E81F0004070470CF00F03092BA6
:105E000008BF082000F059800A2B0BD0082B18BFC0
:105E1000704708BF1CF0400F0AD04FF000004FF051
:105E2000000170471CF0400F18BF4FF00040704752
:105E30001CF0100F08D020F0704300F07F4242EABF
:105E4000D3014FEA4370704700F0604021F07F4279
:105E500042EA000201F07F4040EA727070474FF062
:105E6000FF0C4CF4E06C1CEA11531CBF9CEA030CC1
:105E70009445C2BFDA4201EB02517047002B0DD0AE
:105E8000BCF1000F0FD0002A01F00041A4BF41F087
:105E9000E04141F07F614FF00000704701F00041A8
:105EA0004FF00000704750EA01334FF09B0C18BFD1
:105EB0004CF0806C7FF454A870471CF4801F11D004
:105EC0001CF4E02F03D06FEACC31490070474FF04B
:105ED0004050EFF3008222F0704242EA000282F367
:105EE000008870474FF0000070470000000000007D
:105EF000000000000000000000003F400000000023
:105F000000000000300040003000400000000900A8
:105F10000BC03D000BC03D00090018C024407FE0CD
:105F2000224031800000180024C01B000D80324048
:105F3000018003801C4027401C8007400040100067
:105F400060000000000000000000000000000000F1
:105F50001F80204040200000402020401F80000083
:105F60000000090006001F80060009000000040070
:105F700004003F80040004000000001000600000E6
:105F800000000000000004000400040004000400FD
:105F900000000000004000000000000000000020A1
:105FA00001C006003800400000001F802040204053
:105FB00020401F800000000010403FC00040000053
:105FC000000018C0214022402440184000001080EA
:105FD0002040244024401B80000002000D001100DE
:105FE0003FC0014000003C802440244024402380E6
:105FF00000001F8024402440344003800000300013
:10600000200027C03800200000001B8024402440CE
:1060100024401B8000001C0022C0224022401F8020
:106020000000000000000840000000000000000028
:1060300000000460000000000000000004000A00EE
:1060400011002080404009000900090009000900F2
:10605000000000004040208011000A0004001800E9
:10606000200023402400180000001F80204027400B
:1060700029401F400000004007C039000F0001C048
:10608000004020403FC0244024401B8000001F806F
:106090002040204020403080000020403FC0204071
:1060A00020401F80000020403FC024402E4030C0D0
:1060B000000020403FC024402E00300000000F00B0
:1060C0001080204022403380020020403FC0040066
:1060D00004003FC02040204020403FC020402040DE
:1060E00000000060202020203FC020002000204031
:1060F0003FC024400B0030C0204020403FC0204023
:106100000040004000C03FC03C0003C03C003FC016
:10611000000020403FC00C4023003FC020001F80F3
:106120002040204020401F80000020403FC02440ED
:106130002400180000001F802140214020E01FA003
:10614000000020403FC02440260019C0004018C075
:1061500024402440224031800000300020403FC0D5
:1061600020403000000020003F80004000403F8081
:10617000200020003E0001C0070038002000380049
:1061800007C03C0007C038000000204039C00600AE
:1061900039C0204000002000384007C038402000AF
:1061A0000000304021C02640384020C000000000E0
:1061B00000007FE0402040200000000070000C0044
:1061C0000380004000000000402040207FE00000ED
:1061D000000000002000400020000000000000102F
:1061E000001000100010001000100000000040001F
:1061F000000000000000000002800540054003C0D0
:10620000004020003FC00440044003800000000024
:106210000380044004400640000000000380044066
:1062200024403FC00040000003800540054003407B
:106230000000000004401FC0244024402000000053
:1062400002E0055005500650042020403FC00440A5
:10625000040003C000400000044027C000400000CC
:10626000000000100010041027E000000000204093
:106270003FC00140070004C00440204020403FC010
:1062800000400040000007C0040007C0040003C035
:106290000000044007C00440040003C000400000A8
:1062A00003800440044003800000041007F0045001
:1062B000044003800000000003800440045007F005
:1062C0000010044007C00240040004000000000069
:1062D00006400540054004C00000000004001F8087
:1062E000044000400000040007800040044007C054
:1062F00000400400070004C00180060004000600FE
:1063000001C0070001C006000000044006C00100F3
:1063100006C0044000000410071004E001800600DD
:1063200004000000044005C00640044000000000D6
:10633000000004007BE0402000000000000000009E
:10634000FFF000000000000040207BE0040000009F
:1063500000004000800040002000200040000000BD
:10636000000000000000000000000000000000002D
:10637000000000001FCC000C000000000000000026
:1063800008003000600008003000600000000220BB
:1063900003FC1E20022003FC1E200220000000003F
:1063A0000E1811043FFF10840C78000000000F004D
:1063B00010840F3800C00778188400780000007837
:1063C0000F8410C411240E9800E400840008080013
:1063D00068007000000000000000000000000000E5
:1063E0000000000007E01818200440020000000030
:1063F00040022004181807E00000000000000240DE
:10640000024001800FF00180024002400000008045
:10641000008000800FF800800080008000000001F4
:10642000000D000E00000000000000000000000051
:1064300000800080008000800080008000800000DC
:10644000000C000C00000000000000000000000034
:1064500000060018006001800600180020000000FF
:1064600007F0080810041004080807F000000000F6
:10647000080408041FFC00040004000000000000E1
:106480000E0C10141024104411840E0C0000000097
:106490000C1810041104110412880C700000000084
:1064A00000E00320042408241FFC00240000000056
:1064B0001F9810841104110410881070000000004F
:1064C00007F008881104110418880070000000000B
:1064D0001C00100010FC13001C0010000000000045
:1064E0000E3811441084108411440E38000000004E
:1064F0000700088C10441044088807F000000000D2
:1065000000000000030C030C00000000000000006D
:106510000000000101060000000000000000000073
:10652000008001400220041008081004000002202E
:10653000022002200220022002200220000000008F
:106540001004080804100220014000800000000030
:106550000E001200100C106C10800F00000003E001
:106560000C1813E4142417C4082807D000000004F2
:10657000003C03C41C40074000E4001C000410045D
:106580001FFC1104110411040E880070000003E0C8
:106590000C1810041004100410081C100000100443
:1065A0001FFC100410041004080807F00000100479
:1065B0001FFC1104110417C4100408180000100473
:1065C0001FFC1104110017C010000800000003E0B8
:1065D0000C181004100410441C7800400000100433
:1065E0001FFC10840080008010841FFC1004000039
:1065F000100410041FFC100410040000000000032D
:106600000001100110011FFE100010000000100416
:106610001FFC110403801464181C100400001004F3
:106620001FFC1004000400040004000C000010040F
:106630001FFC1F0000FC1F001FFC100400001004C2
:106640001FFC0C04030000E010181FFC100007F0F2
:106650000808100410041004080807F000001004D3
:106660001FFC10841080108010800F00000007F0C5
:10667000081810241024101C080A07F20000100447
:106680001FFC1104110011C011300E0C0004000099
:106690000E1C11041084108410441C3800001800D3
:1066A000100010041FFC100410001800000010005F
:1066B0001FF810040004000410041FF8100010005C
:1066C0001E0011E0001C007013801C0010001FC091
:1066D000103C00E01F0000E0103C1FC00000100450
:1066E000180C163401C001C01634180C1004100028
:1066F0001C00130400FC13041C001000000008041C
:10670000101C1064108413041C04101800000000F6
:10671000000000007FFE4002400240020000000036
:1067200030000C0003800060001C0003000000002B
:106730004002400240027FFE000000000000000016
:106740000000200040004000400020000000000148
:106750000001000100010001000100010001000032
:106760004000400020000000000000000000000089
:106770000098012401440144014400FC000410007D
:106780001FFC008801040104008800700000000064
:10679000007000880104010401040088000000006A
:1067A000007000880104010411081FFC00040000AF
:1067B00000F8014401440144014400C80000000005
:1067C000010401040FFC1104110411001800000061
:1067D00000D601290129012901C901060000100480
:1067E0001FFC008401000100010400FC0004000003
:1067F0000104190419FC000400040000000000005A
:10680000000300010101190119FE0000000010043D
:106810001FFC0024004001B4010C01040000000032
:10682000100410041FFC0004000400000000010418
:1068300001FC0104010001FC0104010000FC010451
:1068400001FC008401000100010400FC00040000C0
:1068500000F8010401040104010400F80000010132
:1068600001FF0085010401040088007000000000A1
:106870000070008801040104010501FF000101040A
:10688000010401FC008401040100018000000000FB
:1068900000CC0124012401240124019800000000FF
:1068A0000100010007F801040104000000000100DC
:1068B00001F8000400040004010801FC00040100C8
:1068C00001800170000C001001600180010001F0E6
:1068D000010C003001C00030010C01F0010000008B
:1068E0000104018C00740170018C0104000001019D
:1068F00001810171000E001801600180010000009B
:106900000184010C013401440184010C00000000E9
:1069100000000000000001003EFC400240020000B8
:10692000000000000000FFFF000000000000000069
:10693000400240023EFC0100000000000000000098
:106940006000800080004000400020002000000027
:106950004C5555555555A53F7751C1166CC156BF7D
:106960009015CB19A001FA3EAD529C804F7E92BE8D
:10697000C4B1B4BD9EEE213ED43888BEE9FAA8BDAC
:1069800000004054FB21F93F3163621A61B4D03DED
:106990000000601A61B4D03D7370032E8A19A33BC6
:1069A0000000002E8A19A33BC14920259A837B3918
:1069B00000000000000000006E83F9A22915444E7B
:1069C000D15727FCC0DD34F5999562DB4190433CFB
:1069D000AB6351FE61C5BBDE3A6E24B7E0D24D42D7
:1069E000EA2E49061C92D1091CEB1DFE3EA729B1D7
:1069F000F53582E88444BB2E26709CE9417E5FB465
:106A000039D69139F43953838B5F849C3B28F9BD87
:106A1000FF97F81F0F9805DE8B112FEF1F6D0A5A95
:106A2000CF7E366DB709CB27663F464F2DEA5F9E76
:106A3000C7BA27757BF1E5EBF739073DEA92528A31
:106A4000B15FFB6B085D8D1FA6F810111111813F1E
:106A5000D561C119A0012ABF7DFEB157E31DC73E14
:106A6000EB9C2B8AE6E55ABE7CD5CF5A3AD9E53D58
:106A7000906A000800000020CC00000028010008F7
:106A80005C6B0008CC000020940A00004401000860
:106A900000A24A04000000000000000001020304FC
:106AA00006070809010000000000000000000000C7
:106AB00000008C420000000000004842000000007E
:106AC00000000000000005430000C8420000000074
:106AD00000000000000000008000000080000000B6
:106AE00080000000800000000000000000000000A6
:106AF0000102030401020304060708090204060850
:106B00000000000000000000000000000000000085
:106B1000010000000000000001420100020003002B
:106B20000400050006000700080009000A000B0029
:106B30000C000D000E000F001000000064000000AB
:106B40000000000000000000000000000000000045
:0C6B500000000000000000000000000039
:04000005080000ED02
:00000001FF
