Product: MDK-ARM Standard 5.10
Component: ARM Compiler 5.04 update 1 (build 49)
Tool: armlink [5040049]

==============================================================================

Section Cross References

    system_stm32f10x.o(.text) refers to system_stm32f10x.o(.data) for SystemCoreClock
    minibalance.o(.text) refers to delay.o(.text) for delay_init
    minibalance.o(.text) refers to usart.o(.text) for uart_init
    minibalance.o(.text) refers to sys.o(.text) for JTAG_Set
    minibalance.o(.text) refers to led.o(.text) for LED_Init
    minibalance.o(.text) refers to key.o(.text) for KEY_Init
    minibalance.o(.text) refers to adc.o(.text) for Adc_Init
    minibalance.o(.text) refers to oled.o(.text) for OLED_Init
    minibalance.o(.text) refers to timer.o(.text) for TIM1_Int_Init
    minibalance.o(.text) refers to motor.o(.text) for TIM4_PWM_Init
    minibalance.o(.text) refers to exti.o(.text) for Screen_Init
    minibalance.o(.text) refers to pstwo.o(.text) for PS2_Init
    minibalance.o(.text) refers to show.o(.text) for oled_show
    minibalance.o(.text) refers to minibalance.o(.data) for PS2_KEY
    startup_stm32f10x_md.o(STACK) refers (Special) to heapauxi.o(.text) for __use_two_region_memory
    startup_stm32f10x_md.o(HEAP) refers (Special) to heapauxi.o(.text) for __use_two_region_memory
    startup_stm32f10x_md.o(RESET) refers (Special) to heapauxi.o(.text) for __use_two_region_memory
    startup_stm32f10x_md.o(RESET) refers to startup_stm32f10x_md.o(STACK) for __initial_sp
==============================================================================

Removing Unused input sections from the image.

    Removing core_cm3.o(.emb_text), (32 bytes).
    Removing stm32f10x_can.o(.text), (2544 bytes).
    Removing stm32f10x_cec.o(.text), (288 bytes).
    Removing stm32f10x_crc.o(.text), (72 bytes).
    Removing stm32f10x_dac.o(.text), (396 bytes).
    Removing stm32f10x_dbgmcu.o(.text), (48 bytes).
    Removing stm32f10x_dma.o(.text), (596 bytes).
    Removing stm32f10x_flash.o(.text), (1468 bytes).
    Removing stm32f10x_fsmc.o(.text), (1548 bytes).
    Removing stm32f10x_i2c.o(.text), (1028 bytes).
    Removing stm32f10x_iwdg.o(.text), (64 bytes).
    Removing stm32f10x_rtc.o(.text), (328 bytes).
    Removing stm32f10x_sdio.o(.text), (468 bytes).
    Removing stm32f10x_spi.o(.text), (780 bytes).
    Removing stm32f10x_wwdg.o(.text), (136 bytes).
    Removing usart.o(.data), (4 bytes).
    Removing usart3.o(.data), (1 bytes).

==============================================================================

Image Symbol Table

    Local Symbols

    Symbol Name                              Value     Ov Type        Size  Object(Section)

    ../clib/angel/boardlib.s                 0x00000000   Number         0  boardshut.o ABSOLUTE
    ../clib/angel/boardlib.s                 0x00000000   Number         0  boardinit1.o ABSOLUTE
    ../clib/angel/boardlib.s                 0x00000000   Number         0  boardinit2.o ABSOLUTE
    ../clib/angel/boardlib.s                 0x00000000   Number         0  boardinit3.o ABSOLUTE
    ../clib/angel/handlers.s                 0x00000000   Number         0  __scatter_zi.o ABSOLUTE
    ../clib/angel/handlers.s                 0x00000000   Number         0  __scatter_copy.o ABSOLUTE
    ../clib/angel/kernel.s                   0x00000000   Number         0  rtentry4.o ABSOLUTE
    ../clib/angel/kernel.s                   0x00000000   Number         0  rtentry.o ABSOLUTE
    ../clib/angel/kernel.s                   0x00000000   Number         0  rtexit.o ABSOLUTE
    ../clib/angel/kernel.s                   0x00000000   Number         0  rtexit2.o ABSOLUTE
    ../clib/angel/kernel.s                   0x00000000   Number         0  rtentry2.o ABSOLUTE
    ../clib/angel/rt.s                       0x00000000   Number         0  rt_errno_addr.o ABSOLUTE
    ../clib/angel/rt.s                       0x00000000   Number         0  rt_errno_addr_intlibspace.o ABSOLUTE
    ../clib/angel/rt.s                       0x00000000   Number         0  rt_raise.o ABSOLUTE
    ../clib/angel/scatter.s                  0x00000000   Number         0  __scatter.o ABSOLUTE
    ../clib/angel/startup.s                  0x00000000   Number         0  __main.o ABSOLUTE
    ../clib/angel/sys.s                      0x00000000   Number         0  indicate_semi.o ABSOLUTE
    ../clib/angel/sys.s                      0x00000000   Number         0  use_no_semi.o ABSOLUTE
    ../clib/angel/sys.s                      0x00000000   Number         0  sys_stackheap_outer.o ABSOLUTE
    ../clib/angel/sys.s                      0x00000000   Number         0  libspace.o ABSOLUTE
    ../clib/angel/sys.s                      0x00000000   Number         0  use_no_semi_2.o ABSOLUTE
    ../clib/angel/sysapp.c                   0x00000000   Number         0  sys_wrch.o ABSOLUTE
    ../clib/angel/sysapp.c                   0x00000000   Number         0  sys_command.o ABSOLUTE
    ../clib/armsys.c                         0x00000000   Number         0  argv_veneer.o ABSOLUTE
    ../clib/armsys.c                         0x00000000   Number         0  no_argv.o ABSOLUTE
    ../clib/armsys.c                         0x00000000   Number         0  argv_veneer.o ABSOLUTE
    ../clib/armsys.c                         0x00000000   Number         0  _get_argv_nomalloc.o ABSOLUTE
    ../clib/fenv.c                           0x00000000   Number         0  _rserrno.o ABSOLUTE
    ../clib/heapalloc.c                      0x00000000   Number         0  hrguard.o ABSOLUTE
    ../clib/heapaux.c                        0x00000000   Number         0  heapauxi.o ABSOLUTE
    ../clib/libinit.s                        0x00000000   Number         0  libinit.o ABSOLUTE
    ../clib/libinit.s                        0x00000000   Number         0  libinit2.o ABSOLUTE
    ../clib/libinit.s                        0x00000000   Number         0  libshutdown.o ABSOLUTE
    ../clib/libinit.s                        0x00000000   Number         0  libshutdown2.o ABSOLUTE
    ../clib/signal.c                         0x00000000   Number         0  defsig_stak_inner.o ABSOLUTE
    ../clib/signal.c                         0x00000000   Number         0  defsig_rtred_inner.o ABSOLUTE
    ../clib/signal.c                         0x00000000   Number         0  defsig_abrt_inner.o ABSOLUTE
    ../clib/signal.c                         0x00000000   Number         0  defsig_general.o ABSOLUTE
    ../clib/signal.c                         0x00000000   Number         0  __raise.o ABSOLUTE
    ../clib/signal.c                         0x00000000   Number         0  defsig_rtmem_inner.o ABSOLUTE
    ../clib/signal.c                         0x00000000   Number         0  defsig_other.o ABSOLUTE
    ../clib/signal.c                         0x00000000   Number         0  defsig_segv_inner.o ABSOLUTE
    ../clib/signal.c                         0x00000000   Number         0  defsig_cppl_inner.o ABSOLUTE
    ../clib/signal.c                         0x00000000   Number         0  defsig_rtmem_outer.o ABSOLUTE
    ../clib/signal.c                         0x00000000   Number         0  defsig_rtmem_formal.o ABSOLUTE
    ../clib/signal.c                         0x00000000   Number         0  defsig_pvfn_inner.o ABSOLUTE
    ../clib/signal.c                         0x00000000   Number         0  defsig_fpe_inner.o ABSOLUTE
    ../clib/signal.c                         0x00000000   Number         0  defsig_exit.o ABSOLUTE
    ../clib/signal.s                         0x00000000   Number         0  defsig.o ABSOLUTE
    ../clib/stdlib.c                         0x00000000   Number         0  exit.o ABSOLUTE
    ../fplib/d2f.s                           0x00000000   Number         0  d2f.o ABSOLUTE
    ../fplib/daddsub.s                       0x00000000   Number         0  daddsub_clz.o ABSOLUTE
    ../fplib/dcheck1.s                       0x00000000   Number         0  dcheck1.o ABSOLUTE
    ../fplib/dcmpi.s                         0x00000000   Number         0  dcmpi.o ABSOLUTE
    ../fplib/ddiv.s                          0x00000000   Number         0  ddiv.o ABSOLUTE
    ../fplib/dfix.s                          0x00000000   Number         0  dfix.o ABSOLUTE
    ../fplib/dflt.s                          0x00000000   Number         0  dflt_clz.o ABSOLUTE
    ../fplib/dleqf.s                         0x00000000   Number         0  dleqf.o ABSOLUTE
    ../fplib/dmul.s                          0x00000000   Number         0  dmul.o ABSOLUTE
    ../fplib/dnaninf.s                       0x00000000   Number         0  dnaninf.o ABSOLUTE
    ../fplib/dretinf.s                       0x00000000   Number         0  dretinf.o ABSOLUTE
    ../fplib/f2d.s                           0x00000000   Number         0  f2d.o ABSOLUTE
    ../fplib/faddsub.s                       0x00000000   Number         0  faddsub_clz.o ABSOLUTE
    ../fplib/fcmpi.s                         0x00000000   Number         0  fcmpi.o ABSOLUTE
    ../fplib/fdiv.s                          0x00000000   Number         0  fdiv.o ABSOLUTE
    ../fplib/ffix.s                          0x00000000   Number         0  ffix.o ABSOLUTE
    ../fplib/ffixu.s                         0x00000000   Number         0  ffixu.o ABSOLUTE
    ../fplib/fflt.s                          0x00000000   Number         0  fflt_clz.o ABSOLUTE
    ../fplib/fleqf.s                         0x00000000   Number         0  fleqf.o ABSOLUTE
    ../fplib/fmul.s                          0x00000000   Number         0  fmul.o ABSOLUTE
    ../fplib/fnaninf.s                       0x00000000   Number         0  fnaninf.o ABSOLUTE
    ../fplib/fpinit.s                        0x00000000   Number         0  fpinit.o ABSOLUTE
    ../fplib/fretinf.s                       0x00000000   Number         0  fretinf.o ABSOLUTE
    ../fplib/frleqf.s                        0x00000000   Number         0  frleqf.o ABSOLUTE
    ../fplib/retnan.s                        0x00000000   Number         0  retnan.o ABSOLUTE
    ../fplib/scalbn.s                        0x00000000   Number         0  scalbn.o ABSOLUTE
    ../fplib/trapv.s                         0x00000000   Number         0  trapv.o ABSOLUTE
    ../fplib/usenofp.s                       0x00000000   Number         0  usenofp.o ABSOLUTE
    ../mathlib/cos.c                         0x00000000   Number         0  cos.o ABSOLUTE
    ../mathlib/cos.c                         0x00000000   Number         0  cos_x.o ABSOLUTE
    ../mathlib/cos_i.c                       0x00000000   Number         0  cos_i.o ABSOLUTE
    ../mathlib/dunder.c                      0x00000000   Number         0  dunder.o ABSOLUTE
    ../mathlib/fpclassify.c                  0x00000000   Number         0  fpclassify.o ABSOLUTE
    ../mathlib/poly.c                        0x00000000   Number         0  poly.o ABSOLUTE
    ../mathlib/rred.c                        0x00000000   Number         0  rred.o ABSOLUTE
    ../mathlib/sin.c                         0x00000000   Number         0  sin.o ABSOLUTE
    ../mathlib/sin.c                         0x00000000   Number         0  sin_x.o ABSOLUTE
    ../mathlib/sin_i.c                       0x00000000   Number         0  sin_i_x.o ABSOLUTE
    ../mathlib/sin_i.c                       0x00000000   Number         0  sin_i.o ABSOLUTE
    ..\MiniBalance\CONTROL\control.c         0x00000000   Number         0  control.o ABSOLUTE
    ..\MiniBalance\show\show.c               0x00000000   Number         0  show.o ABSOLUTE
    ..\MiniBalance_COER\core_cm3.c           0x00000000   Number         0  core_cm3.o ABSOLUTE
    ..\MiniBalance_COER\startup_stm32f10x_md.s 0x00000000   Number         0  startup_stm32f10x_md.o ABSOLUTE
    ..\MiniBalance_HARDWARE\ADC\adc.c        0x00000000   Number         0  adc.o ABSOLUTE
    ..\MiniBalance_HARDWARE\DataScope_DP\DataScope_DP.C 0x00000000   Number         0  datascope_dp.o ABSOLUTE
    ..\MiniBalance_HARDWARE\EXTI\exti.c      0x00000000   Number         0  exti.o ABSOLUTE
    ..\MiniBalance_HARDWARE\KEY\key.c        0x00000000   Number         0  key.o ABSOLUTE
    ..\MiniBalance_HARDWARE\LED\LED.C        0x00000000   Number         0  led.o ABSOLUTE
    ..\MiniBalance_HARDWARE\MOTOR\motor.c    0x00000000   Number         0  motor.o ABSOLUTE
    ..\MiniBalance_HARDWARE\OLED\oled.c      0x00000000   Number         0  oled.o ABSOLUTE
    ..\MiniBalance_HARDWARE\PS2\pstwo.c      0x00000000   Number         0  pstwo.o ABSOLUTE
    ..\MiniBalance_HARDWARE\TIMER\timer.c    0x00000000   Number         0  timer.o ABSOLUTE
    ..\MiniBalance_HARDWARE\USART3\usart3.c  0x00000000   Number         0  usart3.o ABSOLUTE
    ..\STM32F10x_FWLib\src\misc.c            0x00000000   Number         0  misc.o ABSOLUTE
    ..\STM32F10x_FWLib\src\stm32f10x_adc.c   0x00000000   Number         0  stm32f10x_adc.o ABSOLUTE
    ..\STM32F10x_FWLib\src\stm32f10x_bkp.c   0x00000000   Number         0  stm32f10x_bkp.o ABSOLUTE
    ..\STM32F10x_FWLib\src\stm32f10x_can.c   0x00000000   Number         0  stm32f10x_can.o ABSOLUTE
    ..\STM32F10x_FWLib\src\stm32f10x_cec.c   0x00000000   Number         0  stm32f10x_cec.o ABSOLUTE
    ..\STM32F10x_FWLib\src\stm32f10x_crc.c   0x00000000   Number         0  stm32f10x_crc.o ABSOLUTE
    ..\STM32F10x_FWLib\src\stm32f10x_dac.c   0x00000000   Number         0  stm32f10x_dac.o ABSOLUTE
    ..\STM32F10x_FWLib\src\stm32f10x_dbgmcu.c 0x00000000   Number         0  stm32f10x_dbgmcu.o ABSOLUTE
    ..\STM32F10x_FWLib\src\stm32f10x_dma.c   0x00000000   Number         0  stm32f10x_dma.o ABSOLUTE
    ..\STM32F10x_FWLib\src\stm32f10x_exti.c  0x00000000   Number         0  stm32f10x_exti.o ABSOLUTE
    ..\STM32F10x_FWLib\src\stm32f10x_flash.c 0x00000000   Number         0  stm32f10x_flash.o ABSOLUTE
    ..\STM32F10x_FWLib\src\stm32f10x_fsmc.c  0x00000000   Number         0  stm32f10x_fsmc.o ABSOLUTE
    ..\STM32F10x_FWLib\src\stm32f10x_gpio.c  0x00000000   Number         0  stm32f10x_gpio.o ABSOLUTE
    ..\STM32F10x_FWLib\src\stm32f10x_i2c.c   0x00000000   Number         0  stm32f10x_i2c.o ABSOLUTE
    ..\STM32F10x_FWLib\src\stm32f10x_iwdg.c  0x00000000   Number         0  stm32f10x_iwdg.o ABSOLUTE
    ..\STM32F10x_FWLib\src\stm32f10x_pwr.c   0x00000000   Number         0  stm32f10x_pwr.o ABSOLUTE
    ..\STM32F10x_FWLib\src\stm32f10x_rcc.c   0x00000000   Number         0  stm32f10x_rcc.o ABSOLUTE
    ..\STM32F10x_FWLib\src\stm32f10x_rtc.c   0x00000000   Number         0  stm32f10x_rtc.o ABSOLUTE
    ..\STM32F10x_FWLib\src\stm32f10x_sdio.c  0x00000000   Number         0  stm32f10x_sdio.o ABSOLUTE
    ..\STM32F10x_FWLib\src\stm32f10x_spi.c   0x00000000   Number         0  stm32f10x_spi.o ABSOLUTE
    ..\STM32F10x_FWLib\src\stm32f10x_tim.c   0x00000000   Number         0  stm32f10x_tim.o ABSOLUTE
    ..\STM32F10x_FWLib\src\stm32f10x_usart.c 0x00000000   Number         0  stm32f10x_usart.o ABSOLUTE
    ..\STM32F10x_FWLib\src\stm32f10x_wwdg.c  0x00000000   Number         0  stm32f10x_wwdg.o ABSOLUTE
    ..\SYSTEM\delay\delay.c                  0x00000000   Number         0  delay.o ABSOLUTE
    ..\SYSTEM\sys\sys.c                      0x00000000   Number         0  sys.o ABSOLUTE
    ..\SYSTEM\usart\usart.c                  0x00000000   Number         0  usart.o ABSOLUTE
    ..\\MiniBalance_COER\\core_cm3.c         0x00000000   Number         0  core_cm3.o ABSOLUTE
    ..\\SYSTEM\\sys\\sys.c                   0x00000000   Number         0  sys.o ABSOLUTE
    MiniBalance.c                            0x00000000   Number         0  minibalance.o ABSOLUTE
    dc.s                                     0x00000000   Number         0  dc.o ABSOLUTE
    stm32f10x_it.c                           0x00000000   Number         0  stm32f10x_it.o ABSOLUTE
    system_stm32f10x.c                       0x00000000   Number         0  system_stm32f10x.o ABSOLUTE
    RESET                                    0x08000000   Section      236  startup_stm32f10x_md.o(RESET)
    !!!main                                  0x080000ec   Section        8  __main.o(!!!main)
    !!!scatter                               0x080000f4   Section       52  __scatter.o(!!!scatter)
    !!handler_copy                           0x08000128   Section       26  __scatter_copy.o(!!handler_copy)
    !!handler_zi                             0x08000144   Section       28  __scatter_zi.o(!!handler_zi)
    .ARM.Collect$$libinit$$00000000          0x08000160   Section        2  libinit.o(.ARM.Collect$$libinit$$00000000)
    .ARM.Collect$$libinit$$00000002          0x08000162   Section        0  libinit2.o(.ARM.Collect$$libinit$$00000002)
    .ARM.Collect$$libinit$$00000008          0x08000162   Section        0  libinit2.o(.ARM.Collect$$libinit$$00000008)
    .ARM.Collect$$libinit$$0000000A          0x08000162   Section        0  libinit2.o(.ARM.Collect$$libinit$$0000000A)
    .ARM.Collect$$libinit$$0000000C          0x08000162   Section        0  libinit2.o(.ARM.Collect$$libinit$$0000000C)
    .ARM.Collect$$libinit$$0000000F          0x08000162   Section        0  libinit2.o(.ARM.Collect$$libinit$$0000000F)
    .ARM.Collect$$libinit$$00000011          0x08000162   Section        0  libinit2.o(.ARM.Collect$$libinit$$00000011)
    .ARM.Collect$$libinit$$00000013          0x08000162   Section        0  libinit2.o(.ARM.Collect$$libinit$$00000013)
    .ARM.Collect$$libinit$$00000015          0x08000162   Section        0  libinit2.o(.ARM.Collect$$libinit$$00000015)
    .ARM.Collect$$libinit$$00000017          0x08000162   Section        0  libinit2.o(.ARM.Collect$$libinit$$00000017)
    .ARM.Collect$$libinit$$00000019          0x08000162   Section        0  libinit2.o(.ARM.Collect$$libinit$$00000019)
    .ARM.Collect$$libinit$$0000001B          0x08000162   Section        0  libinit2.o(.ARM.Collect$$libinit$$0000001B)
    .ARM.Collect$$libinit$$0000001D          0x08000162   Section        0  libinit2.o(.ARM.Collect$$libinit$$0000001D)
    .ARM.Collect$$libinit$$0000001F          0x08000162   Section        0  libinit2.o(.ARM.Collect$$libinit$$0000001F)
    .ARM.Collect$$libinit$$00000021          0x08000162   Section        0  libinit2.o(.ARM.Collect$$libinit$$00000021)
    .ARM.Collect$$libinit$$00000023          0x08000162   Section        0  libinit2.o(.ARM.Collect$$libinit$$00000023)
    .ARM.Collect$$libinit$$0000002A          0x08000162   Section        0  libinit2.o(.ARM.Collect$$libinit$$0000002A)
    .ARM.Collect$$libinit$$0000002C          0x08000162   Section        0  libinit2.o(.ARM.Collect$$libinit$$0000002C)
    .ARM.Collect$$libinit$$0000002E          0x08000162   Section        0  libinit2.o(.ARM.Collect$$libinit$$0000002E)
    .ARM.Collect$$libinit$$00000030          0x08000162   Section        0  libinit2.o(.ARM.Collect$$libinit$$00000030)
    .ARM.Collect$$libinit$$00000031          0x08000162   Section        2  libinit2.o(.ARM.Collect$$libinit$$00000031)
    .ARM.Collect$$libshutdown$$00000000      0x08000164   Section        2  libshutdown.o(.ARM.Collect$$libshutdown$$00000000)
    .ARM.Collect$$libshutdown$$00000003      0x08000166   Section        0  libshutdown2.o(.ARM.Collect$$libshutdown$$00000003)
    .ARM.Collect$$libshutdown$$00000006      0x08000166   Section        0  libshutdown2.o(.ARM.Collect$$libshutdown$$00000006)
    .ARM.Collect$$libshutdown$$00000009      0x08000166   Section        0  libshutdown2.o(.ARM.Collect$$libshutdown$$00000009)
    .ARM.Collect$$libshutdown$$0000000B      0x08000166   Section        0  libshutdown2.o(.ARM.Collect$$libshutdown$$0000000B)
    .ARM.Collect$$libshutdown$$0000000E      0x08000166   Section        0  libshutdown2.o(.ARM.Collect$$libshutdown$$0000000E)
    .ARM.Collect$$libshutdown$$0000000F      0x08000166   Section        2  libshutdown2.o(.ARM.Collect$$libshutdown$$0000000F)
    .ARM.Collect$$rtentry$$00000000          0x08000168   Section        0  rtentry.o(.ARM.Collect$$rtentry$$00000000)
    .ARM.Collect$$rtentry$$00000002          0x08000168   Section        0  rtentry2.o(.ARM.Collect$$rtentry$$00000002)
    .ARM.Collect$$rtentry$$00000004          0x08000168   Section        6  rtentry4.o(.ARM.Collect$$rtentry$$00000004)
    .ARM.Collect$$rtentry$$00000009          0x0800016e   Section        0  rtentry2.o(.ARM.Collect$$rtentry$$00000009)
    .ARM.Collect$$rtentry$$0000000A          0x0800016e   Section        4  rtentry2.o(.ARM.Collect$$rtentry$$0000000A)
    .ARM.Collect$$rtentry$$0000000C          0x08000172   Section        0  rtentry2.o(.ARM.Collect$$rtentry$$0000000C)
    .ARM.Collect$$rtentry$$0000000D          0x08000172   Section        8  rtentry2.o(.ARM.Collect$$rtentry$$0000000D)
    .ARM.Collect$$rtexit$$00000000           0x0800017a   Section        2  rtexit.o(.ARM.Collect$$rtexit$$00000000)
    .ARM.Collect$$rtexit$$00000002           0x0800017c   Section        0  rtexit2.o(.ARM.Collect$$rtexit$$00000002)
    .ARM.Collect$$rtexit$$00000003           0x0800017c   Section        4  rtexit2.o(.ARM.Collect$$rtexit$$00000003)
    .ARM.Collect$$rtexit$$00000004           0x08000180   Section        6  rtexit2.o(.ARM.Collect$$rtexit$$00000004)
    .emb_text                                0x08000188   Section       12  sys.o(.emb_text)
    .text                                    0x08000194   Section        0  stm32f10x_it.o(.text)
    .text                                    0x080001b0   Section        0  system_stm32f10x.o(.text)
    SetSysClockTo72                          0x080001b1   Thumb Code   214  system_stm32f10x.o(.text)
    SetSysClock                              0x08000287   Thumb Code     8  system_stm32f10x.o(.text)
    .text                                    0x08000390   Section        0  minibalance.o(.text)
    .text                                    0x08000454   Section       64  startup_stm32f10x_md.o(.text)
    .text                                    0x08000494   Section        0  misc.o(.text)
    .text                                    0x08000570   Section        0  stm32f10x_adc.o(.text)
    .text                                    0x080009c0   Section        0  stm32f10x_bkp.o(.text)
    .text                                    0x08000a84   Section        0  stm32f10x_exti.o(.text)
    .text                                    0x08000ba0   Section        0  stm32f10x_gpio.o(.text)
    .text                                    0x08000efc   Section        0  stm32f10x_pwr.o(.text)
    .text                                    0x08000fc8   Section        0  stm32f10x_rcc.o(.text)
    .text                                    0x0800136c   Section        0  stm32f10x_tim.o(.text)
    TI4_Config                               0x08001813   Thumb Code   130  stm32f10x_tim.o(.text)
    TI3_Config                               0x080018a7   Thumb Code   122  stm32f10x_tim.o(.text)
    TI2_Config                               0x0800193b   Thumb Code   130  stm32f10x_tim.o(.text)
    TI1_Config                               0x080019cf   Thumb Code   108  stm32f10x_tim.o(.text)
    .text                                    0x08002188   Section        0  stm32f10x_usart.o(.text)
    .text                                    0x08002590   Section        0  delay.o(.text)
    .text                                    0x08002664   Section        0  sys.o(.text)
    .text                                    0x08002920   Section        0  usart.o(.text)
    .text                                    0x080029c4   Section        0  led.o(.text)
    .text                                    0x08002a24   Section        0  key.o(.text)
    .text                                    0x08002c14   Section        0  oled.o(.text)
    .text                                    0x08003064   Section        0  adc.o(.text)
    .text                                    0x08003120   Section        0  timer.o(.text)
    .text                                    0x0800317c   Section        0  motor.o(.text)
    .text                                    0x0800322c   Section        0  usart3.o(.text)
    .text                                    0x080032e0   Section        0  pstwo.o(.text)
    .text                                    0x08003704   Section        0  exti.o(.text)
    .text                                    0x080037bc   Section        0  control.o(.text)
    .text                                    0x080040e8   Section        0  show.o(.text)
    .text                                    0x08004420   Section        0  datascope_dp.o(.text)
    .text                                    0x08004574   Section        2  use_no_semi_2.o(.text)
    .text                                    0x08004576   Section        0  heapauxi.o(.text)
    .text                                    0x0800457c   Section        2  use_no_semi.o(.text)
    .text                                    0x0800457e   Section        0  _rserrno.o(.text)
    .text                                    0x08004594   Section        8  rt_errno_addr_intlibspace.o(.text)
    .text                                    0x0800459c   Section        8  libspace.o(.text)
    .text                                    0x080045a4   Section       74  sys_stackheap_outer.o(.text)
    .text                                    0x080045ee   Section        0  exit.o(.text)
    i.__ARM_fpclassify                       0x080045fa   Section        0  fpclassify.o(i.__ARM_fpclassify)
    i.__ieee754_rem_pio2                     0x08004624   Section        0  rred.o(i.__ieee754_rem_pio2)
    i.__kernel_cos                           0x080049ac   Section        0  cos_i.o(i.__kernel_cos)
    i.__kernel_poly                          0x08004aa8   Section        0  poly.o(i.__kernel_poly)
    i.__kernel_sin                           0x08004b54   Section        0  sin_i.o(i.__kernel_sin)
    i.__mathlib_dbl_underflow                0x08004c40   Section        0  dunder.o(i.__mathlib_dbl_underflow)
    i.cos                                    0x08004c50   Section        0  cos.o(i.cos)
    i.sin                                    0x08004cfc   Section        0  sin.o(i.sin)
    x$fpl$d2f                                0x08004dac   Section       98  d2f.o(x$fpl$d2f)
    x$fpl$dadd                               0x08004e10   Section      336  daddsub_clz.o(x$fpl$dadd)
    _dadd1                                   0x08004e21   Thumb Code     0  daddsub_clz.o(x$fpl$dadd)
    x$fpl$dcheck1                            0x08004f60   Section       16  dcheck1.o(x$fpl$dcheck1)
    x$fpl$dcmpinf                            0x08004f70   Section       24  dcmpi.o(x$fpl$dcmpinf)
    x$fpl$ddiv                               0x08004f88   Section      688  ddiv.o(x$fpl$ddiv)
    ddiv_entry                               0x08004f8f   Thumb Code     0  ddiv.o(x$fpl$ddiv)
    x$fpl$dfix                               0x08005238   Section       94  dfix.o(x$fpl$dfix)
    x$fpl$dflt                               0x08005296   Section       46  dflt_clz.o(x$fpl$dflt)
    x$fpl$dfltu                              0x080052c4   Section       38  dflt_clz.o(x$fpl$dfltu)
    x$fpl$dleqf                              0x080052ec   Section      120  dleqf.o(x$fpl$dleqf)
    x$fpl$dmul                               0x08005364   Section      340  dmul.o(x$fpl$dmul)
    x$fpl$dnaninf                            0x080054b8   Section      156  dnaninf.o(x$fpl$dnaninf)
    x$fpl$dretinf                            0x08005554   Section       12  dretinf.o(x$fpl$dretinf)
    x$fpl$drsb                               0x08005560   Section       22  daddsub_clz.o(x$fpl$drsb)
    x$fpl$dsub                               0x08005578   Section      468  daddsub_clz.o(x$fpl$dsub)
    _dsub1                                   0x08005589   Thumb Code     0  daddsub_clz.o(x$fpl$dsub)
    x$fpl$f2d                                0x0800574c   Section       86  f2d.o(x$fpl$f2d)
    x$fpl$fadd                               0x080057a4   Section      196  faddsub_clz.o(x$fpl$fadd)
    _fadd1                                   0x080057b3   Thumb Code     0  faddsub_clz.o(x$fpl$fadd)
    x$fpl$fcmpinf                            0x08005868   Section       24  fcmpi.o(x$fpl$fcmpinf)
    x$fpl$fdiv                               0x08005880   Section      388  fdiv.o(x$fpl$fdiv)
    _fdiv1                                   0x08005881   Thumb Code     0  fdiv.o(x$fpl$fdiv)
    x$fpl$ffix                               0x08005a04   Section       54  ffix.o(x$fpl$ffix)
    x$fpl$ffixu                              0x08005a3c   Section       62  ffixu.o(x$fpl$ffixu)
    x$fpl$fflt                               0x08005a7c   Section       48  fflt_clz.o(x$fpl$fflt)
    x$fpl$fleqf                              0x08005aac   Section      104  fleqf.o(x$fpl$fleqf)
    x$fpl$fmul                               0x08005b14   Section      258  fmul.o(x$fpl$fmul)
    x$fpl$fnaninf                            0x08005c16   Section      140  fnaninf.o(x$fpl$fnaninf)
    x$fpl$fretinf                            0x08005ca2   Section       10  fretinf.o(x$fpl$fretinf)
    x$fpl$frleqf                             0x08005cac   Section       98  frleqf.o(x$fpl$frleqf)
    x$fpl$fsub                               0x08005d10   Section      234  faddsub_clz.o(x$fpl$fsub)
    _fsub1                                   0x08005d1f   Thumb Code     0  faddsub_clz.o(x$fpl$fsub)
    x$fpl$retnan                             0x08005dfa   Section      100  retnan.o(x$fpl$retnan)
    x$fpl$scalbn                             0x08005e5e   Section       92  scalbn.o(x$fpl$scalbn)
    x$fpl$trapveneer                         0x08005eba   Section       48  trapv.o(x$fpl$trapveneer)
    .constdata                               0x08005eea   Section     2660  oled.o(.constdata)
    x$fpl$usenofp                            0x08005eea   Section        0  usenofp.o(x$fpl$usenofp)
    .constdata                               0x08006950   Section       48  cos_i.o(.constdata)
    C                                        0x08006950   Data          48  cos_i.o(.constdata)
    .constdata                               0x08006980   Section      200  rred.o(.constdata)
    pio2s                                    0x08006980   Data          48  rred.o(.constdata)
    twooverpi                                0x080069b0   Data         152  rred.o(.constdata)
    .constdata                               0x08006a48   Section       40  sin_i.o(.constdata)
    S                                        0x08006a48   Data          40  sin_i.o(.constdata)
    .data                                    0x20000000   Section       20  system_stm32f10x.o(.data)
    .data                                    0x20000014   Section       72  minibalance.o(.data)
    .data                                    0x2000005c   Section       20  stm32f10x_rcc.o(.data)
    APBAHBPrescTable                         0x2000005c   Data          16  stm32f10x_rcc.o(.data)
    ADCPrescTable                            0x2000006c   Data           4  stm32f10x_rcc.o(.data)
    .data                                    0x20000070   Section        4  delay.o(.data)
    fac_us                                   0x20000070   Data           1  delay.o(.data)
    fac_ms                                   0x20000072   Data           2  delay.o(.data)
    .data                                    0x20000074   Section        4  led.o(.data)
    temp                                     0x20000074   Data           4  led.o(.data)
    .data                                    0x20000078   Section       14  key.o(.data)
    flag_key                                 0x20000078   Data           1  key.o(.data)
    count_key                                0x20000079   Data           1  key.o(.data)
    double_key                               0x2000007a   Data           1  key.o(.data)
    count_single                             0x2000007c   Data           2  key.o(.data)
    Forever_count                            0x2000007e   Data           2  key.o(.data)
    flag_key                                 0x20000080   Data           1  key.o(.data)
    Long_Press_count                         0x20000082   Data           2  key.o(.data)
    Long_Press                               0x20000084   Data           2  key.o(.data)
    .data                                    0x20000086   Section       36  pstwo.o(.data)
    .data                                    0x200000ac   Section       24  control.o(.data)
    Last_Bias                                0x200000b8   Data           4  control.o(.data)
    Last_Bias                                0x200000bc   Data           4  control.o(.data)
    count                                    0x200000c0   Data           4  control.o(.data)
    .data                                    0x200000c4   Section        8  show.o(.data)
    .bss                                     0x200000cc   Section     1024  oled.o(.bss)
    .bss                                     0x200004cc   Section        9  pstwo.o(.bss)
    .bss                                     0x200004d5   Section       42  datascope_dp.o(.bss)
    .bss                                     0x20000500   Section       96  libspace.o(.bss)
    HEAP                                     0x20000560   Section      512  startup_stm32f10x_md.o(HEAP)
    Heap_Mem                                 0x20000560   Data         512  startup_stm32f10x_md.o(HEAP)
    STACK                                    0x20000760   Section     1024  startup_stm32f10x_md.o(STACK)
    Stack_Mem                                0x20000760   Data        1024  startup_stm32f10x_md.o(STACK)
    __initial_sp                             0x20000b60   Data           0  startup_stm32f10x_md.o(STACK)

    Global Symbols

    Symbol Name                              Value     Ov Type        Size  Object(Section)

    BuildAttributes$$THM_ISAv4$P$D$K$B$S$PE$A:L22UL41UL21$X:L11$S22US41US21$IEEE1$IW$USESV6$~STKCKD$USESV7$~SHL$OTIME$ROPI$IEEEX$EBA8$UX$STANDARDLIB$REQ8$PRES8$EABIv2 0x00000000   Number         0  anon$$obj.o ABSOLUTE
    __ARM_use_no_argv                        0x00000000   Number         0  minibalance.o ABSOLUTE
    __ARM_exceptions_init                     - Undefined Weak Reference
    __alloca_initialize                       - Undefined Weak Reference
    __cpp_initialize__aeabi_                  - Undefined Weak Reference
    __cxa_finalize                            - Undefined Weak Reference
    __rt_locale                               - Undefined Weak Reference
    __sigvec_lookup                           - Undefined Weak Reference
    _atexit_init                              - Undefined Weak Reference
    _call_atexit_fns                          - Undefined Weak Reference
    _clock_init                               - Undefined Weak Reference
    _fp_trap_init                             - Undefined Weak Reference
    _fp_trap_shutdown                         - Undefined Weak Reference
    _get_lc_collate                           - Undefined Weak Reference
    _get_lc_ctype                             - Undefined Weak Reference
    _get_lc_monetary                          - Undefined Weak Reference
    _get_lc_numeric                           - Undefined Weak Reference
    _get_lc_time                              - Undefined Weak Reference
    _getenv_init                              - Undefined Weak Reference
    _handle_redirection                       - Undefined Weak Reference
    _init_alloc                               - Undefined Weak Reference
    _init_user_alloc                          - Undefined Weak Reference
    _initio                                   - Undefined Weak Reference
    _rand_init                                - Undefined Weak Reference
    _signal_finish                            - Undefined Weak Reference
    _signal_init                              - Undefined Weak Reference
    _terminate_alloc                          - Undefined Weak Reference
    _terminate_user_alloc                     - Undefined Weak Reference
    _terminateio                              - Undefined Weak Reference
    __Vectors_Size                           0x000000ec   Number         0  startup_stm32f10x_md.o ABSOLUTE
    __Vectors                                0x08000000   Data           4  startup_stm32f10x_md.o(RESET)
    __Vectors_End                            0x080000ec   Data           0  startup_stm32f10x_md.o(RESET)
    __main                                   0x080000ed   Thumb Code     8  __main.o(!!!main)
    __scatterload                            0x080000f5   Thumb Code     0  __scatter.o(!!!scatter)
    __scatterload_rt2                        0x080000f5   Thumb Code    44  __scatter.o(!!!scatter)
    __scatterload_rt2_thumb_only             0x080000f5   Thumb Code     0  __scatter.o(!!!scatter)
    __scatterload_null                       0x08000103   Thumb Code     0  __scatter.o(!!!scatter)
    __scatterload_copy                       0x08000129   Thumb Code    26  __scatter_copy.o(!!handler_copy)
    __scatterload_zeroinit                   0x08000145   Thumb Code    28  __scatter_zi.o(!!handler_zi)
    __rt_lib_init                            0x08000161   Thumb Code     0  libinit.o(.ARM.Collect$$libinit$$00000000)
    __rt_lib_init_alloca_1                   0x08000163   Thumb Code     0  libinit2.o(.ARM.Collect$$libinit$$0000002C)
    __rt_lib_init_argv_1                     0x08000163   Thumb Code     0  libinit2.o(.ARM.Collect$$libinit$$0000002A)
    __rt_lib_init_atexit_1                   0x08000163   Thumb Code     0  libinit2.o(.ARM.Collect$$libinit$$00000019)
    __rt_lib_init_clock_1                    0x08000163   Thumb Code     0  libinit2.o(.ARM.Collect$$libinit$$0000001F)
    __rt_lib_init_cpp_1                      0x08000163   Thumb Code     0  libinit2.o(.ARM.Collect$$libinit$$00000030)
    __rt_lib_init_exceptions_1               0x08000163   Thumb Code     0  libinit2.o(.ARM.Collect$$libinit$$0000002E)
    __rt_lib_init_fp_1                       0x08000163   Thumb Code     0  libinit2.o(.ARM.Collect$$libinit$$00000002)
    __rt_lib_init_fp_trap_1                  0x08000163   Thumb Code     0  libinit2.o(.ARM.Collect$$libinit$$0000001D)
    __rt_lib_init_getenv_1                   0x08000163   Thumb Code     0  libinit2.o(.ARM.Collect$$libinit$$00000021)
    __rt_lib_init_heap_1                     0x08000163   Thumb Code     0  libinit2.o(.ARM.Collect$$libinit$$00000008)
    __rt_lib_init_lc_collate_1               0x08000163   Thumb Code     0  libinit2.o(.ARM.Collect$$libinit$$0000000F)
    __rt_lib_init_lc_ctype_1                 0x08000163   Thumb Code     0  libinit2.o(.ARM.Collect$$libinit$$00000011)
    __rt_lib_init_lc_monetary_1              0x08000163   Thumb Code     0  libinit2.o(.ARM.Collect$$libinit$$00000013)
    __rt_lib_init_lc_numeric_1               0x08000163   Thumb Code     0  libinit2.o(.ARM.Collect$$libinit$$00000015)
    __rt_lib_init_lc_time_1                  0x08000163   Thumb Code     0  libinit2.o(.ARM.Collect$$libinit$$00000017)
    __rt_lib_init_rand_1                     0x08000163   Thumb Code     0  libinit2.o(.ARM.Collect$$libinit$$0000000C)
    __rt_lib_init_return                     0x08000163   Thumb Code     0  libinit2.o(.ARM.Collect$$libinit$$00000031)
    __rt_lib_init_signal_1                   0x08000163   Thumb Code     0  libinit2.o(.ARM.Collect$$libinit$$0000001B)
    __rt_lib_init_stdio_1                    0x08000163   Thumb Code     0  libinit2.o(.ARM.Collect$$libinit$$00000023)
    __rt_lib_init_user_alloc_1               0x08000163   Thumb Code     0  libinit2.o(.ARM.Collect$$libinit$$0000000A)
    __rt_lib_shutdown                        0x08000165   Thumb Code     0  libshutdown.o(.ARM.Collect$$libshutdown$$00000000)
    __rt_lib_shutdown_fp_trap_1              0x08000167   Thumb Code     0  libshutdown2.o(.ARM.Collect$$libshutdown$$00000006)
    __rt_lib_shutdown_heap_1                 0x08000167   Thumb Code     0  libshutdown2.o(.ARM.Collect$$libshutdown$$0000000E)
    __rt_lib_shutdown_return                 0x08000167   Thumb Code     0  libshutdown2.o(.ARM.Collect$$libshutdown$$0000000F)
    __rt_lib_shutdown_signal_1               0x08000167   Thumb Code     0  libshutdown2.o(.ARM.Collect$$libshutdown$$00000009)
    __rt_lib_shutdown_stdio_1                0x08000167   Thumb Code     0  libshutdown2.o(.ARM.Collect$$libshutdown$$00000003)
    __rt_lib_shutdown_user_alloc_1           0x08000167   Thumb Code     0  libshutdown2.o(.ARM.Collect$$libshutdown$$0000000B)
    __rt_entry                               0x08000169   Thumb Code     0  rtentry.o(.ARM.Collect$$rtentry$$00000000)
    __rt_entry_presh_1                       0x08000169   Thumb Code     0  rtentry2.o(.ARM.Collect$$rtentry$$00000002)
    __rt_entry_sh                            0x08000169   Thumb Code     0  rtentry4.o(.ARM.Collect$$rtentry$$00000004)
    __rt_entry_li                            0x0800016f   Thumb Code     0  rtentry2.o(.ARM.Collect$$rtentry$$0000000A)
    __rt_entry_postsh_1                      0x0800016f   Thumb Code     0  rtentry2.o(.ARM.Collect$$rtentry$$00000009)
    __rt_entry_main                          0x08000173   Thumb Code     0  rtentry2.o(.ARM.Collect$$rtentry$$0000000D)
    __rt_entry_postli_1                      0x08000173   Thumb Code     0  rtentry2.o(.ARM.Collect$$rtentry$$0000000C)
    __rt_exit                                0x0800017b   Thumb Code     0  rtexit.o(.ARM.Collect$$rtexit$$00000000)
    __rt_exit_ls                             0x0800017d   Thumb Code     0  rtexit2.o(.ARM.Collect$$rtexit$$00000003)
    __rt_exit_prels_1                        0x0800017d   Thumb Code     0  rtexit2.o(.ARM.Collect$$rtexit$$00000002)
    __rt_exit_exit                           0x08000181   Thumb Code     0  rtexit2.o(.ARM.Collect$$rtexit$$00000004)
    WFI_SET                                  0x08000189   Thumb Code     2  sys.o(.emb_text)
    INTX_DISABLE                             0x0800018b   Thumb Code     2  sys.o(.emb_text)
    INTX_ENABLE                              0x0800018d   Thumb Code     2  sys.o(.emb_text)
    MSR_MSP                                  0x0800018f   Thumb Code     6  sys.o(.emb_text)
    NMI_Handler                              0x08000195   Thumb Code     2  stm32f10x_it.o(.text)
    HardFault_Handler                        0x08000197   Thumb Code     4  stm32f10x_it.o(.text)
    MemManage_Handler                        0x0800019b   Thumb Code     4  stm32f10x_it.o(.text)
    BusFault_Handler                         0x0800019f   Thumb Code     4  stm32f10x_it.o(.text)
    UsageFault_Handler                       0x080001a3   Thumb Code     4  stm32f10x_it.o(.text)
    SVC_Handler                              0x080001a7   Thumb Code     2  stm32f10x_it.o(.text)
    DebugMon_Handler                         0x080001a9   Thumb Code     2  stm32f10x_it.o(.text)
    PendSV_Handler                           0x080001ab   Thumb Code     2  stm32f10x_it.o(.text)
    SysTick_Handler                          0x080001ad   Thumb Code     2  stm32f10x_it.o(.text)
    SystemInit                               0x0800028f   Thumb Code    78  system_stm32f10x.o(.text)
    SystemCoreClockUpdate                    0x080002dd   Thumb Code   142  system_stm32f10x.o(.text)
    main                                     0x08000391   Thumb Code   166  minibalance.o(.text)
    Reset_Handler                            0x08000455   Thumb Code     8  startup_stm32f10x_md.o(.text)
    ADC1_2_IRQHandler                        0x0800046f   Thumb Code     0  startup_stm32f10x_md.o(.text)
    CAN1_RX1_IRQHandler                      0x0800046f   Thumb Code     0  startup_stm32f10x_md.o(.text)
    CAN1_SCE_IRQHandler                      0x0800046f   Thumb Code     0  startup_stm32f10x_md.o(.text)
    DMA1_Channel1_IRQHandler                 0x0800046f   Thumb Code     0  startup_stm32f10x_md.o(.text)
    DMA1_Channel2_IRQHandler                 0x0800046f   Thumb Code     0  startup_stm32f10x_md.o(.text)
    DMA1_Channel3_IRQHandler                 0x0800046f   Thumb Code     0  startup_stm32f10x_md.o(.text)
    DMA1_Channel4_IRQHandler                 0x0800046f   Thumb Code     0  startup_stm32f10x_md.o(.text)
    DMA1_Channel5_IRQHandler                 0x0800046f   Thumb Code     0  startup_stm32f10x_md.o(.text)
    DMA1_Channel6_IRQHandler                 0x0800046f   Thumb Code     0  startup_stm32f10x_md.o(.text)
    DMA1_Channel7_IRQHandler                 0x0800046f   Thumb Code     0  startup_stm32f10x_md.o(.text)
    EXTI0_IRQHandler                         0x0800046f   Thumb Code     0  startup_stm32f10x_md.o(.text)
    EXTI15_10_IRQHandler                     0x0800046f   Thumb Code     0  startup_stm32f10x_md.o(.text)
    EXTI1_IRQHandler                         0x0800046f   Thumb Code     0  startup_stm32f10x_md.o(.text)
    EXTI2_IRQHandler                         0x0800046f   Thumb Code     0  startup_stm32f10x_md.o(.text)
    EXTI4_IRQHandler                         0x0800046f   Thumb Code     0  startup_stm32f10x_md.o(.text)
    EXTI9_5_IRQHandler                       0x0800046f   Thumb Code     0  startup_stm32f10x_md.o(.text)
    FLASH_IRQHandler                         0x0800046f   Thumb Code     0  startup_stm32f10x_md.o(.text)
    I2C1_ER_IRQHandler                       0x0800046f   Thumb Code     0  startup_stm32f10x_md.o(.text)
    I2C1_EV_IRQHandler                       0x0800046f   Thumb Code     0  startup_stm32f10x_md.o(.text)
    I2C2_ER_IRQHandler                       0x0800046f   Thumb Code     0  startup_stm32f10x_md.o(.text)
    I2C2_EV_IRQHandler                       0x0800046f   Thumb Code     0  startup_stm32f10x_md.o(.text)
    PVD_IRQHandler                           0x0800046f   Thumb Code     0  startup_stm32f10x_md.o(.text)
    RCC_IRQHandler                           0x0800046f   Thumb Code     0  startup_stm32f10x_md.o(.text)
    RTCAlarm_IRQHandler                      0x0800046f   Thumb Code     0  startup_stm32f10x_md.o(.text)
    RTC_IRQHandler                           0x0800046f   Thumb Code     0  startup_stm32f10x_md.o(.text)
    SPI1_IRQHandler                          0x0800046f   Thumb Code     0  startup_stm32f10x_md.o(.text)
    SPI2_IRQHandler                          0x0800046f   Thumb Code     0  startup_stm32f10x_md.o(.text)
    TAMPER_IRQHandler                        0x0800046f   Thumb Code     0  startup_stm32f10x_md.o(.text)
    TIM1_BRK_IRQHandler                      0x0800046f   Thumb Code     0  startup_stm32f10x_md.o(.text)
    TIM1_CC_IRQHandler                       0x0800046f   Thumb Code     0  startup_stm32f10x_md.o(.text)
    TIM1_TRG_COM_IRQHandler                  0x0800046f   Thumb Code     0  startup_stm32f10x_md.o(.text)
    TIM2_IRQHandler                          0x0800046f   Thumb Code     0  startup_stm32f10x_md.o(.text)
    TIM3_IRQHandler                          0x0800046f   Thumb Code     0  startup_stm32f10x_md.o(.text)
    TIM4_IRQHandler                          0x0800046f   Thumb Code     0  startup_stm32f10x_md.o(.text)
    USART1_IRQHandler                        0x0800046f   Thumb Code     0  startup_stm32f10x_md.o(.text)
    USART2_IRQHandler                        0x0800046f   Thumb Code     0  startup_stm32f10x_md.o(.text)
    USBWakeUp_IRQHandler                     0x0800046f   Thumb Code     0  startup_stm32f10x_md.o(.text)
    USB_HP_CAN1_TX_IRQHandler                0x0800046f   Thumb Code     0  startup_stm32f10x_md.o(.text)
    USB_LP_CAN1_RX0_IRQHandler               0x0800046f   Thumb Code     0  startup_stm32f10x_md.o(.text)
    WWDG_IRQHandler                          0x0800046f   Thumb Code     0  startup_stm32f10x_md.o(.text)
    __user_initial_stackheap                 0x08000471   Thumb Code     0  startup_stm32f10x_md.o(.text)
    NVIC_PriorityGroupConfig                 0x08000495   Thumb Code    10  misc.o(.text)
    NVIC_Init                                0x0800049f   Thumb Code   100  misc.o(.text)
    NVIC_SetVectorTable                      0x08000503   Thumb Code    14  misc.o(.text)
    NVIC_SystemLPConfig                      0x08000511   Thumb Code    34  misc.o(.text)
    SysTick_CLKSourceConfig                  0x08000533   Thumb Code    40  misc.o(.text)
    ADC_DeInit                               0x08000571   Thumb Code    78  stm32f10x_adc.o(.text)
    ADC_Init                                 0x080005bf   Thumb Code    70  stm32f10x_adc.o(.text)
    ADC_StructInit                           0x08000605   Thumb Code    18  stm32f10x_adc.o(.text)
    ADC_Cmd                                  0x08000617   Thumb Code    22  stm32f10x_adc.o(.text)
    ADC_DMACmd                               0x0800062d   Thumb Code    22  stm32f10x_adc.o(.text)
    ADC_ITConfig                             0x08000643   Thumb Code    24  stm32f10x_adc.o(.text)
    ADC_ResetCalibration                     0x0800065b   Thumb Code    10  stm32f10x_adc.o(.text)
    ADC_GetResetCalibrationStatus            0x08000665   Thumb Code    20  stm32f10x_adc.o(.text)
    ADC_StartCalibration                     0x08000679   Thumb Code    10  stm32f10x_adc.o(.text)
    ADC_GetCalibrationStatus                 0x08000683   Thumb Code    20  stm32f10x_adc.o(.text)
    ADC_SoftwareStartConvCmd                 0x08000697   Thumb Code    22  stm32f10x_adc.o(.text)
    ADC_GetSoftwareStartConvStatus           0x080006ad   Thumb Code    20  stm32f10x_adc.o(.text)
    ADC_DiscModeChannelCountConfig           0x080006c1   Thumb Code    24  stm32f10x_adc.o(.text)
    ADC_DiscModeCmd                          0x080006d9   Thumb Code    22  stm32f10x_adc.o(.text)
    ADC_RegularChannelConfig                 0x080006ef   Thumb Code   184  stm32f10x_adc.o(.text)
    ADC_ExternalTrigConvCmd                  0x080007a7   Thumb Code    22  stm32f10x_adc.o(.text)
    ADC_GetConversionValue                   0x080007bd   Thumb Code     8  stm32f10x_adc.o(.text)
    ADC_GetDualModeConversionValue           0x080007c5   Thumb Code     8  stm32f10x_adc.o(.text)
    ADC_AutoInjectedConvCmd                  0x080007cd   Thumb Code    22  stm32f10x_adc.o(.text)
    ADC_InjectedDiscModeCmd                  0x080007e3   Thumb Code    22  stm32f10x_adc.o(.text)
    ADC_ExternalTrigInjectedConvConfig       0x080007f9   Thumb Code    16  stm32f10x_adc.o(.text)
    ADC_ExternalTrigInjectedConvCmd          0x08000809   Thumb Code    22  stm32f10x_adc.o(.text)
    ADC_SoftwareStartInjectedConvCmd         0x0800081f   Thumb Code    22  stm32f10x_adc.o(.text)
    ADC_GetSoftwareStartInjectedConvCmdStatus 0x08000835   Thumb Code    20  stm32f10x_adc.o(.text)
    ADC_InjectedChannelConfig                0x08000849   Thumb Code   130  stm32f10x_adc.o(.text)
    ADC_InjectedSequencerLengthConfig        0x080008cb   Thumb Code    24  stm32f10x_adc.o(.text)
    ADC_SetInjectedOffset                    0x080008e3   Thumb Code    20  stm32f10x_adc.o(.text)
    ADC_GetInjectedConversionValue           0x080008f7   Thumb Code    28  stm32f10x_adc.o(.text)
    ADC_AnalogWatchdogCmd                    0x08000913   Thumb Code    16  stm32f10x_adc.o(.text)
    ADC_AnalogWatchdogThresholdsConfig       0x08000923   Thumb Code     6  stm32f10x_adc.o(.text)
    ADC_AnalogWatchdogSingleChannelConfig    0x08000929   Thumb Code    16  stm32f10x_adc.o(.text)
    ADC_TempSensorVrefintCmd                 0x08000939   Thumb Code    64  stm32f10x_adc.o(.text)
    ADC_GetFlagStatus                        0x08000979   Thumb Code    18  stm32f10x_adc.o(.text)
    ADC_ClearFlag                            0x0800098b   Thumb Code     6  stm32f10x_adc.o(.text)
    ADC_GetITStatus                          0x08000991   Thumb Code    36  stm32f10x_adc.o(.text)
    ADC_ClearITPendingBit                    0x080009b5   Thumb Code    10  stm32f10x_adc.o(.text)
    BKP_DeInit                               0x080009c1   Thumb Code    16  stm32f10x_bkp.o(.text)
    BKP_TamperPinLevelConfig                 0x080009d1   Thumb Code     6  stm32f10x_bkp.o(.text)
    BKP_TamperPinCmd                         0x080009d7   Thumb Code     8  stm32f10x_bkp.o(.text)
    BKP_ITConfig                             0x080009df   Thumb Code     8  stm32f10x_bkp.o(.text)
    BKP_RTCOutputConfig                      0x080009e7   Thumb Code    22  stm32f10x_bkp.o(.text)
    BKP_SetRTCCalibrationValue               0x080009fd   Thumb Code    22  stm32f10x_bkp.o(.text)
    BKP_WriteBackupRegister                  0x08000a13   Thumb Code    24  stm32f10x_bkp.o(.text)
    BKP_ReadBackupRegister                   0x08000a2b   Thumb Code    26  stm32f10x_bkp.o(.text)
    BKP_GetFlagStatus                        0x08000a45   Thumb Code    10  stm32f10x_bkp.o(.text)
    BKP_ClearFlag                            0x08000a4f   Thumb Code    18  stm32f10x_bkp.o(.text)
    BKP_GetITStatus                          0x08000a61   Thumb Code    10  stm32f10x_bkp.o(.text)
    BKP_ClearITPendingBit                    0x08000a6b   Thumb Code    18  stm32f10x_bkp.o(.text)
    EXTI_DeInit                              0x08000a85   Thumb Code    28  stm32f10x_exti.o(.text)
    EXTI_Init                                0x08000aa1   Thumb Code   142  stm32f10x_exti.o(.text)
    EXTI_StructInit                          0x08000b2f   Thumb Code    16  stm32f10x_exti.o(.text)
    EXTI_GenerateSWInterrupt                 0x08000b3f   Thumb Code    16  stm32f10x_exti.o(.text)
    EXTI_GetFlagStatus                       0x08000b4f   Thumb Code    22  stm32f10x_exti.o(.text)
    EXTI_ClearFlag                           0x08000b65   Thumb Code     8  stm32f10x_exti.o(.text)
    EXTI_GetITStatus                         0x08000b6d   Thumb Code    34  stm32f10x_exti.o(.text)
    EXTI_ClearITPendingBit                   0x08000b8f   Thumb Code     8  stm32f10x_exti.o(.text)
    GPIO_DeInit                              0x08000ba1   Thumb Code   172  stm32f10x_gpio.o(.text)
    GPIO_AFIODeInit                          0x08000c4d   Thumb Code    20  stm32f10x_gpio.o(.text)
    GPIO_Init                                0x08000c61   Thumb Code   278  stm32f10x_gpio.o(.text)
    GPIO_StructInit                          0x08000d77   Thumb Code    16  stm32f10x_gpio.o(.text)
    GPIO_ReadInputDataBit                    0x08000d87   Thumb Code    18  stm32f10x_gpio.o(.text)
    GPIO_ReadInputData                       0x08000d99   Thumb Code     8  stm32f10x_gpio.o(.text)
    GPIO_ReadOutputDataBit                   0x08000da1   Thumb Code    18  stm32f10x_gpio.o(.text)
    GPIO_ReadOutputData                      0x08000db3   Thumb Code     8  stm32f10x_gpio.o(.text)
    GPIO_SetBits                             0x08000dbb   Thumb Code     4  stm32f10x_gpio.o(.text)
    GPIO_ResetBits                           0x08000dbf   Thumb Code     4  stm32f10x_gpio.o(.text)
    GPIO_WriteBit                            0x08000dc3   Thumb Code    10  stm32f10x_gpio.o(.text)
    GPIO_Write                               0x08000dcd   Thumb Code     4  stm32f10x_gpio.o(.text)
    GPIO_PinLockConfig                       0x08000dd1   Thumb Code    18  stm32f10x_gpio.o(.text)
    GPIO_EventOutputConfig                   0x08000de3   Thumb Code    26  stm32f10x_gpio.o(.text)
    GPIO_EventOutputCmd                      0x08000dfd   Thumb Code     6  stm32f10x_gpio.o(.text)
    GPIO_PinRemapConfig                      0x08000e03   Thumb Code   138  stm32f10x_gpio.o(.text)
    GPIO_EXTILineConfig                      0x08000e8d   Thumb Code    66  stm32f10x_gpio.o(.text)
    GPIO_ETH_MediaInterfaceConfig            0x08000ecf   Thumb Code     8  stm32f10x_gpio.o(.text)
    PWR_DeInit                               0x08000efd   Thumb Code    22  stm32f10x_pwr.o(.text)
    PWR_BackupAccessCmd                      0x08000f13   Thumb Code     6  stm32f10x_pwr.o(.text)
    PWR_PVDCmd                               0x08000f19   Thumb Code     6  stm32f10x_pwr.o(.text)
    PWR_PVDLevelConfig                       0x08000f1f   Thumb Code    18  stm32f10x_pwr.o(.text)
    PWR_WakeUpPinCmd                         0x08000f31   Thumb Code     8  stm32f10x_pwr.o(.text)
    PWR_EnterSTOPMode                        0x08000f39   Thumb Code    54  stm32f10x_pwr.o(.text)
    PWR_EnterSTANDBYMode                     0x08000f6f   Thumb Code    42  stm32f10x_pwr.o(.text)
    PWR_GetFlagStatus                        0x08000f99   Thumb Code    20  stm32f10x_pwr.o(.text)
    PWR_ClearFlag                            0x08000fad   Thumb Code    14  stm32f10x_pwr.o(.text)
    RCC_DeInit                               0x08000fc9   Thumb Code    64  stm32f10x_rcc.o(.text)
    RCC_HSEConfig                            0x08001009   Thumb Code    70  stm32f10x_rcc.o(.text)
    RCC_GetFlagStatus                        0x0800104f   Thumb Code    56  stm32f10x_rcc.o(.text)
    RCC_WaitForHSEStartUp                    0x08001087   Thumb Code    56  stm32f10x_rcc.o(.text)
    RCC_AdjustHSICalibrationValue            0x080010bf   Thumb Code    20  stm32f10x_rcc.o(.text)
    RCC_HSICmd                               0x080010d3   Thumb Code     6  stm32f10x_rcc.o(.text)
    RCC_PLLConfig                            0x080010d9   Thumb Code    24  stm32f10x_rcc.o(.text)
    RCC_PLLCmd                               0x080010f1   Thumb Code     6  stm32f10x_rcc.o(.text)
    RCC_SYSCLKConfig                         0x080010f7   Thumb Code    18  stm32f10x_rcc.o(.text)
    RCC_GetSYSCLKSource                      0x08001109   Thumb Code    10  stm32f10x_rcc.o(.text)
    RCC_HCLKConfig                           0x08001113   Thumb Code    18  stm32f10x_rcc.o(.text)
    RCC_PCLK1Config                          0x08001125   Thumb Code    18  stm32f10x_rcc.o(.text)
    RCC_PCLK2Config                          0x08001137   Thumb Code    20  stm32f10x_rcc.o(.text)
    RCC_ITConfig                             0x0800114b   Thumb Code    26  stm32f10x_rcc.o(.text)
    RCC_USBCLKConfig                         0x08001165   Thumb Code     8  stm32f10x_rcc.o(.text)
    RCC_ADCCLKConfig                         0x0800116d   Thumb Code    18  stm32f10x_rcc.o(.text)
    RCC_LSEConfig                            0x0800117f   Thumb Code    50  stm32f10x_rcc.o(.text)
    RCC_LSICmd                               0x080011b1   Thumb Code     6  stm32f10x_rcc.o(.text)
    RCC_RTCCLKConfig                         0x080011b7   Thumb Code    12  stm32f10x_rcc.o(.text)
    RCC_RTCCLKCmd                            0x080011c3   Thumb Code     8  stm32f10x_rcc.o(.text)
    RCC_GetClocksFreq                        0x080011cb   Thumb Code   192  stm32f10x_rcc.o(.text)
    RCC_AHBPeriphClockCmd                    0x0800128b   Thumb Code    26  stm32f10x_rcc.o(.text)
    RCC_APB2PeriphClockCmd                   0x080012a5   Thumb Code    26  stm32f10x_rcc.o(.text)
    RCC_APB1PeriphClockCmd                   0x080012bf   Thumb Code    26  stm32f10x_rcc.o(.text)
    RCC_APB2PeriphResetCmd                   0x080012d9   Thumb Code    26  stm32f10x_rcc.o(.text)
    RCC_APB1PeriphResetCmd                   0x080012f3   Thumb Code    26  stm32f10x_rcc.o(.text)
    RCC_BackupResetCmd                       0x0800130d   Thumb Code     8  stm32f10x_rcc.o(.text)
    RCC_ClockSecuritySystemCmd               0x08001315   Thumb Code     6  stm32f10x_rcc.o(.text)
    RCC_MCOConfig                            0x0800131b   Thumb Code     6  stm32f10x_rcc.o(.text)
    RCC_ClearFlag                            0x08001321   Thumb Code    14  stm32f10x_rcc.o(.text)
    RCC_GetITStatus                          0x0800132f   Thumb Code    20  stm32f10x_rcc.o(.text)
    RCC_ClearITPendingBit                    0x08001343   Thumb Code     6  stm32f10x_rcc.o(.text)
    TIM_DeInit                               0x0800136d   Thumb Code   424  stm32f10x_tim.o(.text)
    TIM_TimeBaseInit                         0x08001515   Thumb Code   122  stm32f10x_tim.o(.text)
    TIM_OC1Init                              0x0800158f   Thumb Code   132  stm32f10x_tim.o(.text)
    TIM_OC2Init                              0x08001613   Thumb Code   154  stm32f10x_tim.o(.text)
    TIM_OC3Init                              0x080016ad   Thumb Code   150  stm32f10x_tim.o(.text)
    TIM_OC4Init                              0x08001743   Thumb Code   182  stm32f10x_tim.o(.text)
    TIM_SetIC4Prescaler                      0x080017f9   Thumb Code    26  stm32f10x_tim.o(.text)
    TIM_SetIC3Prescaler                      0x08001895   Thumb Code    18  stm32f10x_tim.o(.text)
    TIM_SetIC2Prescaler                      0x08001921   Thumb Code    26  stm32f10x_tim.o(.text)
    TIM_SetIC1Prescaler                      0x080019bd   Thumb Code    18  stm32f10x_tim.o(.text)
    TIM_ICInit                               0x08001a3b   Thumb Code   150  stm32f10x_tim.o(.text)
    TIM_PWMIConfig                           0x08001ad1   Thumb Code   124  stm32f10x_tim.o(.text)
    TIM_BDTRConfig                           0x08001b4d   Thumb Code    32  stm32f10x_tim.o(.text)
    TIM_TimeBaseStructInit                   0x08001b6d   Thumb Code    18  stm32f10x_tim.o(.text)
    TIM_OCStructInit                         0x08001b7f   Thumb Code    20  stm32f10x_tim.o(.text)
    TIM_ICStructInit                         0x08001b93   Thumb Code    18  stm32f10x_tim.o(.text)
    TIM_BDTRStructInit                       0x08001ba5   Thumb Code    40  stm32f10x_tim.o(.text)
    TIM_Cmd                                  0x08001bcd   Thumb Code    24  stm32f10x_tim.o(.text)
    TIM_CtrlPWMOutputs                       0x08001be5   Thumb Code    30  stm32f10x_tim.o(.text)
    TIM_ITConfig                             0x08001c03   Thumb Code    18  stm32f10x_tim.o(.text)
    TIM_GenerateEvent                        0x08001c15   Thumb Code     4  stm32f10x_tim.o(.text)
    TIM_DMAConfig                            0x08001c19   Thumb Code    10  stm32f10x_tim.o(.text)
    TIM_DMACmd                               0x08001c23   Thumb Code    18  stm32f10x_tim.o(.text)
    TIM_InternalClockConfig                  0x08001c35   Thumb Code    12  stm32f10x_tim.o(.text)
    TIM_SelectInputTrigger                   0x08001c41   Thumb Code    18  stm32f10x_tim.o(.text)
    TIM_ITRxExternalClockConfig              0x08001c53   Thumb Code    24  stm32f10x_tim.o(.text)
    TIM_TIxExternalClockConfig               0x08001c6b   Thumb Code    62  stm32f10x_tim.o(.text)
    TIM_ETRConfig                            0x08001ca9   Thumb Code    28  stm32f10x_tim.o(.text)
    TIM_ETRClockMode1Config                  0x08001cc5   Thumb Code    54  stm32f10x_tim.o(.text)
    TIM_ETRClockMode2Config                  0x08001cfb   Thumb Code    32  stm32f10x_tim.o(.text)
    TIM_PrescalerConfig                      0x08001d1b   Thumb Code     6  stm32f10x_tim.o(.text)
    TIM_CounterModeConfig                    0x08001d21   Thumb Code    18  stm32f10x_tim.o(.text)
    TIM_EncoderInterfaceConfig               0x08001d33   Thumb Code    66  stm32f10x_tim.o(.text)
    TIM_ForcedOC1Config                      0x08001d75   Thumb Code    18  stm32f10x_tim.o(.text)
    TIM_ForcedOC2Config                      0x08001d87   Thumb Code    26  stm32f10x_tim.o(.text)
    TIM_ForcedOC3Config                      0x08001da1   Thumb Code    18  stm32f10x_tim.o(.text)
    TIM_ForcedOC4Config                      0x08001db3   Thumb Code    26  stm32f10x_tim.o(.text)
    TIM_ARRPreloadConfig                     0x08001dcd   Thumb Code    24  stm32f10x_tim.o(.text)
    TIM_SelectCOM                            0x08001de5   Thumb Code    24  stm32f10x_tim.o(.text)
    TIM_SelectCCDMA                          0x08001dfd   Thumb Code    24  stm32f10x_tim.o(.text)
    TIM_CCPreloadControl                     0x08001e15   Thumb Code    24  stm32f10x_tim.o(.text)
    TIM_OC1PreloadConfig                     0x08001e2d   Thumb Code    18  stm32f10x_tim.o(.text)
    TIM_OC2PreloadConfig                     0x08001e3f   Thumb Code    26  stm32f10x_tim.o(.text)
    TIM_OC3PreloadConfig                     0x08001e59   Thumb Code    18  stm32f10x_tim.o(.text)
    TIM_OC4PreloadConfig                     0x08001e6b   Thumb Code    26  stm32f10x_tim.o(.text)
    TIM_OC1FastConfig                        0x08001e85   Thumb Code    18  stm32f10x_tim.o(.text)
    TIM_OC2FastConfig                        0x08001e97   Thumb Code    26  stm32f10x_tim.o(.text)
    TIM_OC3FastConfig                        0x08001eb1   Thumb Code    18  stm32f10x_tim.o(.text)
    TIM_OC4FastConfig                        0x08001ec3   Thumb Code    26  stm32f10x_tim.o(.text)
    TIM_ClearOC1Ref                          0x08001edd   Thumb Code    18  stm32f10x_tim.o(.text)
    TIM_ClearOC2Ref                          0x08001eef   Thumb Code    24  stm32f10x_tim.o(.text)
    TIM_ClearOC3Ref                          0x08001f07   Thumb Code    18  stm32f10x_tim.o(.text)
    TIM_ClearOC4Ref                          0x08001f19   Thumb Code    24  stm32f10x_tim.o(.text)
    TIM_OC1PolarityConfig                    0x08001f31   Thumb Code    18  stm32f10x_tim.o(.text)
    TIM_OC1NPolarityConfig                   0x08001f43   Thumb Code    18  stm32f10x_tim.o(.text)
    TIM_OC2PolarityConfig                    0x08001f55   Thumb Code    26  stm32f10x_tim.o(.text)
    TIM_OC2NPolarityConfig                   0x08001f6f   Thumb Code    26  stm32f10x_tim.o(.text)
    TIM_OC3PolarityConfig                    0x08001f89   Thumb Code    26  stm32f10x_tim.o(.text)
    TIM_OC3NPolarityConfig                   0x08001fa3   Thumb Code    26  stm32f10x_tim.o(.text)
    TIM_OC4PolarityConfig                    0x08001fbd   Thumb Code    26  stm32f10x_tim.o(.text)
    TIM_CCxCmd                               0x08001fd7   Thumb Code    30  stm32f10x_tim.o(.text)
    TIM_CCxNCmd                              0x08001ff5   Thumb Code    30  stm32f10x_tim.o(.text)
    TIM_SelectOCxM                           0x08002013   Thumb Code    82  stm32f10x_tim.o(.text)
    TIM_UpdateDisableConfig                  0x08002065   Thumb Code    24  stm32f10x_tim.o(.text)
    TIM_UpdateRequestConfig                  0x0800207d   Thumb Code    24  stm32f10x_tim.o(.text)
    TIM_SelectHallSensor                     0x08002095   Thumb Code    24  stm32f10x_tim.o(.text)
    TIM_SelectOnePulseMode                   0x080020ad   Thumb Code    18  stm32f10x_tim.o(.text)
    TIM_SelectOutputTrigger                  0x080020bf   Thumb Code    18  stm32f10x_tim.o(.text)
    TIM_SelectSlaveMode                      0x080020d1   Thumb Code    18  stm32f10x_tim.o(.text)
    TIM_SelectMasterSlaveMode                0x080020e3   Thumb Code    18  stm32f10x_tim.o(.text)
    TIM_SetCounter                           0x080020f5   Thumb Code     4  stm32f10x_tim.o(.text)
    TIM_SetAutoreload                        0x080020f9   Thumb Code     4  stm32f10x_tim.o(.text)
    TIM_SetCompare1                          0x080020fd   Thumb Code     4  stm32f10x_tim.o(.text)
    TIM_SetCompare2                          0x08002101   Thumb Code     4  stm32f10x_tim.o(.text)
    TIM_SetCompare3                          0x08002105   Thumb Code     4  stm32f10x_tim.o(.text)
    TIM_SetCompare4                          0x08002109   Thumb Code     6  stm32f10x_tim.o(.text)
    TIM_SetClockDivision                     0x0800210f   Thumb Code    18  stm32f10x_tim.o(.text)
    TIM_GetCapture1                          0x08002121   Thumb Code     6  stm32f10x_tim.o(.text)
    TIM_GetCapture2                          0x08002127   Thumb Code     6  stm32f10x_tim.o(.text)
    TIM_GetCapture3                          0x0800212d   Thumb Code     6  stm32f10x_tim.o(.text)
    TIM_GetCapture4                          0x08002133   Thumb Code     8  stm32f10x_tim.o(.text)
    TIM_GetCounter                           0x0800213b   Thumb Code     6  stm32f10x_tim.o(.text)
    TIM_GetPrescaler                         0x08002141   Thumb Code     6  stm32f10x_tim.o(.text)
    TIM_GetFlagStatus                        0x08002147   Thumb Code    18  stm32f10x_tim.o(.text)
    TIM_ClearFlag                            0x08002159   Thumb Code     6  stm32f10x_tim.o(.text)
    TIM_GetITStatus                          0x0800215f   Thumb Code    34  stm32f10x_tim.o(.text)
    TIM_ClearITPendingBit                    0x08002181   Thumb Code     6  stm32f10x_tim.o(.text)
    USART_DeInit                             0x08002189   Thumb Code   134  stm32f10x_usart.o(.text)
    USART_Init                               0x0800220f   Thumb Code   210  stm32f10x_usart.o(.text)
    USART_StructInit                         0x080022e1   Thumb Code    24  stm32f10x_usart.o(.text)
    USART_ClockInit                          0x080022f9   Thumb Code    34  stm32f10x_usart.o(.text)
    USART_ClockStructInit                    0x0800231b   Thumb Code    12  stm32f10x_usart.o(.text)
    USART_Cmd                                0x08002327   Thumb Code    24  stm32f10x_usart.o(.text)
    USART_ITConfig                           0x0800233f   Thumb Code    74  stm32f10x_usart.o(.text)
    USART_DMACmd                             0x08002389   Thumb Code    18  stm32f10x_usart.o(.text)
    USART_SetAddress                         0x0800239b   Thumb Code    18  stm32f10x_usart.o(.text)
    USART_WakeUpConfig                       0x080023ad   Thumb Code    18  stm32f10x_usart.o(.text)
    USART_ReceiverWakeUpCmd                  0x080023bf   Thumb Code    24  stm32f10x_usart.o(.text)
    USART_LINBreakDetectLengthConfig         0x080023d7   Thumb Code    18  stm32f10x_usart.o(.text)
    USART_LINCmd                             0x080023e9   Thumb Code    24  stm32f10x_usart.o(.text)
    USART_SendData                           0x08002401   Thumb Code     8  stm32f10x_usart.o(.text)
    USART_ReceiveData                        0x08002409   Thumb Code    10  stm32f10x_usart.o(.text)
    USART_SendBreak                          0x08002413   Thumb Code    10  stm32f10x_usart.o(.text)
    USART_SetGuardTime                       0x0800241d   Thumb Code    16  stm32f10x_usart.o(.text)
    USART_SetPrescaler                       0x0800242d   Thumb Code    16  stm32f10x_usart.o(.text)
    USART_SmartCardCmd                       0x0800243d   Thumb Code    24  stm32f10x_usart.o(.text)
    USART_SmartCardNACKCmd                   0x08002455   Thumb Code    24  stm32f10x_usart.o(.text)
    USART_HalfDuplexCmd                      0x0800246d   Thumb Code    24  stm32f10x_usart.o(.text)
    USART_OverSampling8Cmd                   0x08002485   Thumb Code    22  stm32f10x_usart.o(.text)
    USART_OneBitMethodCmd                    0x0800249b   Thumb Code    24  stm32f10x_usart.o(.text)
    USART_IrDAConfig                         0x080024b3   Thumb Code    18  stm32f10x_usart.o(.text)
    USART_IrDACmd                            0x080024c5   Thumb Code    24  stm32f10x_usart.o(.text)
    USART_GetFlagStatus                      0x080024dd   Thumb Code    26  stm32f10x_usart.o(.text)
    USART_ClearFlag                          0x080024f7   Thumb Code    18  stm32f10x_usart.o(.text)
    USART_GetITStatus                        0x08002509   Thumb Code    84  stm32f10x_usart.o(.text)
    USART_ClearITPendingBit                  0x0800255d   Thumb Code    52  stm32f10x_usart.o(.text)
    delay_init                               0x08002591   Thumb Code    50  delay.o(.text)
    delay_us                                 0x080025c3   Thumb Code    72  delay.o(.text)
    delay_ms                                 0x0800260b   Thumb Code    72  delay.o(.text)
    MY_NVIC_SetVectorTable                   0x08002665   Thumb Code    12  sys.o(.text)
    MY_NVIC_PriorityGroupConfig              0x08002671   Thumb Code    36  sys.o(.text)
    MY_NVIC_Init                             0x08002695   Thumb Code   116  sys.o(.text)
    Ex_NVIC_Config                           0x08002709   Thumb Code   146  sys.o(.text)
    MYRCC_DeInit                             0x0800279b   Thumb Code    90  sys.o(.text)
    Sys_Standby                              0x080027f5   Thumb Code    68  sys.o(.text)
    Sys_Soft_Reset                           0x08002839   Thumb Code    12  sys.o(.text)
    JTAG_Set                                 0x08002845   Thumb Code    42  sys.o(.text)
    Stm32_Clock_Init                         0x0800286f   Thumb Code   134  sys.o(.text)
    _sys_exit                                0x08002921   Thumb Code     6  usart.o(.text)
    fputc                                    0x08002927   Thumb Code    24  usart.o(.text)
    uart_init                                0x0800293f   Thumb Code   124  usart.o(.text)
    LED_Init                                 0x080029c5   Thumb Code    36  led.o(.text)
    Led_Flash                                0x080029e9   Thumb Code    44  led.o(.text)
    KEY_Init                                 0x08002a25   Thumb Code    32  key.o(.text)
    click_N_Double                           0x08002a45   Thumb Code   184  key.o(.text)
    click                                    0x08002afd   Thumb Code   162  key.o(.text)
    Long_Press                               0x08002b9f   Thumb Code    72  key.o(.text)
    OLED_WR_Byte                             0x08002c15   Thumb Code    78  oled.o(.text)
    OLED_Refresh_Gram                        0x08002c63   Thumb Code    70  oled.o(.text)
    OLED_Display_On                          0x08002ca9   Thumb Code    28  oled.o(.text)
    OLED_Display_Off                         0x08002cc5   Thumb Code    28  oled.o(.text)
    OLED_Clear                               0x08002ce1   Thumb Code    42  oled.o(.text)
    OLED_DrawPoint                           0x08002d0b   Thumb Code   100  oled.o(.text)
    OLED_ShowChar                            0x08002d6f   Thumb Code   158  oled.o(.text)
    oled_pow                                 0x08002e0d   Thumb Code    22  oled.o(.text)
    OLED_ShowNumber                          0x08002e23   Thumb Code   148  oled.o(.text)
    OLED_ShowString                          0x08002eb7   Thumb Code    68  oled.o(.text)
    OLED_Init                                0x08002efb   Thumb Code   360  oled.o(.text)
    Adc_Init                                 0x08003065   Thumb Code   132  adc.o(.text)
    Get_Adc                                  0x080030e9   Thumb Code    46  adc.o(.text)
    TIM1_Int_Init                            0x08003121   Thumb Code    88  timer.o(.text)
    TIM4_PWM_Init                            0x0800317d   Thumb Code   168  motor.o(.text)
    uart3_init                               0x0800322d   Thumb Code   158  usart3.o(.text)
    USART3_IRQHandler                        0x080032cb   Thumb Code    14  usart3.o(.text)
    PS2_Init                                 0x080032e1   Thumb Code    70  pstwo.o(.text)
    PS2_Cmd                                  0x08003327   Thumb Code   128  pstwo.o(.text)
    PS2_RedLight                             0x080033a7   Thumb Code    50  pstwo.o(.text)
    PS2_ReadData                             0x080033d9   Thumb Code   166  pstwo.o(.text)
    PS2_ClearData                            0x0800347f   Thumb Code    20  pstwo.o(.text)
    PS2_DataKey                              0x08003493   Thumb Code    70  pstwo.o(.text)
    PS2_AnologData                           0x080034d9   Thumb Code     8  pstwo.o(.text)
    PS2_Vibration                            0x080034e1   Thumb Code    90  pstwo.o(.text)
    PS2_ShortPoll                            0x0800353b   Thumb Code    62  pstwo.o(.text)
    PS2_EnterConfing                         0x08003579   Thumb Code    86  pstwo.o(.text)
    PS2_TurnOnAnalogMode                     0x080035cf   Thumb Code    80  pstwo.o(.text)
    PS2_VibrationMode                        0x0800361f   Thumb Code    62  pstwo.o(.text)
    PS2_ExitConfing                          0x0800365d   Thumb Code    86  pstwo.o(.text)
    PS2_SetInit                              0x080036b3   Thumb Code    82  pstwo.o(.text)
    Screen_Init                              0x08003705   Thumb Code    40  exti.o(.text)
    MiniBalance_EXTI_Init                    0x0800372d   Thumb Code   102  exti.o(.text)
    EXTI3_IRQHandler                         0x08003793   Thumb Code    20  exti.o(.text)
    Key                                      0x080037bd   Thumb Code    32  control.o(.text)
    Set_Pwm                                  0x080037dd   Thumb Code    18  control.o(.text)
    balanceY                                 0x080037ef   Thumb Code    94  control.o(.text)
    balanceX                                 0x0800384d   Thumb Code    94  control.o(.text)
    Adjust                                   0x080038ab   Thumb Code   164  control.o(.text)
    Setting_Move                             0x0800394f   Thumb Code  1086  control.o(.text)
    Get_RC                                   0x08003d8d   Thumb Code   190  control.o(.text)
    TIM1_UP_IRQHandler                       0x08003e4b   Thumb Code   648  control.o(.text)
    myabs                                    0x080040d3   Thumb Code    14  control.o(.text)
    oled_show                                0x080040e9   Thumb Code   588  show.o(.text)
    DataScope                                0x08004335   Thumb Code   104  show.o(.text)
    Float2Byte                               0x08004421   Thumb Code    28  datascope_dp.o(.text)
    DataScope_Get_Channel_Data               0x0800443d   Thumb Code   158  datascope_dp.o(.text)
    DataScope_Data_Generate                  0x080044db   Thumb Code   148  datascope_dp.o(.text)
    __use_no_semihosting                     0x08004575   Thumb Code     2  use_no_semi_2.o(.text)
    __use_two_region_memory                  0x08004577   Thumb Code     2  heapauxi.o(.text)
    __rt_heap_escrow$2region                 0x08004579   Thumb Code     2  heapauxi.o(.text)
    __rt_heap_expand$2region                 0x0800457b   Thumb Code     2  heapauxi.o(.text)
    __I$use$semihosting                      0x0800457d   Thumb Code     0  use_no_semi.o(.text)
    __use_no_semihosting_swi                 0x0800457d   Thumb Code     2  use_no_semi.o(.text)
    __read_errno                             0x0800457f   Thumb Code    10  _rserrno.o(.text)
    __set_errno                              0x08004589   Thumb Code    12  _rserrno.o(.text)
    __aeabi_errno_addr                       0x08004595   Thumb Code     8  rt_errno_addr_intlibspace.o(.text)
    __errno$intlibspace                      0x08004595   Thumb Code     0  rt_errno_addr_intlibspace.o(.text)
    __rt_errno_addr$intlibspace              0x08004595   Thumb Code     0  rt_errno_addr_intlibspace.o(.text)
    __user_libspace                          0x0800459d   Thumb Code     8  libspace.o(.text)
    __user_perproc_libspace                  0x0800459d   Thumb Code     0  libspace.o(.text)
    __user_perthread_libspace                0x0800459d   Thumb Code     0  libspace.o(.text)
    __user_setup_stackheap                   0x080045a5   Thumb Code    74  sys_stackheap_outer.o(.text)
    exit                                     0x080045ef   Thumb Code    12  exit.o(.text)
    __ARM_fpclassify                         0x080045fb   Thumb Code    40  fpclassify.o(i.__ARM_fpclassify)
    __ieee754_rem_pio2                       0x08004625   Thumb Code   830  rred.o(i.__ieee754_rem_pio2)
    __kernel_cos                             0x080049ad   Thumb Code   230  cos_i.o(i.__kernel_cos)
    __kernel_poly                            0x08004aa9   Thumb Code   170  poly.o(i.__kernel_poly)
    __kernel_sin                             0x08004b55   Thumb Code   224  sin_i.o(i.__kernel_sin)
    __mathlib_dbl_underflow                  0x08004c41   Thumb Code    10  dunder.o(i.__mathlib_dbl_underflow)
    cos                                      0x08004c51   Thumb Code   164  cos.o(i.cos)
    sin                                      0x08004cfd   Thumb Code   166  sin.o(i.sin)
    __aeabi_d2f                              0x08004dad   Thumb Code     0  d2f.o(x$fpl$d2f)
    _d2f                                     0x08004dad   Thumb Code    98  d2f.o(x$fpl$d2f)
    __aeabi_dadd                             0x08004e11   Thumb Code     0  daddsub_clz.o(x$fpl$dadd)
    _dadd                                    0x08004e11   Thumb Code   332  daddsub_clz.o(x$fpl$dadd)
    __fpl_dcheck_NaN1                        0x08004f61   Thumb Code    10  dcheck1.o(x$fpl$dcheck1)
    __fpl_dcmp_Inf                           0x08004f71   Thumb Code    24  dcmpi.o(x$fpl$dcmpinf)
    __aeabi_ddiv                             0x08004f89   Thumb Code     0  ddiv.o(x$fpl$ddiv)
    _ddiv                                    0x08004f89   Thumb Code   552  ddiv.o(x$fpl$ddiv)
    __aeabi_d2iz                             0x08005239   Thumb Code     0  dfix.o(x$fpl$dfix)
    _dfix                                    0x08005239   Thumb Code    94  dfix.o(x$fpl$dfix)
    __aeabi_i2d                              0x08005297   Thumb Code     0  dflt_clz.o(x$fpl$dflt)
    _dflt                                    0x08005297   Thumb Code    46  dflt_clz.o(x$fpl$dflt)
    __aeabi_ui2d                             0x080052c5   Thumb Code     0  dflt_clz.o(x$fpl$dfltu)
    _dfltu                                   0x080052c5   Thumb Code    38  dflt_clz.o(x$fpl$dfltu)
    __aeabi_cdcmple                          0x080052ed   Thumb Code     0  dleqf.o(x$fpl$dleqf)
    _dcmple                                  0x080052ed   Thumb Code   120  dleqf.o(x$fpl$dleqf)
    __fpl_dcmple_InfNaN                      0x0800534f   Thumb Code     0  dleqf.o(x$fpl$dleqf)
    __aeabi_dmul                             0x08005365   Thumb Code     0  dmul.o(x$fpl$dmul)
    _dmul                                    0x08005365   Thumb Code   332  dmul.o(x$fpl$dmul)
    __fpl_dnaninf                            0x080054b9   Thumb Code   156  dnaninf.o(x$fpl$dnaninf)
    __fpl_dretinf                            0x08005555   Thumb Code    12  dretinf.o(x$fpl$dretinf)
    __aeabi_drsub                            0x08005561   Thumb Code     0  daddsub_clz.o(x$fpl$drsb)
    _drsb                                    0x08005561   Thumb Code    22  daddsub_clz.o(x$fpl$drsb)
    __aeabi_dsub                             0x08005579   Thumb Code     0  daddsub_clz.o(x$fpl$dsub)
    _dsub                                    0x08005579   Thumb Code   464  daddsub_clz.o(x$fpl$dsub)
    __aeabi_f2d                              0x0800574d   Thumb Code     0  f2d.o(x$fpl$f2d)
    _f2d                                     0x0800574d   Thumb Code    86  f2d.o(x$fpl$f2d)
    __aeabi_fadd                             0x080057a5   Thumb Code     0  faddsub_clz.o(x$fpl$fadd)
    _fadd                                    0x080057a5   Thumb Code   196  faddsub_clz.o(x$fpl$fadd)
    __fpl_fcmp_Inf                           0x08005869   Thumb Code    24  fcmpi.o(x$fpl$fcmpinf)
    __aeabi_fdiv                             0x08005881   Thumb Code     0  fdiv.o(x$fpl$fdiv)
    _fdiv                                    0x08005881   Thumb Code   384  fdiv.o(x$fpl$fdiv)
    __aeabi_f2iz                             0x08005a05   Thumb Code     0  ffix.o(x$fpl$ffix)
    _ffix                                    0x08005a05   Thumb Code    54  ffix.o(x$fpl$ffix)
    __aeabi_f2uiz                            0x08005a3d   Thumb Code     0  ffixu.o(x$fpl$ffixu)
    _ffixu                                   0x08005a3d   Thumb Code    62  ffixu.o(x$fpl$ffixu)
    __aeabi_i2f                              0x08005a7d   Thumb Code     0  fflt_clz.o(x$fpl$fflt)
    _fflt                                    0x08005a7d   Thumb Code    48  fflt_clz.o(x$fpl$fflt)
    __aeabi_cfcmple                          0x08005aad   Thumb Code     0  fleqf.o(x$fpl$fleqf)
    _fcmple                                  0x08005aad   Thumb Code   104  fleqf.o(x$fpl$fleqf)
    __fpl_fcmple_InfNaN                      0x08005aff   Thumb Code     0  fleqf.o(x$fpl$fleqf)
    __aeabi_fmul                             0x08005b15   Thumb Code     0  fmul.o(x$fpl$fmul)
    _fmul                                    0x08005b15   Thumb Code   258  fmul.o(x$fpl$fmul)
    __fpl_fnaninf                            0x08005c17   Thumb Code   140  fnaninf.o(x$fpl$fnaninf)
    __fpl_fretinf                            0x08005ca3   Thumb Code    10  fretinf.o(x$fpl$fretinf)
    __aeabi_cfrcmple                         0x08005cad   Thumb Code     0  frleqf.o(x$fpl$frleqf)
    _frcmple                                 0x08005cad   Thumb Code    98  frleqf.o(x$fpl$frleqf)
    __aeabi_fsub                             0x08005d11   Thumb Code     0  faddsub_clz.o(x$fpl$fsub)
    _fsub                                    0x08005d11   Thumb Code   234  faddsub_clz.o(x$fpl$fsub)
    __fpl_return_NaN                         0x08005dfb   Thumb Code   100  retnan.o(x$fpl$retnan)
    __ARM_scalbn                             0x08005e5f   Thumb Code    92  scalbn.o(x$fpl$scalbn)
    __fpl_cmpreturn                          0x08005ebb   Thumb Code    48  trapv.o(x$fpl$trapveneer)
    __I$use$fp                               0x08005eea   Number         0  usenofp.o(x$fpl$usenofp)
    oled_asc2_1206                           0x08005eea   Data        1140  oled.o(.constdata)
    oled_asc2_1608                           0x0800635e   Data        1520  oled.o(.constdata)
    Region$$Table$$Base                      0x08006a70   Number         0  anon$$obj.o(Region$$Table)
    Region$$Table$$Limit                     0x08006a90   Number         0  anon$$obj.o(Region$$Table)
    SystemCoreClock                          0x20000000   Data           4  system_stm32f10x.o(.data)
    AHBPrescTable                            0x20000004   Data          16  system_stm32f10x.o(.data)
    Flag_Stop                                0x20000014   Data           1  minibalance.o(.data)
    Position_X                               0x20000018   Data           4  minibalance.o(.data)
    Position_Y                               0x2000001c   Data           4  minibalance.o(.data)
    Balance_Kp                               0x20000020   Data           4  minibalance.o(.data)
    Balance_Ki                               0x20000024   Data           4  minibalance.o(.data)
    Balance_Kd                               0x20000028   Data           4  minibalance.o(.data)
    Data_Show                                0x2000002c   Data           4  minibalance.o(.data)
    Data_Show2                               0x20000030   Data           4  minibalance.o(.data)
    Zero_X                                   0x20000034   Data           4  minibalance.o(.data)
    Zero_Y                                   0x20000038   Data           4  minibalance.o(.data)
    Target_X                                 0x2000003c   Data           4  minibalance.o(.data)
    Target_Y                                 0x20000040   Data           4  minibalance.o(.data)
    delay_50                                 0x20000044   Data           1  minibalance.o(.data)
    delay_flag                               0x20000045   Data           1  minibalance.o(.data)
    PS2_LX                                   0x20000048   Data           4  minibalance.o(.data)
    PS2_LY                                   0x2000004c   Data           4  minibalance.o(.data)
    PS2_RX                                   0x20000050   Data           4  minibalance.o(.data)
    PS2_RY                                   0x20000054   Data           4  minibalance.o(.data)
    PS2_KEY                                  0x20000058   Data           4  minibalance.o(.data)
    Handkey                                  0x20000086   Data           2  pstwo.o(.data)
    Comd                                     0x20000088   Data           2  pstwo.o(.data)
    MASK                                     0x2000008a   Data          32  pstwo.o(.data)
    Max_Target                               0x200000ac   Data           4  control.o(.data)
    Flag_Target                              0x200000b0   Data           1  control.o(.data)
    Flag_Move                                0x200000b4   Data           4  control.o(.data)
    i                                        0x200000c4   Data           1  show.o(.data)
    Send_Count                               0x200000c5   Data           1  show.o(.data)
    Vol                                      0x200000c8   Data           4  show.o(.data)
    OLED_GRAM                                0x200000cc   Data        1024  oled.o(.bss)
    Data                                     0x200004cc   Data           9  pstwo.o(.bss)
    DataScope_OutPut_Buffer                  0x200004d5   Data          42  datascope_dp.o(.bss)
    __libspace_start                         0x20000500   Data          96  libspace.o(.bss)
    __temporary_stack_top$libspace           0x20000560   Data           0  libspace.o(.bss)



==============================================================================

Memory Map of the image

  Image Entry point : 0x080000ed

  Load Region LR_IROM1 (Base: 0x08000000, Size: 0x00006b5c, Max: 0x00010000, ABSOLUTE)

    Execution Region ER_IROM1 (Base: 0x08000000, Size: 0x00006a90, Max: 0x00010000, ABSOLUTE)

    Base Addr    Size         Type   Attr      Idx    E Section Name        Object

    0x08000000   0x000000ec   Data   RO          209    RESET               startup_stm32f10x_md.o
    0x080000ec   0x00000008   Code   RO          769  * !!!main             c_w.l(__main.o)
    0x080000f4   0x00000034   Code   RO         1043    !!!scatter          c_w.l(__scatter.o)
    0x08000128   0x0000001a   Code   RO         1045    !!handler_copy      c_w.l(__scatter_copy.o)
    0x08000142   0x00000002   PAD
    0x08000144   0x0000001c   Code   RO         1047    !!handler_zi        c_w.l(__scatter_zi.o)
    0x08000160   0x00000002   Code   RO          919    .ARM.Collect$$libinit$$00000000  c_w.l(libinit.o)
    0x08000162   0x00000000   Code   RO          925    .ARM.Collect$$libinit$$00000002  c_w.l(libinit2.o)
    0x08000162   0x00000000   Code   RO          928    .ARM.Collect$$libinit$$00000008  c_w.l(libinit2.o)
    0x08000162   0x00000000   Code   RO          930    .ARM.Collect$$libinit$$0000000A  c_w.l(libinit2.o)
    0x08000162   0x00000000   Code   RO          932    .ARM.Collect$$libinit$$0000000C  c_w.l(libinit2.o)
    0x08000162   0x00000000   Code   RO          935    .ARM.Collect$$libinit$$0000000F  c_w.l(libinit2.o)
    0x08000162   0x00000000   Code   RO          937    .ARM.Collect$$libinit$$00000011  c_w.l(libinit2.o)
    0x08000162   0x00000000   Code   RO          939    .ARM.Collect$$libinit$$00000013  c_w.l(libinit2.o)
    0x08000162   0x00000000   Code   RO          941    .ARM.Collect$$libinit$$00000015  c_w.l(libinit2.o)
    0x08000162   0x00000000   Code   RO          943    .ARM.Collect$$libinit$$00000017  c_w.l(libinit2.o)
    0x08000162   0x00000000   Code   RO          945    .ARM.Collect$$libinit$$00000019  c_w.l(libinit2.o)
    0x08000162   0x00000000   Code   RO          947    .ARM.Collect$$libinit$$0000001B  c_w.l(libinit2.o)
    0x08000162   0x00000000   Code   RO          949    .ARM.Collect$$libinit$$0000001D  c_w.l(libinit2.o)
    0x08000162   0x00000000   Code   RO          951    .ARM.Collect$$libinit$$0000001F  c_w.l(libinit2.o)
    0x08000162   0x00000000   Code   RO          953    .ARM.Collect$$libinit$$00000021  c_w.l(libinit2.o)
    0x08000162   0x00000000   Code   RO          955    .ARM.Collect$$libinit$$00000023  c_w.l(libinit2.o)
    0x08000162   0x00000000   Code   RO          959    .ARM.Collect$$libinit$$0000002A  c_w.l(libinit2.o)
    0x08000162   0x00000000   Code   RO          961    .ARM.Collect$$libinit$$0000002C  c_w.l(libinit2.o)
    0x08000162   0x00000000   Code   RO          963    .ARM.Collect$$libinit$$0000002E  c_w.l(libinit2.o)
    0x08000162   0x00000000   Code   RO          965    .ARM.Collect$$libinit$$00000030  c_w.l(libinit2.o)
    0x08000162   0x00000002   Code   RO          966    .ARM.Collect$$libinit$$00000031  c_w.l(libinit2.o)
    0x08000164   0x00000002   Code   RO          986    .ARM.Collect$$libshutdown$$00000000  c_w.l(libshutdown.o)
    0x08000166   0x00000000   Code   RO          997    .ARM.Collect$$libshutdown$$00000003  c_w.l(libshutdown2.o)
    0x08000166   0x00000000   Code   RO         1000    .ARM.Collect$$libshutdown$$00000006  c_w.l(libshutdown2.o)
    0x08000166   0x00000000   Code   RO         1003    .ARM.Collect$$libshutdown$$00000009  c_w.l(libshutdown2.o)
    0x08000166   0x00000000   Code   RO         1005    .ARM.Collect$$libshutdown$$0000000B  c_w.l(libshutdown2.o)
    0x08000166   0x00000000   Code   RO         1008    .ARM.Collect$$libshutdown$$0000000E  c_w.l(libshutdown2.o)
    0x08000166   0x00000002   Code   RO         1009    .ARM.Collect$$libshutdown$$0000000F  c_w.l(libshutdown2.o)
    0x08000168   0x00000000   Code   RO          833    .ARM.Collect$$rtentry$$00000000  c_w.l(rtentry.o)
    0x08000168   0x00000000   Code   RO          870    .ARM.Collect$$rtentry$$00000002  c_w.l(rtentry2.o)
    0x08000168   0x00000006   Code   RO          882    .ARM.Collect$$rtentry$$00000004  c_w.l(rtentry4.o)
    0x0800016e   0x00000000   Code   RO          872    .ARM.Collect$$rtentry$$00000009  c_w.l(rtentry2.o)
    0x0800016e   0x00000004   Code   RO          873    .ARM.Collect$$rtentry$$0000000A  c_w.l(rtentry2.o)
    0x08000172   0x00000000   Code   RO          875    .ARM.Collect$$rtentry$$0000000C  c_w.l(rtentry2.o)
    0x08000172   0x00000008   Code   RO          876    .ARM.Collect$$rtentry$$0000000D  c_w.l(rtentry2.o)
    0x0800017a   0x00000002   Code   RO          922    .ARM.Collect$$rtexit$$00000000  c_w.l(rtexit.o)
    0x0800017c   0x00000000   Code   RO          970    .ARM.Collect$$rtexit$$00000002  c_w.l(rtexit2.o)
    0x0800017c   0x00000004   Code   RO          971    .ARM.Collect$$rtexit$$00000003  c_w.l(rtexit2.o)
    0x08000180   0x00000006   Code   RO          972    .ARM.Collect$$rtexit$$00000004  c_w.l(rtexit2.o)
    0x08000186   0x00000002   PAD
    0x08000188   0x0000000c   Code   RO          544    .emb_text           sys.o
    0x08000194   0x0000001a   Code   RO            1    .text               stm32f10x_it.o
    0x080001ae   0x00000002   PAD
    0x080001b0   0x000001e0   Code   RO          104    .text               system_stm32f10x.o
    0x08000390   0x000000c4   Code   RO          122    .text               minibalance.o
    0x08000454   0x00000040   Code   RO          210    .text               startup_stm32f10x_md.o
    0x08000494   0x000000dc   Code   RO          214    .text               misc.o
    0x08000570   0x0000044e   Code   RO          252    .text               stm32f10x_adc.o
    0x080009be   0x00000002   PAD
    0x080009c0   0x000000c4   Code   RO          264    .text               stm32f10x_bkp.o
    0x08000a84   0x0000011c   Code   RO          348    .text               stm32f10x_exti.o
    0x08000ba0   0x0000035c   Code   RO          384    .text               stm32f10x_gpio.o
    0x08000efc   0x000000cc   Code   RO          420    .text               stm32f10x_pwr.o
    0x08000fc8   0x000003a4   Code   RO          432    .text               stm32f10x_rcc.o
    0x0800136c   0x00000e1a   Code   RO          482    .text               stm32f10x_tim.o
    0x08002186   0x00000002   PAD
    0x08002188   0x00000408   Code   RO          494    .text               stm32f10x_usart.o
    0x08002590   0x000000d4   Code   RO          518    .text               delay.o
    0x08002664   0x000002bc   Code   RO          545    .text               sys.o
    0x08002920   0x000000a4   Code   RO          560    .text               usart.o
    0x080029c4   0x00000060   Code   RO          579    .text               led.o
    0x08002a24   0x000001f0   Code   RO          592    .text               key.o
    0x08002c14   0x0000044e   Code   RO          605    .text               oled.o
    0x08003062   0x00000002   PAD
    0x08003064   0x000000bc   Code   RO          624    .text               adc.o
    0x08003120   0x0000005c   Code   RO          636    .text               timer.o
    0x0800317c   0x000000b0   Code   RO          648    .text               motor.o
    0x0800322c   0x000000b4   Code   RO          660    .text               usart3.o
    0x080032e0   0x00000424   Code   RO          678    .text               pstwo.o
    0x08003704   0x000000b8   Code   RO          697    .text               exti.o
    0x080037bc   0x0000092c   Code   RO          712    .text               control.o
    0x080040e8   0x00000338   Code   RO          730    .text               show.o
    0x08004420   0x00000154   Code   RO          745    .text               datascope_dp.o
    0x08004574   0x00000002   Code   RO          765    .text               c_w.l(use_no_semi_2.o)
    0x08004576   0x00000006   Code   RO          767    .text               c_w.l(heapauxi.o)
    0x0800457c   0x00000002   Code   RO          831    .text               c_w.l(use_no_semi.o)
    0x0800457e   0x00000016   Code   RO          834    .text               c_w.l(_rserrno.o)
    0x08004594   0x00000008   Code   RO          887    .text               c_w.l(rt_errno_addr_intlibspace.o)
    0x0800459c   0x00000008   Code   RO          907    .text               c_w.l(libspace.o)
    0x080045a4   0x0000004a   Code   RO          910    .text               c_w.l(sys_stackheap_outer.o)
    0x080045ee   0x0000000c   Code   RO          912    .text               c_w.l(exit.o)
    0x080045fa   0x00000028   Code   RO          903    i.__ARM_fpclassify  m_ws.l(fpclassify.o)
    0x08004622   0x00000002   PAD
    0x08004624   0x00000388   Code   RO          858    i.__ieee754_rem_pio2  m_ws.l(rred.o)
    0x080049ac   0x000000fc   Code   RO          855    i.__kernel_cos      m_ws.l(cos_i.o)
    0x08004aa8   0x000000aa   Code   RO          905    i.__kernel_poly     m_ws.l(poly.o)
    0x08004b52   0x00000002   PAD
    0x08004b54   0x000000ec   Code   RO          863    i.__kernel_sin      m_ws.l(sin_i.o)
    0x08004c40   0x00000010   Code   RO          901    i.__mathlib_dbl_underflow  m_ws.l(dunder.o)
    0x08004c50   0x000000ac   Code   RO          816    i.cos               m_ws.l(cos.o)
    0x08004cfc   0x000000b0   Code   RO          824    i.sin               m_ws.l(sin.o)
    0x08004dac   0x00000062   Code   RO          771    x$fpl$d2f           fz_ws.l(d2f.o)
    0x08004e0e   0x00000002   PAD
    0x08004e10   0x00000150   Code   RO          773    x$fpl$dadd          fz_ws.l(daddsub_clz.o)
    0x08004f60   0x00000010   Code   RO          889    x$fpl$dcheck1       fz_ws.l(dcheck1.o)
    0x08004f70   0x00000018   Code   RO          836    x$fpl$dcmpinf       fz_ws.l(dcmpi.o)
    0x08004f88   0x000002b0   Code   RO          839    x$fpl$ddiv          fz_ws.l(ddiv.o)
    0x08005238   0x0000005e   Code   RO          891    x$fpl$dfix          fz_ws.l(dfix.o)
    0x08005296   0x0000002e   Code   RO          896    x$fpl$dflt          fz_ws.l(dflt_clz.o)
    0x080052c4   0x00000026   Code   RO          895    x$fpl$dfltu         fz_ws.l(dflt_clz.o)
    0x080052ea   0x00000002   PAD
    0x080052ec   0x00000078   Code   RO          779    x$fpl$dleqf         fz_ws.l(dleqf.o)
    0x08005364   0x00000154   Code   RO          781    x$fpl$dmul          fz_ws.l(dmul.o)
    0x080054b8   0x0000009c   Code   RO          842    x$fpl$dnaninf       fz_ws.l(dnaninf.o)
    0x08005554   0x0000000c   Code   RO          844    x$fpl$dretinf       fz_ws.l(dretinf.o)
    0x08005560   0x00000016   Code   RO          774    x$fpl$drsb          fz_ws.l(daddsub_clz.o)
    0x08005576   0x00000002   PAD
    0x08005578   0x000001d4   Code   RO          775    x$fpl$dsub          fz_ws.l(daddsub_clz.o)
    0x0800574c   0x00000056   Code   RO          783    x$fpl$f2d           fz_ws.l(f2d.o)
    0x080057a2   0x00000002   PAD
    0x080057a4   0x000000c4   Code   RO          785    x$fpl$fadd          fz_ws.l(faddsub_clz.o)
    0x08005868   0x00000018   Code   RO          846    x$fpl$fcmpinf       fz_ws.l(fcmpi.o)
    0x08005880   0x00000184   Code   RO          792    x$fpl$fdiv          fz_ws.l(fdiv.o)
    0x08005a04   0x00000036   Code   RO          795    x$fpl$ffix          fz_ws.l(ffix.o)
    0x08005a3a   0x00000002   PAD
    0x08005a3c   0x0000003e   Code   RO          799    x$fpl$ffixu         fz_ws.l(ffixu.o)
    0x08005a7a   0x00000002   PAD
    0x08005a7c   0x00000030   Code   RO          804    x$fpl$fflt          fz_ws.l(fflt_clz.o)
    0x08005aac   0x00000068   Code   RO          809    x$fpl$fleqf         fz_ws.l(fleqf.o)
    0x08005b14   0x00000102   Code   RO          811    x$fpl$fmul          fz_ws.l(fmul.o)
    0x08005c16   0x0000008c   Code   RO          848    x$fpl$fnaninf       fz_ws.l(fnaninf.o)
    0x08005ca2   0x0000000a   Code   RO          850    x$fpl$fretinf       fz_ws.l(fretinf.o)
    0x08005cac   0x00000062   Code   RO          813    x$fpl$frleqf        fz_ws.l(frleqf.o)
    0x08005d0e   0x00000002   PAD
    0x08005d10   0x000000ea   Code   RO          787    x$fpl$fsub          fz_ws.l(faddsub_clz.o)
    0x08005dfa   0x00000064   Code   RO          920    x$fpl$retnan        fz_ws.l(retnan.o)
    0x08005e5e   0x0000005c   Code   RO          852    x$fpl$scalbn        fz_ws.l(scalbn.o)
    0x08005eba   0x00000030   Code   RO          967    x$fpl$trapveneer    fz_ws.l(trapv.o)
    0x08005eea   0x00000000   Code   RO          854    x$fpl$usenofp       fz_ws.l(usenofp.o)
    0x08005eea   0x00000a64   Data   RO          607    .constdata          oled.o
    0x0800694e   0x00000002   PAD
    0x08006950   0x00000030   Data   RO          856    .constdata          m_ws.l(cos_i.o)
    0x08006980   0x000000c8   Data   RO          860    .constdata          m_ws.l(rred.o)
    0x08006a48   0x00000028   Data   RO          864    .constdata          m_ws.l(sin_i.o)
    0x08006a70   0x00000020   Data   RO         1041    Region$$Table       anon$$obj.o


    Execution Region RW_IRAM1 (Base: 0x20000000, Size: 0x00000b60, Max: 0x00005000, ABSOLUTE)

    Base Addr    Size         Type   Attr      Idx    E Section Name        Object

    0x20000000   0x00000014   Data   RW          105    .data               system_stm32f10x.o
    0x20000014   0x00000048   Data   RW          123    .data               minibalance.o
    0x2000005c   0x00000014   Data   RW          433    .data               stm32f10x_rcc.o
    0x20000070   0x00000004   Data   RW          519    .data               delay.o
    0x20000074   0x00000004   Data   RW          580    .data               led.o
    0x20000078   0x0000000e   Data   RW          593    .data               key.o
    0x20000086   0x00000024   Data   RW          680    .data               pstwo.o
    0x200000aa   0x00000002   PAD
    0x200000ac   0x00000018   Data   RW          713    .data               control.o
    0x200000c4   0x00000008   Data   RW          731    .data               show.o
    0x200000cc   0x00000400   Zero   RW          606    .bss                oled.o
    0x200004cc   0x00000009   Zero   RW          679    .bss                pstwo.o
    0x200004d5   0x0000002a   Zero   RW          746    .bss                datascope_dp.o
    0x200004ff   0x00000001   PAD
    0x20000500   0x00000060   Zero   RW          908    .bss                c_w.l(libspace.o)
    0x20000560   0x00000200   Zero   RW          208    HEAP                startup_stm32f10x_md.o
    0x20000760   0x00000400   Zero   RW          207    STACK               startup_stm32f10x_md.o


==============================================================================

Image component sizes


      Code (inc. data)   RO Data    RW Data    ZI Data      Debug   Object Name

       188         10          0          0          0        855   adc.o
      2348        244          0         24          0       3371   control.o
         0          0          0          0          0         32   core_cm3.o
       340         30          0          0         42       2202   datascope_dp.o
       212         18          0          4          0       1115   delay.o
       184         22          0          0          0       1017   exti.o
       496         46          0         14          0       1663   key.o
        96         16          0          4          0        777   led.o
       196         30          0         72          0       1459   minibalance.o
       220         22          0          0          0     216681   misc.o
       176          8          0          0          0        808   motor.o
      1102         34       2660          0       1024       4743   oled.o
      1060         54          0         36          9       3871   pstwo.o
       824        132          0          8          0       1217   show.o
        64         26        236          0       1536        828   startup_stm32f10x_md.o
      1102         26          0          0          0      10925   stm32f10x_adc.o
       196          8          0          0          0       3552   stm32f10x_bkp.o
       284         10          0          0          0       2323   stm32f10x_exti.o
       860         38          0          0          0       5737   stm32f10x_gpio.o
        26          0          0          0          0     250926   stm32f10x_it.o
       204         14          0          0          0       1963   stm32f10x_pwr.o
       932         36          0         20          0       8956   stm32f10x_rcc.o
      3610         88          0          0          0      22220   stm32f10x_tim.o
      1032         22          0          0          0       8460   stm32f10x_usart.o
       712         44          0          0          0       2803   sys.o
       480         38          0         20          0       1875   system_stm32f10x.o
        92          4          0          0          0        708   timer.o
       164         10          0          0          0       2635   usart.o
       180          8          0          0          0        903   usart3.o

    ----------------------------------------------------------------------
     17388       1038       2930        204       2612     564625   Object Totals
         0          0         32          0          0          0   (incl. Generated)
         8          0          2          2          1          0   (incl. Padding)

    ----------------------------------------------------------------------

      Code (inc. data)   RO Data    RW Data    ZI Data      Debug   Library Member Name

         8          0          0          0          0         68   __main.o
        52          8          0          0          0          0   __scatter.o
        26          0          0          0          0          0   __scatter_copy.o
        28          0          0          0          0          0   __scatter_zi.o
        22          0          0          0          0        100   _rserrno.o
        12          0          0          0          0         72   exit.o
         6          0          0          0          0        152   heapauxi.o
         2          0          0          0          0          0   libinit.o
         2          0          0          0          0          0   libinit2.o
         2          0          0          0          0          0   libshutdown.o
         2          0          0          0          0          0   libshutdown2.o
         8          4          0          0         96         68   libspace.o
         8          4          0          0          0         68   rt_errno_addr_intlibspace.o
         0          0          0          0          0          0   rtentry.o
        12          0          0          0          0          0   rtentry2.o
         6          0          0          0          0          0   rtentry4.o
         2          0          0          0          0          0   rtexit.o
        10          0          0          0          0          0   rtexit2.o
        74          0          0          0          0         80   sys_stackheap_outer.o
         2          0          0          0          0         68   use_no_semi.o
         2          0          0          0          0         68   use_no_semi_2.o
        98          4          0          0          0         92   d2f.o
       826         16          0          0          0        348   daddsub_clz.o
        16          4          0          0          0         68   dcheck1.o
        24          0          0          0          0         68   dcmpi.o
       688        140          0          0          0        208   ddiv.o
        94          4          0          0          0         92   dfix.o
        84          0          0          0          0        136   dflt_clz.o
       120          4          0          0          0         92   dleqf.o
       340         12          0          0          0        104   dmul.o
       156          4          0          0          0         92   dnaninf.o
        12          0          0          0          0         68   dretinf.o
        86          4          0          0          0         84   f2d.o
       430          8          0          0          0        168   faddsub_clz.o
        24          0          0          0          0         68   fcmpi.o
       388         76          0          0          0         96   fdiv.o
        54          4          0          0          0         84   ffix.o
        62          4          0          0          0         84   ffixu.o
        48          0          0          0          0         68   fflt_clz.o
       104          4          0          0          0         84   fleqf.o
       258          4          0          0          0         84   fmul.o
       140          4          0          0          0         84   fnaninf.o
        10          0          0          0          0         68   fretinf.o
        98          0          0          0          0         68   frleqf.o
       100          0          0          0          0         68   retnan.o
        92          0          0          0          0         68   scalbn.o
        48          0          0          0          0         68   trapv.o
         0          0          0          0          0          0   usenofp.o
       172          8          0          0          0        112   cos.o
       252         22         48          0          0        124   cos_i.o
        16          6          0          0          0         68   dunder.o
        40          0          0          0          0         68   fpclassify.o
       170          0          0          0          0         96   poly.o
       904         74        200          0          0        140   rred.o
       176         10          0          0          0        116   sin.o
       236         12         40          0          0        128   sin_i.o

    ----------------------------------------------------------------------
      6674        444        288          0         96       4208   Library Totals
        22          0          0          0          0          0   (incl. Padding)

    ----------------------------------------------------------------------

      Code (inc. data)   RO Data    RW Data    ZI Data      Debug   Library Name

       286         16          0          0         96        744   c_w.l
      4400        296          0          0          0       2612   fz_ws.l
      1966        132        288          0          0        852   m_ws.l

    ----------------------------------------------------------------------
      6674        444        288          0         96       4208   Library Totals

    ----------------------------------------------------------------------

==============================================================================


      Code (inc. data)   RO Data    RW Data    ZI Data      Debug   

     24062       1482       3218        204       2708     563837   Grand Totals
     24062       1482       3218        204       2708     563837   ELF Image Totals
     24062       1482       3218        204          0          0   ROM Totals

==============================================================================

    Total RO  Size (Code + RO Data)                27280 (  26.64kB)
    Total RW  Size (RW Data + ZI Data)              2912 (   2.84kB)
    Total ROM Size (Code + RO Data + RW Data)      27484 (  26.84kB)

==============================================================================

